:030000000219FDE5
:03000B000200AA46
:03002B000201B01F
:03005B0002035F3E
:0300730002034540
:1000800002030406080C10182030406080040608A3
:100090000C10182030406080A0C000070F1F3F0DDB
:1000A0000D04050D050305030302C2AF306308C24A
:1000B0006385798AD2AF32C0D0C0E0C0F075F02B32
:1000C000E525A485F07C75F02BE526A485F07D2040
:1000D0006229E57C6002E473E57CF4C33340097572
:1000E0008A00D263F57901EAF58A758B00758D0077
:1000F000D262D0F0D0E0D0D0D2AF32C3E57D334071
:1001000009758A00D263F579210CF58AC262E57D12
:10011000F4603C306803207215758B00758D00D03B
:10012000F0D0E0D0D0C293C297C294D2AF32C29383
:10013000C297C294206E09740CD5E0FDE57B429015
:10014000758B00758D00D0F0D0E0D0D0D2AF327575
:100150008A00D263757900C28DD262214001D83005
:100160006805206602D29301D8306805206602D265
:100170009401D8306805206602D29701D8C2923027
:10018000680A206607740CD5E0FDD29301D8C295A9
:1001900030680A206607740CD5E0FDD29401D8C2FD
:1001A0009630680A206607740CD5E0FDD29701D816
:1001B000C2AFC2AD53E6EFC0D0C0E0D2D3D2AFE5FC
:1001C0007A6009E577600575770041F4757701C2BB
:1001D000CEE52A6007207449152A4121780079006C
:1001E00020742EE580307E01F430E50278FF53DA8A
:1001F000CF207E0343DA20307E0343DA10C2D8C218
:1002000071E580307E01F430E50279FFC3E8997032
:10021000CB306103752A18207403752A18885CD2C4
:100220007020740DE52B6004152B413143DA01C2B7
:10023000D8207002418DA85C206102C27020743603
:100240007982B70431C3E894F0400374F0F8E8C44D
:10025000540F28F87984B703024176C313C3138778
:1002600021200802C313200A06C3C898F841762843
:10027000F8500374FFF88822E52D5406600FE5332B
:10028000C313C3132522F52250037522FF7882B6CB
:100290000459852224A824C3E52495614002A8615D
:1002A000C3E895634002A8638825E566700241DED5
:1002B000C3E8AA669A5003E8FAE4F9EAC333FBE517
:1002C00068F45B29400D2567F8E567600215674013
:1002D0000B41DE0AC3E5679A5002056778FF88265E
:1002E000C26EC3E52694F84002D26EC3E525944061
:1002F0004002D26420CF0AD0E0D0D043E610D2AD85
:1003000032E57A6009E5786005757800613B7578BB
:1003100001C2CF7801E52A6005307402152AC3E5D1
:100320005C94014005755F00613B75600075690074
:10033000E55F2401F55F5003755FFFD0E0D0D04347
:10034000E610D2AD32C2AFC0D053E67FC260759125
:1003500000855394855495759104D0D0D2AF32C2A4
:10036000AF53E6EFC2ADC0D0C0E0C0F0D2D3D2AF41
:10037000A8FBA9FCE57A6007C3E913F9E813F8C202
:10038000D830710261D153DACF207E0343DA1030C6
:100390007E0343DA20D271E580307E01F420E5024D
:1003A00061A888278928A1F853DACF207E0343DA91
:1003B00020307E0343DA10C2D8C271307402A1E447
:1003C0007800E580307E01F430E502A1E4885CA18C
:1003D000CC53DACF207E0343DA20307E0343DA1099
:1003E000C27120610281AA53DACF207E0343DA1062
:1003F000307E0343DA20C2D8D27188578958C3E8C7
:100400009555F8E99556F97B007E087A00C3E89483
:100410008CE994005005755B00819C882178A2E6E8
:10042000A8216055C3E894C8E994005008E4D2E4D8
:10043000FB7A0A8177C3E89468E994015008E4D212
:10044000E3FB7A0F8177C3E894D0E994025008E483
:10045000D2E2FB7A1E8177C3E894A0E994055008A4
:10046000E4D2E1FB7A3C8177C3E89498E9940850A0
:0F04700008E4D2E0FB7A787E00C3E89559FCE9F6
:10047F00955AFD30E70AECF42401FCEDF43400FD4D
:10048F00755B00C3EC9AED9E5003755B018859892B
:10049F005A8557558558567802A1CCC3E89527F849
:1004AF00E99528F9307C02A1B0307B02A1B0307AF7
:1004BF0002A1A920750281CDE9FDE8FC81ECE9C319
:1004CF0013F9E813F8307902A1A9E9C313F9E81376
:1004DF00F8307802A1A9E9C313FDE813FC206126C7
:1004EF00C3EC941CED94024002A103ED7018C3EC11
:1004FF0094C850120529C3E529940A5002A1E47546
:10050F005C00D270A1E4E529600215297888E6F92C
:10051F007400207F087896B90302789EE624FAFECD
:10052F00E43400FFC3EC9EFCED9FFD9208B903106D
:10053F00A2085007207609D276A14F307602C276F4
:10054F00A2085016B9030DECF42401FCEDF43400AD
:10055F00FD02056978007900A1B0B90315EC33FCF1
:10056F00ED33FDC3EC940AFCED9400FD50047C00C8
:10057F007D00C3EC94FFED9400400678FF7900A155
:10058F00B0EC8572F0A4C5F0A2F733F87900400300
:10059F000205CC78FF79000205CCE9C313F9E81303
:1005AF00F8307C0EE9600278FFC3E81338F8E434C2
:1005BF0000F9C3E894FFE99400400278FF885CD209
:1005CF0070206102A1E4741FF4552F4BF52FC274F4
:1005DF00EB7002D274752A18307403752A0A3061D1
:1005EF0002A1F820740353DAFE207403752B06D092
:1005FF00F0D0E0D0D0D2AD43E61032790102062818
:10060F007903020628790A020628791E020628793C
:10061F006402062879C80206287817E4D5E0FDD8C9
:10062F00FAD9F6227A147B7802064F7A107B8C0265
:10063F00064F7A0D7BB402064F7A0B7BC802064F2A
:10064F007902B27DE4C295D5E0FDD294D5E0FDC22A
:10065F0094D5E0FDD295D5E0FDD293E573D5E0FDBD
:10066F00C2937496D5E0FDD9D9EAF8D5E0FDD8FB51
:10067F00DBCEC29522C37C007D0075F00005F0EA49
:10068F0033FAEB33FB50F6EB13FBEA13FAC3E9FF34
:10069F00E8FEE89AF8E99BF95004EFF9EEF8B3ECAD
:1006AF0033FCED33FDD5F0DFEDF9ECF822E889F0FE
:1006BF008A20D2D4F8A9F07B0030F70B7BFFF4240B
:1006CF0001F8E9F43400F9E88520F0A4ADF0F8E979
:1006DF008520F0A4AFF0FEED2EF974003FFA7C04F4
:1006EF00C3EA13FAE913F9E813F8DCF48BF030F7E7
:1006FF000AE8F42401F8E9F43400F9E889F0C2D4E7
:10070F00F8A9F0227882B6040302076EC3E55C9461
:10071F00014003020738852224E4F542F543F544EE
:10072F00F545F546C26D02076E7882E6FCD26DE59F
:10073F0022F523783879C7AA3DAB3EC3EB13FBEA0A
:10074F0013FAEC146013C3EB13FBEA13FAEC141453
:10075F006007C3EB13FBEA13FAD184884289432263
:10076F00C3E5429523F8E5439400F9500CC3E89490
:10077F0080E994FF401602079FC3E8947FE9940035
:10078F00500302079F787F790002079F788079FFD7
:10079F008847894822E5472544F8E5483545F985D6
:1007AF004820E4300701F43546FA30E709C3EA94EC
:1007BF00F040150207DDC3EA940F50030207DD78FE
:1007CF00FF79FF7A0F0207DD780079007AF0C3E531
:1007DF00249561500AC374019524500B0207FBE561
:1007EF004820E70E0207FBE54830E70688448945B5
:1007FF008A462278A4E6FAC3E54733F8E54833F989
:10080F001206BCE930E70BC3E89480E994FF40136C
:10081F000136C3E8947FE9940050020136787F795E
:10082F00000136788079FFE820E715C3E52398F8B3
:10083F004009C3E89401400302085D780102085D96
:10084F00E8F424012523F8400302085D78FF884966
:10085F002278A5E6FAA845A9461206BCE930E70CAE
:0E086F00C3E89401E994FF4016020892C3E822
:10087D0094FFE99400500302089278FF7900020872
:10088D0092780179FFE920E715C3E54998F8400909
:10089D00C3E8940140030208B978010208B9E8F4ED
:1008AD0024012549F840030208B978FF88242278ED
:1008BD00FFC26420693D206A12D264C3E53E940AEA
:1008CD004009C3E52594405002C26479A1E7602335
:1008DD00E53E601F74FF853EF0848538F0306A0375
:1008ED0075F005A4F8C5F0600278FFC3E895645073
:1008FD0002A864886322C3E53D94C8E53E9400E5F3
:10090D00635003142114046002F5632202091C22B2
:10091D0075E890227883E6FFE5E820ECF7A8BDA9FD
:10092D00BE0570C3E57094084052757000E9FA7900
:10093D00A0E76044EA7007E571601B020957C3E840
:10094D0095716010E5715006600C14020963046026
:10095D00F9020963E571F571C39472401B7561C0AD
:10096D00C394044013756180C39404400B756140BA
:10097D00C39404400375610075BB0922E561241021
:10098D00500274FFF5617982B7040221B0C3A861EA
:10099D00E524985002A824C3E895634002A8638813
:1009AD00258826E570B4070375BB1022743279A62D
:1009BD0087F0A4C5F0A2F733F8C3E895614002A80B
:1009CD00618822882488258826886422753D0075D3
:1009DD003EF02275C820A8CCA9CD75C824C3E91353
:1009ED00F9E813F8AA39AB3A8839893AC3E89AF885
:1009FD00E99B547FF930670241DF306933AC3BAD81
:100A0D003C8A3B8B3CC3EB9D547FFBC3E99BF53F7D
:100A1D00A839A93AC3E89CF8E99D547FF9C3E53E8E
:100A2D0013FBE53D13FAE82AF53DE93BF53E418719
:100A3D00AA3DAB3EAC3DAD3E7E047F02C3EB9404BC
:100A4D0040021E1FC3EB940840021E1FC3ED13FD91
:100A5D00EC13FCDEF7C3EA9CFAEB9DFBEF6009C3D8
:100A6D00E913F9E813F8DFF7EA28FAEB39FB8A3DC9
:100A7D008B3E50067BFF8B3D8B3EC3EB94025002A9
:100A8D00D2673069047F0341B27892E6FFC3E53641
:100A9D00948240110FC3E53694A040010FC3EF942B
:100AAD000640027F057E01E53EC4540FF9E53EC4C4
:100ABD0054F0F8E53DC4540F28F8C3E89EFAE994C4
:100ACD0000FB4009C3EA9402EB940050047A02E45F
:100ADD00FB22AA3DAB3EEBC4FEEAC4540F4EFCC351
:100AED00EA9CFAEB9400FBC3E813C313F8EA28FA67
:100AFD00EB3400FB8A3D8B3EC3EB94024002C26790
:100B0D007801EBC4FE7B00EAC4540F4EFAC3EA9899
:100B1D00FA4005C3940250027A027892E6FF223021
:100B2D006002612C854F53855054D26043E680227C
:100B3D00C3E49AF8E49BF9C3E833F8E933F9306775
:100B4D000261CCE8FAE9FBD3E913FDE813FC884F09
:100B5D008950C3EF94036037EF20E00DE82CF8E9DE
:100B6D003DF9ECFAEDFB020B89E828F8E939F9C3F8
:100B7D00E82402F8E93400F97AFE7BFFC3EF940311
:100B8D00400D8A518B52884B894C8C4D8D4E22884D
:100B9D005189528A4B8B4C8C4D8D4E306920C3E55B
:100BAD003394034019E53FA2E713F8E552F424010D
:100BBD0038400B20E7087551FFF42401F55222E867
:100BCD00FAD3E813FC884FC3EF9403601FEF20E0C6
:100BDD0007E82CF8ECFA61ECE8282402F87AFEC359
:100BED00EF940340078A51884B8C4D2288518A4BD4
:100BFD008C4D22E568C3335002646BF5683060029A
:100C0D00810AD26043E680E52D54066029A83DA9EE
:100C1D003EC3E913F9E813F8C3E833F8E933F953A0
:100C2D00E67F759100C3E498F594E499F595759177
:100C3D0004D26043E68022D26575410075200030F4
:100C4D006B03752040020C63D26575410075204021
:100C5D00306B03752000D2AF7801206722E52D544B
:0E0C6D00066002C265C3E53E9405401378029E
:100C7B0094054008780394054002780630690278A1
:100C8B000A206009E5416005D2AFD26C22D2AF00D9
:100C9B0000C2AF20672AE53EC3FB940F40027B0FD7
:100CAB00EB240530730123306A0274282062012380
:100CBB00F93069027982E58D13E58B13C39940C135
:100CCB000541E59BF45440B52002A124306914087A
:100CDB00C3E8940A40028163C3E533940650028152
:100CEB0063818C2065028163C26553E67F75910039
:100CFB003067107594007595FC759104D26043E6CE
:100D0B00808163AE3DAF3EC3EE33FEEF33FFC3E4F2
:100D1B009EF594E49FF595A104C3E533940250022C
:100D2B0081633065028163D802A138818CC26C2249
:100D3B00E52D54066008206A020533020D59306C0C
:100D4B000D206B0A20650715811581021650225361
:100D5B00E67F759100855194855295759104854B6D
:100D6B0053854C54D26043E680D2AF227800306476
:100D7B00053065027801E53675F007A4F9E5F02832
:100D8B00F5F0E9A2F013A2F113A2F213F536C39416
:100D9B00785003753678C3E53695374008D266C26E
:100DAB0093C297C294306002A1B0854D53854E54C7
:100DBB00D26043E68022207D11C2AF754002C295FE
:100DCB00D292D2AF759F80020F90C2AF754002C214
:100DDB0095D296D2AF759F80020F90307243207DD3
:100DEB0020C2AF75400390018E757B20C297C296CF
:100DFB00306204D294C104D295D2AF759F89020F91
:100E0B0090C2AF75400390018E757B20C293C29246
:100E1B00306204D294C124D295D2AF759F81020F58
:100E2B0090207D17C2AF754003900169C297306265
:100E3B0002D294D2AF759F89020F90C2AF75400357
:100E4B00900169C293306202D294D2AF759F810236
:100E5B000F90207D11C2AF754004C292D296D2AFD3
:100E6B00759F81020F90C2AF754004C296D292D289
:100E7B00AF759F89020F90307243207D20C2AF75F2
:100E8B00400590017D757B04C294C295306204D2FB
:100E9B0093C1A0D292D2AF759F80020F90C2AF7553
:100EAB00400590019F757B40C294C295306204D27D
:100EBB0097C1C0D296D2AF759F80020F90207D173D
:100ECB00C2AF75400590015FC294306202D293D2DB
:100EDB00AF759F80020F90C2AF754005900173C232
:100EEB00943062EBD297D2AF759F80020F90207D2A
:100EFB0011C2AF754006C296D295D2AF759F8902CB
:100F0B000F90C2AF754006C292D295D2AF759F813A
:100F1B00020F90307242207D20C2AF7540019001CC
:100F2B009F757B40C293C292306204D297E13CD250
:100F3B0096D2AF759F81020F90C2AF7540019001A1
:100F4B007D757B04C297C296306204D293E15CD26A
:100F5B0092D2AF759F89E190207D16C2AF7540018B
:100F6B00900173C293306202D297D2AF759F81E129
:100F7B0090C2AF75400190015FC297306202D2936D
:100F8B00D2AF759F89C2662290015D757B00C293BB
:100F9B00C297C294C292C296C295C26222788076E0
:100FAB00090876090876040876FF0876030876FFA9
:100FBB00087609087601087601087601788C7601A7
:100FCB000876FF0876FF0876FF0876FF0876FF089D
:100FDB0076030876FF0876FF0876FF0876250876F5
:100FEB00D00876280876500876040876FF08760233
:100FFB0008760008767A0876FF08760108760108ED
:10100B007600087603227887E6FFC272BF0302D20E
:10101B00727888E6C394036008C27DE630E102D2A1
:10102B007DC27E7889E630E102D27EC3EF94026006
:10103B0008758E01D273021049758E00C273227827
:10104B0080E6149000809378A4F67881E6149000E3
:10105B00809378A5F67886E61490008D9378A6F6A3
:0F106B00789CE67537FF75380CB402067537A010
:10107A0075380AB4030675378275380578A3E614FD
:10108A0090009A93F566120F9322227896E6FA78E0
:10109A0097E6FB7888E6B40305C3EB940EFB307F32
:1010AA00047A007BFFC3EB9AFCC3948250027C82D1
:1010BA007572000572EC8572F0A4C3E5F0947D4068
:1010CA00F222D27F11951206197A007B007C101247
:1010DA00060FE55C2AFA74003BFBDCF37C04C3EBE5
:1010EA0013FBEA13FADCF7FEC27F119522E5EF2023
:1010FA00E6037520000520903FFFE5201460069066
:10110A001FFF1460009304600375EF1253D9BF7573
:10111A0081C043FF8012060A75EF0243B203E5B3AA
:10112A00240420E70DF521E5E320E0068521B343F9
:10113A00E301120F937580FF75A40075F1F075D461
:10114A00DF75900275A5FC75F2FD75D50275A610BE
:10115A0075A0FF75F3F175E241E4F8F6D8FD7568FC
:10116A0001120FA812169A78988673753001C2AFC9
:10117A0012062312063312061912063A1206191219
:10118A000641120619C2AF78FA79FA308507D9FBF7
:10119A00D8F7021C001111114A11941195789886FA
:1011AA0073120F9375B68075A900757A0075885009
:1011BA0075891275C82475910475D84075A8227569
:1011CA00B80275E690759B80759D0075D10E75BC49
:1011DA005875BB0975BA1175E88012060AD2AF12A2
:1011EA00091953DACF207E0343DA20307E0343DA2B
:1011FA001043DA01C2D8C271120623D2617B037A84
:10120A000CE55B70077A0CDB0302118F12061920BA
:10121A00700302118FC270E55CC3940240E1E52FAE
:10122A00541F855E5DF55EB55DD5DAD5C26153DAC8
:10123A00CF207E0343DA20307E0343DA10C2D8C2BD
:10124A007178A2E67008D274E52F54E0F52FC275C2
:10125A0075290012061E307409C3E529940A400252
:10126A00D27512060F78023074027800C3E55C98D2
:10127A0040F0C2AF120633120633120633D2AF124F
:10128A000623754A007888E6B40302616B12060FDA
:10129A00788CE6C39401500302136BE530C39401C2
:1012AA00500302136B207435C3E55C94FF500302AC
:1012BA00136BC2AF120648D2AF12061EC3E55C9486
:1012CA000150EFC2AF120633120614120633D2AF20
:1012DA0012061EC3E55C94FF40E90218427F02D25F
:1012EA007F119512061EC2AFC27F1195AE5CC3E58F
:1012FA005C947FD2AF407412060AC2AF120648D27B
:10130A00AFDFDC11CCC3EE94057897F612062312F0
:10131A0016DC1217C57F0AD27F119512061EC2AFBC
:10132A00C27F1195AE5CC3E55C947FD2AF50E612E2
:10133A00060AC2AF120633120614120633D2AFDF00
:10134A00D611CCEE24057896F61206231216DC1274
:10135A0017F412061E1195C3E55C94FF40F40218B7
:10136A0042C3E55C954A4003855C4A12061E780131
:10137A007988E7B403027805C3E55C984002418F97
:10138A00C2AF120648120648120648D2AF12062306
:10139A00753000E4F531F5320531E531F47039057F
:1013AA0032789AE67819146012783214600D787DD2
:1013BA0014600878FA146003753200C3E532984065
:1013CA001715327531B478998673C2AF120648D2AE
:1013DA00AF7898867312061E120614E52A70053035
:1013EA007402218F78012074027806C3E55C984064
:1013FA00A77888E6C39403600312061EE52A7003E1
:10140A0002118FC2AF120F93E4F522F523F524F5EA
:10141A0025F526F567D2AF7885E6C333F565E4F599
:10142A0042F543F544F545F546F570F52CF52DF5ED
:10143A003675700875BB1012060A12091DE5E820F8
:10144A00ECFBA8BDA9BEE97001F8887112092175E3
:10145A00700875BB107887E6FE760211117887EE60
:0F146A00F6C2AF7561FF1209B985226185226252
:10147900852263D2AF752201752401752501752670
:1014890001856069756A0175B69075A903757A0158
:101499007888E6B40307C27D307602D27DD268D25D
:1014A90069753300120EF9120F1E1209E01209E0D4
:1014B9001209D91209E0120B3D1209D9120C0002C6
:1014C90014D7C2AF1111D2AF75700075BB09120CD8
:1014D90055120D5A120D3B120713120D77120DC139
:1014E9001209E0120B2C120B3D120C00120C4412C3
:1014F9000D5A120D3B306D0312076F206703120856
:10150900BC306703120903120D77120DE61209E0C8
:10151900120B2C120B3D120C00120C55120D5A1203
:101529000D3B306D031207A4120D77120E5D1209DF
:10153900E0120B2C120B3D120C00120C44120D5A26
:10154900120D3B306D03120802120D77120E821232
:1015590009E0120B2C120B3D120C00120C55120D46
:101569005A120D3B306D03120860120D77120EF9F5
:101579001209E0120B2C120B3D120C0012091D125C
:101589000C44120D5A120D3B120D77120F1E12093F
:10159900211209E0120B2C120B3D120C0030693597
:1015A900206B32856461856462856069756A017939
:1015B900187A0CC3E53399400FC269D26A8A348517
:1015C90064618564630215DEC3E55C94014003022E
:1015D90014D7021658306A1B206B18E534147004AE
:1015E900C26A81CBF534C3E55C940140030214D788
:1015F900021658C3E55F78FA985054307404E52A06
:10160900604D7888E6B40317207D05207607C12848
:10161900307602C128206B07D26B856461A14378BB
:10162900F0306B058564617820C3E53E98500281EE
:10163900D7306B1BC26BC27D307602D27DD26A7500
:10164900341285646181D70535E55C6002C15B753B
:101659003500C2AF120F937887E6FE760211117832
:1016690087EEF6E4F522F523F524F525F526F5654B
:10167900C26875B68075A900757A00D2AF12060ADC
:10168900120F93307409C3E53594054002218F6127
:101699009D901A0D782012171EE520B4550CA3123F
:1016A900171EE520B4AA030216BC120FA81216DCF5
:1016B9000216DB901A0378807B0A12171EA308DB37
:1016C900F9901A0F788C7B1812171EA308DBF99072
:1016D9001A2722C2AF12175D121737901A00740E1B
:1016E900121723A37403121723A374141217239038
:1016F9001A0378807B0A121722A308DBF9901A0FC4
:10170900788C7B18121722A308DBF91217701217AD
:101719004E901A2722E493F622E6438F01538FFD58
:1017290075EF0275B7A575B7F1F0538FFE22438F98
:1017390002438F0175EF0275B7A575B7F1901A0DC0
:10174900F0538FFC22901A0D7455F123901A0E74E0
:10175900AAF123227A3079D07820901A40F11EE537
:1017690020F709A3DAF7227A3079D0901A40E7F105
:101779002309A3DAF922AB74A875BB01027980BBEE
:1017890002027981BB03027982BB04027984BB0519
:10179900027986BB06027992BB07027987BB0802E8
:1017A90079A3BB0902799CBB0A027988BB0B027930
:1017B90089E8F7227C05120623DCFB22C2AF120658
:1017C9003312063A1206411206481206141206335B
:1017D90012063A120641120648120614120633126C
:1017E900063A120641120648D2AF22C2AF12064883
:1017F90012064112063A120633120614120648124C
:10180900064112063A120633120614120648120647
:101819004112063A120633D2AF22AE74AF75C2AF87
:10182900120633120633120633120614DEF21206BA
:1018390048120614DFF8D2AF221217C51217BD12CB
:1018490017BD75740175750175760011237C05AD99
:101859005C120623C3ED955C70F5C3E55C94014009
:0E1869000AC3E55C94FF403702188512177F12
:101877001216DC1217C5C2AF75EF121217BDDCD1F5
:101887000576C3E5769403500280C21217BD05752D
:10189700E5741490009F93F808C3E575985002808B
:1018A700A91217BD1217BD0574C3E574940C500235
:1018B7008095120FA81216DCC2AF75EF121217BD72
:0319FD000210F7DE
:101A00000E0314090904FF03FF0901010155AA018E
:101A1000FFFFFFFFFF03FFFFFF25D0285004FF0259
:081A2000007AFF01010003FF41
:101A40002358526F746F723430412320202020209D
:101A500023424C48454C492346333930232020202B
:101A60002020202020202020202020202020202076
:101C0000C2AFC2D353D9BF7581C043B20343FF8073
:101C1000752438752503B1C975EF0275E24043F1AB
:101C20002053A4DF75D400D2857DFA780379E67C51
:101C300010752200752300901DD67B0675249875BB
:101C400025013085028142208508D8FBD9F9DCF7CF
:101C500081B4308508D8FBD9F9DCF781B4B189E4C7
:101C600093A3C39A6004DDC381B4DBDBB17B600264
:101C7000812B7B08E493FAA3B15CDBF87A30B15C8A
:101C8000752200752300B17BEAFCEBFDC3ED94FEE9
:101C9000400EB17B8A278B28ED30E0048A828B834B
:101CA000B17B7AC270D8C3ED94FE601350CEBD00F4
:101CB00025EC60097520007521FF0200008100A855
:101CC00027A9280809D804D90281D3B17FEA89AAB3
:101CD000F281C50D81A0C3ED94035049EDA2E092BD
:101CE000007AC5C3E5829400E583941C50902000DF
:101CF00010438F02438F0175B7A575B7F1F030001F
:101D00001FA827A9280809438F01538FFDD804D99C
:101D100002A12089AAE275B7A575B7F1F0A3A10DBC
:101D2000538FFC817C7AC1BD030CE493A3FAB140CC
:101D3000DCF8B138817C817EAA22AB23B15CEBFA5E
:101D4000EA6222752608C3E52313F523E52213F57D
:101D50002250066323A0632201D526EAB1C9B1C986
:101D600075260AEAF4200102D285300102C285B14B
:101D7000C9C3134002C201D526EB22B17FEAFB2082
:101D80008502A17F308502A184752608AE24AF2587
:101D9000C3EF13FFEE13FEB1CDB1C9C3EA13308513
:101DA000024480FA30E703632201C3E52313F523DD
:101DB000E52213F52250066323A0632201D526D91C
:101DC000E52265236523F52222AE24AF250E0FDE22
:101DD000FEDFFCD20122424C48656C693437316326
:041DE000F390060175
:00000001FF
