:030000000219FDE5
:03000B000200B33D
:03002B000201AB24
:03005B000203514C
:030073000203374E
:1000800002030406080C10182030406080040608A3
:100090000C10182030406080A0C000070F1F3F05E3
:1000A000050D050305030302C0F075F02BA4E5F070
:1000B000D0F022C2AF306308C26385798AD2AF32F2
:1000C000C0D0C0E0E52511A8F57CE52611A8F57D96
:1000D000206227E57C6002E473E57CF4C3334009C9
:1000E000758A00D263F57901EBF58A758B00758D01
:1000F00000D262D0E0D0D0D2AF32C3E57D33400928
:10010000758A00D263F579210BF58AC262E57DF428
:100110006038306803207213758B00758D00D0E055
:10012000D0D0C293C297C294D2AF32C293C297C208
:1001300094206E09740CD5E0FDE57B4290758B0030
:10014000758D00D0E0D0D0D2AF32758A00D2637501
:100150007900C28DD262213D01D930680520660246
:10016000D29301D9306805206602D29401D9306853
:1001700005206602D29701D9C29230680A2066072C
:10018000740CD5E0FDD29301D9C29530680A20667F
:1001900007740CD5E0FDD29401D9C29630680A20CC
:1001A0006607740CD5E0FDD29701D9C2AFC2AD533A
:1001B000E6EFC0D0C0E0D2D3D2AFE57A6009E577F0
:1001C000600575770041E6757701C2CEE52A6007C4
:1001D000207449152A411C7800790020742EE5808E
:1001E000307E01F430E50278FF53DACF207E0343FE
:1001F000DA20307E0343DA10C2D8C271E580307E47
:1002000001F430E50279FFC3E89970CB30610375E2
:100210002A18207403752A18885CD27020740DE5A2
:100220002B6004152B412C43DA01C2D82070024107
:100230008CA85C206102C270207431C3E894F04045
:100240000374F0F8E8C4540F28F87984B703024126
:100250006CC313C3138721200802C313200A06C3EB
:10026000C898F8416C28F8500374FFF8C3E8956506
:100270005003E565F88822E52D5406600FE533C389
:1002800013C3132522F52250037522FF852224A8CB
:1002900024C3E52495614002A8618825E5667002C3
:1002A00041D0C3E8AA669A5003E8FAE4F9EAC333F6
:1002B000FBE568F45B29400D2567F8E567600215EA
:1002C00067400B41D00AC3E5679A5002056778FF83
:1002D0008826C26EC3E52694F84002D26EC3E52597
:1002E00094404002D26420CF0AD0E0D0D043E61040
:1002F000D2AD32E57A6009E5786005757800612D48
:10030000757801C2CF7801E52A6005307402152A9C
:10031000C3E55C94014005755F00612D7560007553
:100320006900E55F2401F55F5003755FFFD0E0D001
:10033000D043E610D2AD32C2AFC0D053E67FC26028
:10034000759100855394855495759104D0D0D2AFA2
:1003500032C2AF53E6EFC2ADC0D0C0E0C0F0D2D3DE
:10036000D2AFA8FBA9FCE57A6007C3E913F9E8134B
:10037000F8C2D830710261C353DACF207E0343DA6A
:1003800010307E0343DA20D271E580307E01F42004
:10039000E502619A88278928A1EA53DACF207E03F3
:1003A00043DA20307E0343DA10C2D8C271307402BF
:1003B000A1D67800E580307E01F430E502A1D68830
:1003C0005CA1BE53DACF207E0343DA20307E0343A4
:1003D000DA10C271206102819C53DACF207E034380
:1003E000DA10307E0343DA20C2D8D2718857895898
:1003F000C3E89555F8E99556F97B007E087A00C365
:10040000E8948CE994005005755B00818E88217812
:10041000A2E6A8216055C3E894C8E994005008E416
:10042000D2E4FB7A0A8169C3E89468E99401500830
:10043000E4D2E3FB7A0F8169C3E894D0E9940250D7
:1004400008E4D2E2FB7A1E8169C3E894A0E994052E
:100450005008E4D2E1FB7A3C8169C3E89498E994BE
:10046000085008E4D2E0FB7A787E00C3E89559FC96
:0E047000E9955AFD30E70AECF42401FCEDF4A6
:10047E003400FD755B00C3EC9AED9E5003755B0175
:10048E008859895A8557558558567802A1BEC3E8B2
:10049E009527F8E99528F9307C02A1A2307B02A1BC
:1004AE00A2307A02A19B20750281BFE9FDE8FC8192
:1004BE00DEE9C313F9E813F8307902A19BE9C313FF
:1004CE00F9E813F8307802A19BE9C313FDE813FC99
:1004DE00206126C3EC941CED9402400281F5ED7070
:1004EE0018C3EC94C850120529C3E529940A50028A
:1004FE00A1D6755C00D270A1D6E5296002152978C7
:10050E0088E6F97400207F087896B90302789EE693
:10051E0024FAFEE43400FFC3EC9EFCED9FFD92082E
:10052E00B90310A2085007207609D276A141307681
:10053E0002C276A2085016B9030DECF42401FCEDAC
:10054E00F43400FD02055B78007900A1A2B9031511
:10055E00EC33FCED33FDC3EC940AFCED9400FD503E
:10056E00047C007D00C3EC94FFED9400400678FF00
:10057E007900A1A2EC8572F0A4C5F0A2F733F87948
:10058E000040030205BE78FF79000205BEE9C313E1
:10059E00F9E813F8307C0EE9600278FFC3E81338EF
:1005AE00F8E43400F9C3E894FFE99400400278FFC0
:1005BE00885CD270206102A1D6741FF4552F4BF5C2
:1005CE002FC274EB7002D274752A18307403752A18
:1005DE000A306102A1EA20740353DAFE2074037517
:1005EE002B06D0F0D0E0D0D0D2AD43E61032790158
:1005FE0002061A790302061A790A02061A791E02EF
:10060E00061A796402061A79C802061A7817E4D512
:10061E00E0FDD8FAD9F6227A147B780206417A10D8
:10062E007B8C0206417A0D7BB40206417A0B7BC8A5
:10063E000206417902B27DE4C295D5E0FDD294D591
:10064E00E0FDC294D5E0FDD295D5E0FDD293E573E1
:10065E00D5E0FDC2937496D5E0FDD9D9EAF8D5E080
:10066E00FDD8FBDBCEC29522C37C007D0075F00069
:10067E0005F0EA33FAEB33FB50F6EB13FBEA13FA11
:10068E00C3E9FFE8FEE89AF8E99BF95004EFF9EEAA
:10069E00F8B3EC33FCED33FDD5F0DFEDF9ECF822D9
:1006AE00E889F08A20D2D4F8A9F07B0030F70B7BD2
:1006BE00FFF42401F8E9F43400F9E88520F0A4AD44
:1006CE00F0F8E98520F0A4AFF0FEED2EF974003FAE
:1006DE00FA7C04C3EA13FAE913F9E813F8DCF48B95
:1006EE00F030F70AE8F42401F8E9F43400F9E88967
:1006FE00F0C2D4F8A9F02222C3E53E13F9E53D136A
:10070E00F8C3E54298F8E54399F9500CC3E8948094
:10071E00E994FF401602073DC3E8947FE994005028
:10072E000302073D787F790002073D788079FF88C4
:10073E0047894822E5472544F8E5483545F9854877
:10074E0020E4300701F43546FA30E709C3EA94F0A5
:10075E00401502077BC3EA940F500302077B78FF14
:10076E0079FF7A0F02077B780079007AF0C3E524CF
:10077E009561500AC374019524500B020799E54800
:10078E0020E70E020799E54830E706884489458A36
:10079E00462278A4E6FAC3E54733F8E54833F9D1A3
:1007AE00AEE930E70BC3E89480E994FF4013E1D340
:1007BE00C3E8947FE994005002E1D3787F7900E199
:1007CE00D3788079FFE820E715C3E52398F8400930
:1007DE00C3E8940140030207FA78010207FAE8F42D
:1007EE0024012523F840030207FA78FF884922786E
:1007FE00A5E6FAA845A9461206AEE930E70CC3E80D
:10080E009401E994FF401602082FC3E894FFE9947F
:10081E0000500302082F78FF790002082F78017923
:10082E00FFE920E715C3E54998F84009C3E89401AC
:10083E0040030208567801020856E8F424012549BF
:10084E00F8400302085678FF88242278FFC26420FD
:10085E00693D206A12D264C3E53E940A4009C3E59D
:0E086E002594405002C26479A1E76023E53E64
:10087C00601F74FF853EF0848538F0306A0375F094
:10088C0005A4F8C5F0600278FFC3E895645002A88F
:10089C0064886322C3E53D94C8E53E9400E563504B
:1008AC00031401B1046002F563220208B92275E851
:1008BC0090227883E6FFE5E820ECF7A8BDA9BE05F9
:1008CC0070C3E57094084052757000E9FA79A0E79E
:1008DC006044EA7007E571601B0208F4C3E8957187
:1008EC006010E5715006600C140209000460F902F6
:1008FC000900E571F571C39472401B7561C0C39416
:10090C00044013756180C39404400B756140C3941B
:10091C0004400375610075BB0922E561F4600205B2
:10092C0061E570B4070375BB1022743279A687F0A9
:10093C00A4C5F0A2F733F8C3E895614002A861881A
:10094C0022882488258826886422753D00753EF00F
:10095C002275C820A8CCA9CD75C824C3E913F9E821
:10096C0013F8AA39AB3A8839893AC3E89AF8E99B63
:10097C00547FF9306702415C306933AC3BAD3C8A43
:10098C003B8B3CC3EB9D547FFBC3E99BF53FA839E4
:10099C00A93AC3E89CF8E99D547FF9C3E53E13FBE3
:1009AC00E53D13FAE82AF53DE93BF53E4104AA3D45
:1009BC00AB3EAC3DAD3E7E047F02C3EB94044002E3
:1009CC001E1FC3EB940840021E1FC3ED13FDEC1356
:1009DC00FCDEF7C3EA9CFAEB9DFBEF6009C3E9135D
:1009EC00F9E813F8DFF7EA28FAEB39FB8A3D8B3E7E
:1009FC0050067BFF8B3D8B3EC3EB94025002D267BB
:100A0C003069047F03412F7892E6FFC3E536948268
:100A1C0040110FC3E53694A040010FC3EF9406407C
:100A2C00027F057E01E53EC4540FF9E53EC454F047
:100A3C00F8E53DC4540F28F8C3E89EFAE99400FB8E
:100A4C004009C3EA9402EB940050047A02E4FB22BE
:100A5C00AA3DAB3EEBC4FEEAC4540F4EFCC3EA9C69
:100A6C00FAEB9400FBC3E813C313F8EA28FAEB344F
:100A7C0000FB8A3D8B3EC3EB94024002C2677801B7
:100A8C00EBC4FE7B00EAC4540F4EFAC3EA98FA405A
:100A9C0005C3940250027A027892E6FF223060027B
:100AAC0041A9854F53855054D26043E68022C3E45C
:100ABC009AF8E49BF9C3E833F8E933F9306702613B
:100ACC0049E8FAE9FBD3E913FDE813FC884F895098
:100ADC00C3EF94036037EF20E00DE82CF8E93DF903
:100AEC00ECFAEDFB020B06E828F8E939F9C3E82427
:100AFC0002F8E93400F97AFE7BFFC3EF9403400D52
:100B0C008A518B52884B894C8C4D8D4E2288518941
:100B1C00528A4B8B4C8C4D8D4E306920C3E53394EF
:100B2C00034019E53FA2E713F8E552F424013840DD
:100B3C000B20E7087551FFF42401F55222E8FAD393
:100B4C00E813FC884FC3EF9403601FEF20E007E825
:100B5C002CF8ECFA6169E8282402F87AFEC3EF94C9
:100B6C000340078A51884B8C4D2288518A4B8C4DFF
:100B7C0022E568C3335002646BF56830600261870C
:100B8C00D26043E680E52D54066029A83DA93EC3FA
:100B9C00E913F9E813F8C3E833F8E933F953E67FBE
:100BAC00759100C3E498F594E499F595759104D288
:100BBC006043E68022D265754100752000306B03DE
:100BCC00752040020BE0D265754100752040306BFA
:100BDC0003752000D2AF7801206722E52D54066002
:100BEC0002C265C3E53E94054013780294054008A3
:100BFC007803940540027806306902780A2060096F
:100C0C00E5416005D2AFD26C22D2AF0000C2AF205A
:100C1C00672AE53EC3FB940F40027B0FEB240530A3
:100C2C00730123306A02742820620123F9306902AF
:100C3C007982E58D13E58B13C39940C10541E59B82
:100C4C00F45440B5200281A130691408C3E8940A19
:100C5C00400261E0C3E5339406500261E081092053
:0F0C6C00650261E0C26553E67F75910030671045
:100C7B007594007595FC759104D26043E68061E034
:100C8B00AE3DAF3EC3EE33FEEF33FFC3E49EF594B0
:100C9B00E49FF5958181C3E5339402500261E03006
:100CAB00650261E0D80281B58109C26C22E52D5441
:100CBB00066008206A020533020CD6306C0D206BDF
:100CCB000A206507158115810215DA2253E67F7517
:100CDB009100855194855295759104854B53854CA4
:100CEB0054D26043E680D2AF227800306405306581
:100CFB00027801E53675F007A4F9E5F028F5F0E97F
:100D0B00A2F013A2F113A2F213F536C39478500399
:100D1B00753678C3E53695374008D266C293C297CD
:100D2B00C294306002A12D854D53854E54D2604341
:100D3B00E68022207D11C2AF754002C295D292D2BD
:100D4B00AF759F80020F0DC2AF754002C295D29650
:100D5B00D2AF759F80020F0D307243207D20C2AF42
:100D6B00754003900189757B20C297C2963062044F
:100D7B00D294A181D295D2AF759F89020F0DC2AFCC
:100D8B00754003900189757B20C293C29230620437
:100D9B00D294A1A1D295D2AF759F81020F0D207D68
:100DAB0017C2AF754003900164C297306202D294B0
:100DBB00D2AF759F89020F0DC2AF754003900164CE
:100DCB00C293306202D294D2AF759F81020F0D2075
:100DDB007D11C2AF754004C292D296D2AF759F817E
:100DEB00020F0DC2AF754004C296D292D2AF759F5F
:100DFB0089020F0D307243207D20C2AF75400590E4
:100E0B000178757B04C294C295306204D293C11DE4
:100E1B00D292D2AF759F80020F0DC2AF7540059075
:100E2B00019A757B40C294C295306204D297C13D42
:100E3B00D296D2AF759F80020F0D207D17C2AF7572
:100E4B00400590015AC294306202D293D2AF759F83
:100E5B0080020F0DC2AF75400590016EC2943062D7
:100E6B00EBD297D2AF759F80020F0D207D11C2AFD1
:100E7B00754006C296D295D2AF759F89020F0DC2EF
:100E8B00AF754006C292D295D2AF759F81020F0DFE
:100E9B00307242207D20C2AF75400190019A757B64
:100EAB0040C293C292306204D297C1B9D296D2AFEC
:100EBB00759F81020F0DC2AF754001900178757B54
:100ECB0004C297C296306204D293C1D9D292D2AFE8
:100EDB00759F89E10D207D16C2AF75400190016EA3
:100EEB00C293306202D297D2AF759F81E10DC2AF30
:100EFB0075400190015AC297306202D293D2AF75FE
:100F0B009F89C26622900158757B00C293C297C21B
:100F1B0094C292C296C295C26222788076FF0876FE
:100F2B00FF0876FF0876FF08760308760408760933
:100F3B00087603087601087601788C76010876FF2F
:100F4B000876FF0876FF0876FF0876FF0876030819
:100F5B0076FF0876FF0876FF0876250876D00876A8
:100F6B00FA0876FA0876040876FF08760108760008
:100F7B0008767A0876FF087601087601087600086D
:100F8B007603227887E6FFC272BF0302D27278889B
:100F9B00E6C394036008C27DE630E102D27DC27ED7
:100FAB007889E630E102D27EC3EF94026008758E39
:100FBB0001D273020FC6758E00C273227880E614BD
:100FCB009000809378A4F67881E614900080937853
:100FDB00A5F67886E61490008D9378A6F6789CE6B5
:100FEB007537FF75380CB402067537A075380AB41F
:100FFB00030675378275380578A3E61490009A932B
:10100B00F566120F1022227896E6FA7897E6FB78AF
:10101B0088E6B40305C3EB940EFB307F047A007BA8
:10102B00FFC3EB9AFCC3948250027C82757200055D
:10103B0072EC8572F0A4C3E5F0947D40F222D27F6E
:10104B00111212060B7A007B007C10120601E55C74
:10105B002AFA74003BFBDCF37C04C3EB13FBEA13AF
:0E106B00FADCF7FEC27F111222E5EF20E60349
:101079007520000520903FFFE520146006901FFFB2
:101089001460009304600375EF1253D9BF7581C0D2
:1010990043FF801205FC75EF0243B203E5B3240454
:1010A90020E70DF521E5E320E0068521B343E301BF
:1010B900120F107580FF75A40075F1F075D4DF75F6
:1010C900900275A5FC75F2FD75D50275A61075A07F
:1010D900FF75F3F175E241E4F8F6D8FD7568011280
:1010E9000F2512162578988673753001C2AF12063E
:1010F9001512062512060B12062C12060B120633C0
:1011090012060B12173E120615120615120610C208
:10111900AF78FA79FA308507D9FBD8F7021C0012A3
:101129000F8E120FC71111111278988673120F10B2
:1011390075B68075A900757A00758850758912751C
:10114900C82475910475D84075A82275B80275E64A
:1011590090759B80759D0075D10E75BC5875BB093E
:1011690075BA1175E8801205FCD2AF1208B653DAC8
:10117900CF207E0343DA20307E0343DA1043DA01BD
:10118900C2D8C271120615D2617B037A0CE55B7075
:10119900077A0CDB0302111812060B2070030211E7
:1011A90018C270E55CC3940240E1E52F541F855EC7
:1011B9005DF55EB55DD5DAD5C26153DACF207E0320
:1011C90043DA20307E0343DA10C2D8C27178A2E62E
:1011D9007008D274E52F54E0F52FC27575290012F5
:1011E9000610307409C3E529940A4002D275120623
:1011F9000178023074027800C3E55C9840F0C2AF10
:10120900120625120625120625D2AF120615754AB1
:10121900007888E6B4030241F6120601788CE6C329
:10122900940150030212F6E530C3940150030212EF
:10123900F6207435C3E55C94FF50030212F6C2AF81
:1012490012063AD2AF120610C3E55C940150EFC200
:10125900AF120625120606120625D2AF120610C3D2
:10126900E55C94FF40E90217C37F05D27F11121292
:101279000610C2AFC27F1112AE5CC3E55C947FD287
:10128900AF40741205FCC2AF12063AD2AFDFDC11CF
:1012990049C3EE94057897F61206151216671217C8
:1012A900467F0AD27F1112120610C2AFC27F1112F5
:1012B900AE5CC3E55C947FD2AF50E61205FCC2AFC9
:1012C900120625120606120625D2AFDFD61149EEFF
:1012D90024057896F6120615121667121775120666
:1012E900101112C3E55C94FF40F40217C3C3E55C17
:1012F900954A4003855C4A12061078017988E7B45B
:1013090003027805C3E55C984002411AC2AF120690
:101319003A12063A12063AD2AF120615753000E4AF
:10132900F531F5320531E531F470390532789AE64F
:101339007819146012783214600D787D1460087879
:10134900FA146003753200C3E532984017153275F7
:1013590031B478998673C2AF12063AD2AF789886BB
:1013690073120610120606E52A7005307402211858
:1013790078012074027806C3E55C9840A77888E66E
:10138900C394036003120610E52A7003021118C200
:10139900AF120F10E4F522F523F524F525F526F50E
:1013A90067D2AF7885E6C333F565E4F542F543F5D1
:1013B90044F545F546F570F52CF52DF536757008AB
:1013C90075BB101205FC1208BAE5E820ECFBA8BDB4
:1013D900A9BEE97001F888711208BE75700875BB5D
:1013E900107887E6FE7602120F8E7887EEF6C2AF86
:1013F9007561FF120936852261852262852263D2D1
:10140900AF7522017524017525017526018560696D
:10141900756A0175B69075A903757A017888E6B47D
:101429000307C27D307602D27DD268D26975330056
:10143900120E76120E9B12095D12095D12095612DF
:10144900095D120ABA120956120B7D021464C2AF61
:10145900120F8ED2AF75700075BB09120BD2120C28
:0D146900D7120CB8120705120CF4120D3E3C
:1014760012095D120AA9120ABA120B7D120BC112C9
:101486000CD7120CB8306D0312070620670312083A
:10149600593067031208A0120CF4120D6312095D8D
:1014A600120AA9120ABA120B7D120BD2120CD7120B
:1014B6000CB8306D03120742120CF4120DDA120941
:1014C6005D120AA9120ABA120B7D120BC1120CD7B1
:1014D600120CB8306D031207A0120CF4120DFF1295
:1014E600095D120AA9120ABA120B7D120BD2120C4E
:1014F600D7120CB8306D031207FD120CF4120E76DB
:1015060012095D120AA9120ABA120B7D1208BA1242
:101516000BC1120CD7120CB8120CF4120E9B120847
:10152600BE12095D120AA9120ABA120B7D3069327F
:10153600206B2F856461856462856069756A0179AF
:10154600187A0CC3E53399400CC269D26A8A34759D
:1015560061FF021568C3E55C94014003021464024E
:1015660015E2306A1B206B18E534147004C26A81D8
:1015760057F534C3E55C940140030214640215E296
:10158600C3E55F7882985054307404E52A604D783C
:1015960088E6B40317207D05207607A1B2307602CF
:1015A600A1B2206B07D26B85646181D078F0306B75
:1015B600058564617820C3E53E9850028164306BEE
:1015C6001BC26BC27D307602D27DD26A753412851B
:1015D600646181640535E55C6002A1E5753500C28C
:1015E600AF120F107887E6FE7602120F8E7887EE1E
:1015F600F6E4F522F523F524F525F526F565C2680A
:1016060075B68075A900757A00D2AF1205FC120F67
:1016160010307409C3E535940540022118612890FD
:101626001A0D78201216A9E520B45A0CA31216A991
:10163600E520B4A503021647120F251216670216F7
:1016460066901A0378807B0A1216A9A308DBF99024
:101656001A0F788C7B181216A9A308DBF9901A27A3
:1016660022C2AF1216E81216C2901A00740E121693
:10167600AEA374031216AEA374141216AE901A0318
:1016860078807B0A1216ADA308DBF9901A0F788CC6
:101696007B181216ADA308DBF91216FB1216D990A9
:1016A6001A2722E493F622E6438F01538FFD75EF46
:1016B6000275B7A575B7F1F0538FFE22438F02432B
:1016C6008F0175EF0275B7A575B7F1901A0DF05336
:1016D6008FFC22901A0D745AD1AE901A0E74A5D1B1
:1016E600AE227A3079D07820901A40D1A9E520F739
:1016F60009A3DAF7227A3079D0901A40E7D1AE09F9
:10170600A3DAF922AB74A875BB01027984BB020285
:101716007985BB03027986BB04027992BB050279FF
:1017260087BB060279A3BB0702799CBB08027988AE
:10173600BB09027989E8F7227C05120615DCFB2233
:10174600C2AF12062512062C12063312063A1206EC
:101756000612062512062C12063312063A12060641
:1017660012062512062C12063312063AD2AF22C2F0
:10177600AF12063A12063312062C12062512060678
:1017860012063A12063312062C1206251206061205
:10179600063A12063312062C120625D2AF22AE7472
:1017A600AF75C2AF120625120625120625120606C9
:1017B600DEF212063A120606DFF8D2AF22F146F141
:1017C6003EF13E757401757501757600F1A47C05D0
:1017D600AD5C120615C3ED955C70F5C3E55C94012E
:1017E600400AC3E55C94FF40330217FFF10AD16754
:1017F600F146C2AF75EF12F13EDCD50576C3E5764C
:101806009403500280C612173E0575E574149000C5
:101816009F93F808C3E57598500280AD12173E12E3
:10182600173E0574C3E574940A50028099120F2579
:0B183600121667C2AF75EF1212173ECA
:0319FD0002107461
:101A00000E0314FFFFFFFF0304090301015AA501A0
:101A1000FFFFFFFFFF03FFFFFF25D0FAFA04FF01DE
:081A2000007AFF01010003FF41
:101A40002358526F746F723430412320202020209D
:101A500023424C48454C492346333930232020202B
:101A60002020202020202020202020202020202076
:101C0000C2AFC2D353D9BF7581C043B20343FF8073
:101C1000752438752503B1C975EF0275E24043F1AB
:101C20002053A4DF75D400D2857DFA780379E67C51
:101C300010752200752300901DD67B0675249875BB
:101C400025013085028142208508D8FBD9F9DCF7CF
:101C500081B4308508D8FBD9F9DCF781B4B189E4C7
:101C600093A3C39A6004DDC381B4DBDBB17B600264
:101C7000812B7B08E493FAA3B15CDBF87A30B15C8A
:101C8000752200752300B17BEAFCEBFDC3ED94FEE9
:101C9000400EB17B8A278B28ED30E0048A828B834B
:101CA000B17B7AC270D8C3ED94FE601350CEBD00F4
:101CB00025EC60097520007521FF0200008100A855
:101CC00027A9280809D804D90281D3B17FEA89AAB3
:101CD000F281C50D81A0C3ED94035049EDA2E092BD
:101CE000007AC5C3E5829400E583941C50902000DF
:101CF00010438F02438F0175B7A575B7F1F030001F
:101D00001FA827A9280809438F01538FFDD804D99C
:101D100002A12089AAE275B7A575B7F1F0A3A10DBC
:101D2000538FFC817C7AC1BD030CE493A3FAB140CC
:101D3000DCF8B138817C817EAA22AB23B15CEBFA5E
:101D4000EA6222752608C3E52313F523E52213F57D
:101D50002250066323A0632201D526EAB1C9B1C986
:101D600075260AEAF4200102D285300102C285B14B
:101D7000C9C3134002C201D526EB22B17FEAFB2082
:101D80008502A17F308502A184752608AE24AF2587
:101D9000C3EF13FFEE13FEB1CDB1C9C3EA13308513
:101DA000024480FA30E703632201C3E52313F523DD
:101DB000E52213F52250066323A0632201D526D91C
:101DC000E52265236523F52222AE24AF250E0FDE22
:101DD000FEDFFCD20122424C48656C693437316326
:041DE000F390060175
:00000001FF
