:030000000219FDE5
:03000B000200AA46
:03002B000201B01F
:03005B0002036439
:0300730002034A3B
:1000800002030406080C10182030406080040608A3
:100090000C10182030406080A0C000070F1F3F0DDB
:1000A0000D0403060D0503030202C2AF306308C24C
:1000B0006385798AD2AF32C0D0C0E0C0F075F02B32
:1000C000E525A485F07C75F02BE526A485F07D2040
:1000D0006229E57C6002E473E57CF4C33340097572
:1000E0008A00D263F57901EAF58A758B00758D0077
:1000F000D262D0F0D0E0D0D0D2AF32C3E57D334071
:1001000009758A00D263F579210CF58AC262E57D12
:10011000F4603C306803207215758B00758D00D03B
:10012000F0D0E0D0D0C293C297C294D2AF32C29383
:10013000C297C294206E09740CD5E0FDE57B429015
:10014000758B00758D00D0F0D0E0D0D0D2AF327575
:100150008A00D263757900C28DD262214001D83005
:100160006805206602D29301D8306805206602D265
:100170009401D8306805206602D29701D8C2923027
:10018000680A206607740CD5E0FDD29301D8C295A9
:1001900030680A206607740CD5E0FDD29401D8C2FD
:1001A0009630680A206607740CD5E0FDD29701D816
:1001B000C2AFC2AD53E6EFC0D0C0E0D2D3D2AFE5FC
:1001C0007A6009E57760057577004155757701C25A
:1001D000CEE52A6007207449152A4121780079006C
:1001E00020742EE580307E01F430E50278FF53DA8A
:1001F000CF207E0343DA20307E0343DA10C2D8C218
:1002000071E580307E01F430E50279FFC3E8997032
:10021000CB306103752A40207403752A40885CD274
:100220007020740DE52B6004152B413143DA01C2B7
:10023000D82070024144A85C206102C27020740280
:10024000414288227882B60403852224C3E525949E
:10025000404002D26420CF0AD0E0D0D043E610D292
:10026000AD32E57A6009E578600575780061407522
:100270007801C2CF7802E52A6005307402152AC3DE
:10028000E55C94014005755F00419C7560007569EF
:1002900000E55F2401F55F5003755FFF7982B702C7
:1002A0000D306D1DC3E52294324016854A227982B5
:1002B000B7030E306D0BC3E52294324004798E876C
:1002C00022C3E523952260084004152341D005236D
:1002D000D8CA0569E56970021569D56A63756A014E
:1002E0007805C3E569956B4057C3E569956C50087F
:1002F0007801756A03020304C3E569956D500578BA
:1003000001756A01C3E5629524401E7982B7040233
:100310006135206D14852462E569046003856B698D
:10032000756A0175233C020340E562285005756239
:10033000FF6135F562E5620470067560FF7569FF5F
:10034000D0E0D0D043E610D2AD32C2AFC0D053E639
:100350007FC260759100855394855495759104D042
:10036000D0D2AF32C2AF53E6EFC2ADC0D0C0E0C012
:10037000F0D2D3D2AFA8FBA9FCE57A6007C3E9139A
:10038000F9E813F8C2D830710261D653DACF207E73
:100390000343DA10307E0343DA20D271E580307EE9
:1003A00001F420E50261AD88278928A1B553DACF91
:1003B000207E0343DA20307E0343DA10C2D8C271B4
:1003C000307402A1A17800E580307E01F430E502AE
:1003D000A1A1885CA18953DACF207E0343DA2030C3
:1003E0007E0343DA10C27120610281AF53DACF205D
:1003F0007E0343DA10307E0343DA20C2D8D27188FC
:10040000578958C3E89555F8E99556F97B007E0859
:100410007A00C3E8948CE994005005755B0081A1D3
:10042000882178A2E6A8216055C3E894C8E9940021
:100430005008E4D2E4FB7A0A817CC3E89468E9942A
:10044000015008E4D2E3FB7A0F817CC3E894D0E941
:1004500094025008E4D2E2FB7A1E817CC3E894A0A7
:10046000E994055008E4D2E1FB7A3C817CC3E8942E
:0F04700098E994085008E4D2E0FB7A787E00C344
:10047F00E89559FCE9955AFD30E70AECF42401FCA4
:10048F00EDF43400FD755B00C3EC9AED9E500375DF
:10049F005B018859895A8557558558567802A18925
:1004AF00C3E89527F8E99528F9307C02A16D307BD8
:1004BF0002A16D307A02A16620750281D2E9FDE8B2
:1004CF00FC81F1E9C313F9E813F8307902A166E969
:1004DF00C313F9E813F8307802A166E9C313FDE8F6
:1004EF0013FC206126C3EC941CED94024002A1087A
:1004FF00ED7018C3EC94C850120529C3E529940A6E
:10050F005002A1A1755C00D270A1A1E5296002156E
:10051F00297400207F037896E624FAFEE43400FF66
:10052F00C3EC9EFCED9FFD500678007900A16DC3D2
:10053F00EC94FFED9400400678FF7900A16DEC85F7
:10054F0072F0A4C5F0A2F733F879004003020589D1
:10055F0078FF7900020589E9C313F9E813F8307CB5
:10056F000EE9600278FFC3E81338F8E43400F9C3EA
:10057F00E894FFE99400400278FF885CD270206114
:10058F0002A1A1741FF4552F4BF52FC274EB70020B
:10059F00D274752A40307403752A0A306102A1B5EE
:1005AF0020740353DAFE207403752B20D0F0D0E0B3
:1005BF00D0D0D2AD43E6103279010205E5790302BE
:1005CF0005E5790A0205E5791E0205E5796402055C
:1005DF00E579C80205E57817E4D5E0FDD8FAD9F634
:1005EF00227A147B7802060C7A107B8C02060C7A26
:1005FF000D7BB402060C7A0B7BC802060C7902B293
:10060F007DE4C295D5E0FDD294D5E0FDC294D5E04E
:10061F00FDD295D5E0FDD293E573D5E0FDC293747D
:10062F0096D5E0FDD9D9EAF8D5E0FDD8FBDBCEC2EF
:10063F009522C37C007D0075F00005F0EA33FAEBDC
:10064F0033FB50F6EB13FBEA13FAC3E9FFE8FEE8BE
:10065F009AF8E99BF95004EFF9EEF8B3EC33FCED9F
:10066F0033FDD5F0DFEDF9ECF822E889F08A20D2DE
:10067F00D4F8A9F07B0030F70B7BFFF42401F8E9E5
:10068F00F43400F9E88520F0A4ADF0F8E98520F006
:10069F00A4AFF0FEED2EF974003FFA7C04C3EA1309
:1006AF00FAE913F9E813F8DCF48BF030F70AE8F401
:1006BF002401F8E9F43400F9E889F0C2D4F8A9F07C
:1006CF00227882B6040302076FC3E55C9419401EBB
:1006DF00E52D54067018206D3678057994E714606F
:1006EF0007780A1460027812C3E53E98401F306DF8
:1006FF00098564627569FF756A01852224E4F542F4
:10070F00F543F544F545F546C26D02076FD26D7995
:10071F0094E7147013E523F43333F913F8E9540114
:10072F0004F9E854FE020763E714147014E523F488
:10073F00333333F913F8E9540304F9E854FC02078F
:10074F006BE523F433333333F913F8E95407040417
:10075F00F9E854F8C39440F8E99400F988428943C2
:10076F0022C3E53E13F9E53D13F8C3E54298F8E5DA
:10077F004399F9500CC3E89480E994FF401602079F
:10078F00A7C3E8947FE9940050030207A7787F7905
:10079F00000207A7788079FF8847894822E5472517
:1007AF0044F8E5483545F9854820E4300701F4352C
:1007BF0046FA30E709C3EA94F040150207E5C3EAA9
:1007CF00940F50030207E578FF79FF7A0F0207E5D0
:1007DF00780079007AF0C3E5249561500AC374015B
:1007EF009524500B020803E54820E70E020803E5A5
:1007FF004830E706884489458A462278A4E6FAC33A
:10080F00E54733F8E54833F9120679E930E70BC3CA
:10081F00E89480E994FF4013013EC3E8947FE99484
:10082F00005002013E787F7900013E788079FFE821
:10083F0020E715C3E52398F84009C3E89401400366
:10084F000208657801020865E8F424012523F840C1
:10085F000302086578FF88492278A5E6FAA845A91A
:0F086F0046120679E930E70CC3E89401E994FFDB
:10087E00401602089AC3E894FFE994005003020858
:10088E009A78FF790002089A780179FFE920E71536
:10089E00C3E54998F84009C3E8940140030208C132
:1008AE0078010208C1E8F424012549F84003020842
:1008BE00C178FF88242278FFC26420693D206A1225
:1008CE00D264C3E53E940A4009C3E5259440500224
:1008DE00C26479A1E76023E53E601F74FF853EF098
:1008EE00848538F0306A0375F005A4F8C5F060020F
:1008FE0078FFC3E895645002A864886322C3E53D7F
:10090E0094C8E53E9400E563500314211C04600274
:10091E00F563227883E6F520120FB375E890120581
:10092E00C775E890E5E820ECFBA8BDA9BE12104DF6
:10093E00756E00756F00C3740013FD74006066134E
:10094E00FC74002CFC74003DFDECFAEDFBC3E89A40
:10095E00E99B4014E56E2400F56EE56F3400F56FEB
:10096E00EA2CFAEB3DFB80E5AE6EAF6FC3E56F137D
:10097E00F9E56E13F8C3E913F9E813F87A03C3E93E
:10098E0013F9E813F8DAF7AA201A7009756E0075D4
:10099E006F000209B31AEA6008EE28FEEF39FFDA9B
:1009AE00F88E6E8F6F2275E890227883E6FFE5E869
:1009BE0020ECF7A8BDA9BE0570C3E570940840529F
:1009CE00757000E9FA79A0E76044EA7007E5716096
:1009DE001B0209EEC3E895716010E5715006600CBC
:1009EE00140209FA0460F90209FAE571F571C3946B
:1009FE0072401B7561C0C394044013756180C3942B
:100A0E0004400B756140C39404400375610075BBCF
:100A1E000922EFC39401601F7400601BC3E894FFAA
:100A2E00E994035012C3E8956EE9956F5009E5619C
:100A3E00600C1561020A4CE561F460020561A86163
:100A4E00C3E524985002A824C3E89562400AA86220
:100A5E00E562F4600385626188258826E570B40737
:100A6E000375BB1022743279A687F0A4C5F0A2F7E5
:100A7E0033F8C3E895614002A8618822882488254E
:100A8E008826886422753D00753EF02275C820A820
:100A9E00CCA9CD75C824C3E913F9E813F8AA39AB6C
:100AAE003A8839893AC3E89AF8E99B547FF9306756
:100ABE00026199306933AC3BAD3C8A3B8B3CC3EB56
:100ACE009D547FFBC3E99BF53FA839A93AC3E89C27
:100ADE00F8E99D547FF9C3E53E13FBE53D13FAE8B3
:100AEE002AF53DE93BF53E6141AA3DAB3EAC3DAD3D
:100AFE003E7E047F02C3EB940440021E1FC3EB94A0
:100B0E000840021E1FC3ED13FDEC13FCDEF7C3EA13
:100B1E009CFAEB9DFBEF6009C3E913F9E813F8DFCC
:100B2E00F7EA28FAEB39FB8A3D8B3E50067BFF8BAA
:100B3E003D8B3EC3EB94025002D2673069047F03B3
:100B4E00616C7892E6FFC3E536948240110FC3E5DF
:100B5E003694A040010FC3EF940640027F057E013C
:100B6E00E53EC4540FF9E53EC454F0F8E53DC454D7
:100B7E000F28F8C3E89EFAE99400FB4009C3EA94F3
:100B8E0002EB940050047A02E4FB22AA3DAB3EEB4A
:100B9E00C4FEEAC4540F4EFCC3EA9CFAEB9400FB6D
:100BAE00C3E813C313F8EA28FAEB3400FB8A3D8B33
:100BBE003EC3EB94024002C2677801EBC4FE7B0099
:100BCE00EAC4540F4EFAC3EA98FA4005C394025091
:100BDE00027A027892E6FF2230600261E6854F5378
:100BEE00855054D26043E68022C3E49AF8E49BF920
:100BFE00C3E833F8E933F93067028186E8FAE9FB96
:100C0E00D3E913FDE813FC884F8950C3EF940360BA
:100C1E0037EF20E00DE82CF8E93DF9ECFAEDFB0298
:100C2E000C43E828F8E939F9C3E82402F8E934005E
:100C3E00F97AFE7BFFC3EF9403400D8A518B5288E5
:100C4E004B894C8C4D8D4E22885189528A4B8B4C40
:100C5E008C4D8D4E306920C3E53394034019E53F2A
:0F0C6E00A2E713F8E552F4240138400B20E70801
:100C7D007551FFF42401F55222E8FAD3E813FC88EC
:100C8D004FC3EF9403601FEF20E007E82CF8ECFA58
:100C9D0081A6E8282402F87AFEC3EF940340078A60
:100CAD0051884B8C4D2288518A4B8C4D22E568C35F
:100CBD00335002646BF56830600281C4D26043E644
:100CCD0080E52D54066029A83DA93EC3E913F9E836
:100CDD0013F8C3E833F8E933F953E67F759100C390
:100CED00E498F594E499F595759104D26043E68006
:100CFD0022D265754100752000306B0375204002CE
:100D0D000D1DD265754100752040306B03752000B7
:100D1D00D2AF7801206722E52D54066002C265C36B
:100D2D00E53E940540137802940540087803940538
:100D3D0040027806306902780A206009E5416005B5
:100D4D00D2AFD26C22D2AF0000C2AF20672AE53EEF
:100D5D00C3FB940F40027B0FEB240530730123304E
:100D6D006A02742820620123F93069027982E58DC7
:100D7D0013E58B13C39940C10541E59BF45440B570
:100D8D002002A1DE30691408C3E8940A4002A11DB7
:100D9D00C3E53394065002A11DA146206502A11D95
:100DAD00C26553E67F759100306710759400759597
:100DBD00FC759104D26043E680A11DAE3DAF3EC3EC
:100DCD00EE33FEEF33FFC3E49EF594E49FF595A15A
:100DDD00BEC3E53394025002A11D306502A11DD89A
:100DED0002A1F2A146C26C22E52D54066008206ACC
:100DFD00020533020E13306C0D206B0A20650715AA
:100E0D008115810216F32253E67F75910085519469
:100E1D00855295759104854B53854C54D26043E6AC
:100E2D0080D2AF2278003064053065027801E53656
:100E3D0075F007A4F9E5F028F5F0E9A2F013A2F199
:100E4D0013A2F213F536C394785003753678C3E5C3
:100E5D003695374008D266C293C297C2943060026D
:100E6D00C16A854D53854E54D26043E68022207D64
:100E7D0011C2AF754002C295D292D2AF759F80025A
:100E8D00104AC2AF754002C295D296D2AF759F80FF
:100E9D0002104A307243207D20C2AF75400390018D
:100EAD008E757B20C297C296306204D294C1BED299
:100EBD0095D2AF759F8902104AC2AF75400390015C
:100ECD008E757B20C293C292306204D294C1DED261
:100EDD0095D2AF759F8102104A207D17C2AF754024
:100EED0003900169C297306202D294D2AF759F8987
:100EFD0002104AC2AF754003900169C2933062027D
:100F0D00D294D2AF759F8102104A207D11C2AF7568
:100F1D004004C292D296D2AF759F8102104AC2AFE1
:100F2D00754004C296D292D2AF759F8902104A3095
:100F3D007243207D20C2AF75400590017D757B0405
:100F4D00C294C295306204D293E15AD292D2AF7557
:100F5D009F8002104AC2AF75400590019F757B407E
:100F6D00C294C295306204D297E17AD296D2AF750F
:100F7D009F8002104A207D17C2AF75400590015F1A
:100F8D00C294306202D293D2AF759F8002104AC2D2
:100F9D00AF754005900173C2943062EBD297D2AF1A
:100FAD00759F8002104A207D11C2AF754006C29612
:100FBD00D295D2AF759F8902104AC2AF754006C255
:100FCD0092D295D2AF759F8102104A307242207D28
:100FDD0020C2AF75400190019F757B40C293C292B4
:100FED00306204D297E1F6D296D2AF759F8102108E
:100FFD004AC2AF75400190017D757B04C297C296C0
:10100D00306204D2930116D292D2AF759F89014AF4
:10101D00207D16C2AF754001900173C293306202FC
:10102D00D297D2AF759F81014AC2AF754001900131
:10103D005FC297306202D293D2AF759F89C266228A
:10104D0090015D757B00C293C297C294C292C29605
:10105D00C295C26222788076070876070876010865
:0F106D0076040876FF0876FF08760908760208F1
:10107C007601087601788C76010876000876B4083B
:10108C0076FF0876FF0876FF0876030876FF087669
:10109C00010876FF0876250876D00876780876C899
:1010AC000876040876FF08760108760008767A0838
:1010BC00760A0876010876010876000876FF227811
:1010CC0087E6FFC272BF0302D2727888C27DE63017
:1010DC00E102D27DC27E7889E630E102D27EC3EF96
:1010EC0094026008758E01D2730210FD758E00C2D9
:1010FC0073227880E6149000809378A4F67881E6C9
:10110C00149000809378A5F67886E61490008D9361
:10111C0078A6F6789FE6F8700108C3E894114002AF
:10112C007811E82828F56B256B256B28F56C256B59
:10113C002828F56D789CE67537FF75380CB40206D7
:10114C007537A075380AB40306753782753805787B
:10115C00A3E61490009A93F566114D22227896E638
:10116C00FA7897E6FB7888E6B40305C3EB940EFB9C
:10117C00307F047A007BFFC3EB9AFCC3948250024D
:10118C007C827572000572EC8572F0A4C3E5F09454
:10119C007D40F222D27F31691205D67A007B007C29
:1011AC00101205CCE55C2AFA74003BFBDCF37C04E2
:1011BC00C3EB13FBEA13FADCF7FEC27F316922E5BD
:1011CC00EF20E6037520000520903FFFE52014601A
:1011DC0006901FFF1460009304600375EF1253D93F
:1011EC00BF7581C043FF801205C775EF0243B20380
:1011FC00E5B3240420E70DF521E5E320E006852185
:10120C00B343E301114D7580FF75A40075F1F075C2
:10121C00D4DF75900275A5FC75F2FD75D50275A627
:10122C001075A0FF75F3F175E241E4F8F6D8FD7581
:10123C006801116212174278988673753001C2AF3B
:10124C001205E01205F01205D61205F71205D6129A
:10125C0005FE1205D61218671205E01205E01205FC
:10126C00DBC2AF78FA79FA308507D9FBD8F7021CC4
:10127C000011CB11FE3168316978988673114D7568
:10128C00B68075A900757A0075885075891275C875
:10129C002475910475D84075A82275B80275E6902E
:1012AC00759B80759D0075D10E75BC5875BB097505
:1012BC00BA1175E8801205C7D2AF12092153DACFE3
:1012CC00207E0343DA20307E0343DA1043DA01C276
:1012DC00D8C2711205E0D2617B037A0CE55B700712
:1012EC007A0CDB0302126D1205D620700302126D0C
:1012FC00C270E55CC3940240E1E52F541F855E5D2E
:10130C00F55EB55DD5DAD5C26153DACF207E0343E5
:10131C00DA20307E0343DA10C2D8C27178A2E670AC
:10132C0008D274E52F54E0F52FC27575290012050B
:10133C00DB307409C3E529940A4002D2751205CC3E
:10134C0078023074027800C3E55C9840F0C2AF12AA
:10135C0005F01205F01205F0D2AF1205E0754A0047
:10136C001205CC788CE6C394015003021440E5308E
:10137C00C394015003021440207435C3E55C94FF00
:10138C005003021440C2AF120605D2AF1205DBC3E4
:10139C00E55C940150EFC2AF1205F01205D11205B5
:1013AC00F0D2AF1205DBC3E55C94FF40E90218EC08
:1013BC007F05D27F31691205DBC2AFC27F3169AEC6
:1013CC005CC3E55C947FD2AF40741205C7C2AF1208
:1013DC000605D2AFDFDC31A0C3EE94057897F61288
:1013EC0005E012178312186F7F0AD27F316912053C
:1013FC00DBC2AFC27F3169AE5CC3E55C947FD2AF18
:10140C0050E61205C7C2AF1205F01205D11205F055
:10141C00D2AFDFD631A0EE24057896F61205E01295
:10142C00178312189E1205DB3169C3E55C94FF40EB
:10143C00F40218ECC3E55C954A4003855C4A12053E
:10144C00DB78017988E7B403027805C3E55C984042
:10145C0002616CC2AF120605120605120605D2AF68
:0F146C001205E0753000E4F531F5320531E53158
:10147B00F470390532789AE67819146012783214C0
:10148B00600D787D14600878FA146003753200C320
:10149B00E53298401715327531B478998673C2AF1F
:1014AB00120605D2AF789886731205DB1205D1E5CB
:1014BB002A7005307402416D78012074027806C3DE
:1014CB00E55C9840A71205DBE52A700302126DC29A
:1014DB00AF114DE4F522F523F524F525F526F56737
:1014EB00D2AF7885E6C333F565E4F542F543F544B1
:1014FB00F545F546F570F52CF52DF5367570087537
:10150B00BB101205C71209B4E5E820ECFBA8BDA976
:10151B00BEE97001F888711209B875700875BB10B7
:10152B007887E6FE760211CB7887EEF6C2AF75614F
:10153B00FF120A73852261852262852263D2AF7501
:10154B002201752401752501752601856069756A6F
:10155B000175B69075A903757A017888E6B403070F
:10156B00C27D307602D27DD268D269753300120FFC
:10157B00B3120FD8120A9A120A9A120A93120A9AE3
:10158B00120BF7120A93120CBA0215A3C2AF11CBAE
:10159B00D2AF75700075BB09120D0F120E14120D20
:1015AB00F51206D0120E31120E7B120A9A120BE6AE
:1015BB00120BF7120CBA120CFE120E14120DF530A0
:1015CB006D031207702067031208C43067031209FA
:1015DB000B120E31120EA0120A9A120BE6120BF717
:1015EB00120CBA120D0F120E14120DF5306D0312F0
:1015FB0007AC120E31120F17120A9A120BE6120BCE
:10160B00F7120CBA120CFE120E14120DF5306D03FC
:10161B0012080A120E31120F3C120A9A120BE61222
:10162B000BF7120CBA120D0F120E14120DF5306DC2
:10163B0003120868120E31120FB3120A9A120BE63C
:10164B00120BF7120CBA1209B4120CFE120E141272
:10165B000DF5120E31120FD81209B8120A9A120B8D
:10166B00E6120BF7120CBA30692F206B2C856461D4
:10167B00856462856069756A0179187A0CC3E533F4
:10168B00994009C269D26A8A340216A4C3E55C94F4
:10169B000140030215A30216FB306A1B206B18E5F1
:1016AB0034147004C26AA197F534C3E55C9401400D
:1016BB00030215A30216FBC3E55F94014009856481
:1016CB0062856069756A01C3E55F78FA98502130CD
:1016DB007404E52A601A78F0306B05856461782014
:1016EB00C3E53E985002A1A30535E55C6002C1FE3F
:1016FB00753500C2AF114D7887E6FE760211CB78B7
:10170B0087EEF6E4F522F523F524F525F526F565A8
:10171B00C26875B68075A900757A00D2AF1205C77D
:10172B00114D307406E52A7002416D788DE6C39435
:10173B0001400261498172901A0D78201217C5E59C
:10174B0020B4A50CA31217C5E520B45A03021763E6
:10175B001162121783021782901A0378807B0A1288
:10176B0017C5A308DBF9901A0F788C7B181217C5D5
:10177B00A308DBF9901A2722C2AF1218051217DE45
:10178B00901A00740E1217CAA374031217CAA3740B
:10179B00141217CA901A0378807B0A1217C9A30870
:1017AB00DBF9901A0F788C7B181217C9A308DBF999
:1017BB001218191217F5901A2722E493F622E64312
:1017CB008F01538FFD75EF0275B7A575B7F1F05308
:1017DB008FFE22438F02438F0175EF0275B7A575FC
:1017EB00B7F1901A0DF0538FFC22901A0D74A5F1DE
:1017FB00CA901A0E745A1217CA227A3079D07820EE
:10180B00901A401217C5E520F709A3DAF6227A30B1
:10181B0079D0901A40E71217CA09A3DAF822AB74F1
:10182B00A875BB01027980BB02027981BB030279E7
:10183B0082BB04027994BB05027983BB06027986CD
:10184B00BB07027992BB08027987BB0902799CBB63
:10185B000A027988BB0B027989E8F7227C0512050D
:0F186B00E0DCFB22C2AF1205F01205F71205FEFA
:10187A001206051205D11205F01205F71205FE121D
:10188A0006051205D11205F01205F71205FE120619
:10189A0005D2AF22C2AF1206051205FE1205F712D3
:1018AA0005F01205D11206051205FE1205F71205FA
:1018BA00F01205D11206051205FE1205F71205F0FF
:1018CA00D2AF22AE74AF75C2AF1205F01205F01294
:1018DA0005F01205D1DEF21206051205D1DFF8D2A3
:1018EA00AF22116F116711677574017575017576ED
:1018FA000011CD7C05AD5C1205E0C3ED955C70F579
:10190A00C3E55C9401400AC3E55C94FF40330219C5
:10191A00291129121783116FC2AF75EF121167DCF3
:10192A00D40576C3E5769403500280C51167057520
:10193A00E5741490009F93F808C3E57598500280E7
:10194A00AD116711670574C3E574940C5002809B4E
:0D195A00121062121783C2AF75EF121167F1
:0319FD000211CB09
:101A00000E031407070104FFFF09020101A55A0193
:101A100000B4FFFFFF03FF01FF25D078C804FF01DA
:081A200000FF0A010100FFFFB5
:101A40002358526F746F723430412320202020209D
:101A500023424C48454C492346333930232020202B
:101A60002020202020202020202020202020202076
:101C0000C2AFC2D353D9BF7581C043B20343FF8073
:101C1000752438752503B1C975EF0275E24043F1AB
:101C20002053A4DF75D400D2857DFA780379E67C51
:101C300010752200752300901DD67B0675249875BB
:101C400025013085028142208508D8FBD9F9DCF7CF
:101C500081B4308508D8FBD9F9DCF781B4B189E4C7
:101C600093A3C39A6004DDC381B4DBDBB17B600264
:101C7000812B7B08E493FAA3B15CDBF87A30B15C8A
:101C8000752200752300B17BEAFCEBFDC3ED94FEE9
:101C9000400EB17B8A278B28ED30E0048A828B834B
:101CA000B17B7AC270D8C3ED94FE601350CEBD00F4
:101CB00025EC60097520007521FF0200008100A855
:101CC00027A9280809D804D90281D3B17FEA89AAB3
:101CD000F281C50D81A0C3ED94035049EDA2E092BD
:101CE000007AC5C3E5829400E583941C50902000DF
:101CF00010438F02438F0175B7A575B7F1F030001F
:101D00001FA827A9280809438F01538FFDD804D99C
:101D100002A12089AAE275B7A575B7F1F0A3A10DBC
:101D2000538FFC817C7AC1BD030CE493A3FAB140CC
:101D3000DCF8B138817C817EAA22AB23B15CEBFA5E
:101D4000EA6222752608C3E52313F523E52213F57D
:101D50002250066323A0632201D526EAB1C9B1C986
:101D600075260AEAF4200102D285300102C285B14B
:101D7000C9C3134002C201D526EB22B17FEAFB2082
:101D80008502A17F308502A184752608AE24AF2587
:101D9000C3EF13FFEE13FEB1CDB1C9C3EA13308513
:101DA000024480FA30E703632201C3E52313F523DD
:101DB000E52213F52250066323A0632201D526D91C
:101DC000E52265236523F52222AE24AF250E0FDE22
:101DD000FEDFFCD20122424C48656C693437316326
:041DE000F390060175
:00000001FF
