:030000000219FDE5
:03000B000200CF21
:03002B000201C708
:03005B0002037B22
:0300730002036124
:1000800002030406080C10182030406080040608A3
:100090000C10182030406080A0C000070F1F3F0DDB
:1000A0000D0403060D0503030202C0F0C39499403A
:1000B0001375F08EA433C5F033C5F033C5F0332487
:1000C0001DD0F022249975F02BA4E5F0D0F022C2C7
:1000D000AF306308C26385798AD2AF32C0D0C0E046
:1000E000E52511AAF57CE52611AAF57D206227E514
:1000F0007C6002E473E57CF4C3334009758A00D266
:1001000063F5792107F58A758B00758D00D262D071
:10011000E0D0D0D2AF32C3E57D334009758A00D23A
:1001200063F5792127F58AC262E57DF4603830688D
:1001300003207213758B00758D00D0E0D0D0C29370
:10014000C297C294D2AF32C293C297C294206E09B2
:10015000740CD5E0FDE57B4290758B00758D00D069
:10016000E0D0D0D2AF32758A00D263757900C28DEB
:10017000D262215901F5306805206602D29301F55B
:10018000306805206602D29401F5306805206602C9
:10019000D29701F5C29230680A206607740CD5E048
:1001A000FDD29301F5C29530680A206607740CD51C
:1001B000E0FDD29401F5C29630680A206607740CFF
:1001C000D5E0FDD29701F5C2AFC2AD53E6EFC0D086
:1001D000C0E0D2D3D2AFE57A6009E57760057577E4
:1001E00000416C757701C2CEE52A6007207449157D
:1001F0002A41387800790020742EE580307E01F4A1
:1002000030E50278FF53DACF207E0343DA20307ED8
:100210000343DA10C2D8C271E580307E01F430E5C4
:100220000279FFC3E89970CB306103752A402074CE
:1002300003752A40885CD27020740DE52B6004158C
:100240002B414843DA01C2D8207002415BA85C20F0
:100250006102C270207402415988227882B6040378
:10026000852224C3E52594404002D26420CF0AD0E1
:10027000E0D0D043E610D2AD32E57A6009E578608F
:10028000057578006157757801C2CF7802E52A605C
:1002900005307402152AC3E55C94014005755F00C2
:1002A00041B3756000756900E55F2401F55F500397
:1002B000755FFF7982B7020D306D1DC3E522943260
:1002C0004016854A227982B7030E306D0BC3E522B2
:1002D00094324004798E8722C3E52395226008403A
:1002E00004152341E70523D8CA0569E5697002159D
:1002F00069D56A63756A017805C3E569956B4057EE
:10030000C3E569956C50087801756A0302031BC345
:10031000E569956D50057801756A01C3E56295241C
:10032000401E7982B70402614C206D14852462E579
:1003300069046003856B69756A0175233C02035784
:10034000E5622850057562FF614CF562E562047054
:10035000067560FF7569FFD0E0D0D043E610D2ADDE
:1003600032C2AFC0D053E67FC2607591008553940E
:10037000855495759104D0D0D2AF32C2AF53E6EF19
:10038000C2ADC0D0C0E0C0F0D2D3D2AFA8FBA9FCB0
:10039000E57A6007C3E913F9E813F8C2D8307102AF
:1003A00061ED53DACF207E0343DA10307E0343DA67
:1003B00020D271E580307E01F420E50261C48827F7
:1003C0008928A1CC53DACF207E0343DA20307E0384
:1003D00043DA10C2D8C271307402A1B87800E58047
:1003E000307E01F430E502A1B8885CA1A053DACFD9
:1003F000207E0343DA20307E0343DA10C27120618D
:100400000281C653DACF207E0343DA10307E0343E5
:10041000DA20C2D8D27188578958C3E89555F8E9CF
:100420009556F97B007E087A00C3E8948CE9940025
:100430005005755B0081B8882178A2E6A821605537
:10044000C3E894C8E994005008E4D2E4FB7A0A8136
:1004500093C3E89468E994015008E4D2E3FB7A0F6F
:100460008193C3E894D0E994025008E4D2E2FB7A85
:0F0470001E8193C3E894A0E994055008E4D2E1FB
:10047F00FB7A3C8193C3E89498E994085008E4D23E
:10048F00E0FB7A787E00C3E89559FCE9955AFD3078
:10049F00E70AECF42401FCEDF43400FD755B00C3B6
:1004AF00EC9AED9E5003755B018859895A85575513
:1004BF008558567802A1A0C3E89527F8E99528F941
:1004CF00307C02A184307B02A184307A02A17D208E
:1004DF00750281E9E9FDE8FCA108E9C313F9E81306
:1004EF00F8307902A17DE9C313F9E813F8307802E7
:1004FF00A17DE9C313FDE813FC206126C3EC941C16
:10050F00ED94024002A11FED7018C3EC94C8501275
:10051F000529C3E529940A5002A1B8755C00D27071
:10052F00A1B8E529600215297400207F037896E6AB
:10053F0024FAFEE43400FFC3EC9EFCED9FFD500651
:10054F0078007900A184C3EC94FFED940040067805
:10055F00FF7900A184EC8572F0A4C5F0A2F733F8FF
:10056F00790040030205A078FF79000205A0E9C3D6
:10057F0013F9E813F8307C0EE9600278FFC3E81333
:10058F0038F8E43400F9C3E894FFE99400400278A6
:10059F00FF885CD270206102A1B8741FF4552F4BF5
:1005AF00F52FC274EB7002D274752A403074037544
:1005BF002A0A306102A1CC20740353DAFE2074039F
:1005CF00752B20D0F0D0E0D0D0D2AD43E6103279E9
:1005DF00010205FC79030205FC790A0205FC791E6C
:1005EF000205FC79640205FC79C80205FC7817E462
:1005FF00D5E0FDD8FAD9F6227A147B780206237A51
:10060F00107B8C0206237A0D7BB40206237A0B7BB8
:10061F00C80206237902B27DE4C295D5E0FDD294DB
:10062F00D5E0FDC294D5E0FDD295D5E0FDD293E59E
:10063F0073D5E0FDC2937496D5E0FDD9D9EAF8D50C
:10064F00E0FDD8FBDBCEC29522C37C007D0075F0A8
:10065F000005F0EA33FAEB33FB50F6EB13FBEA132A
:10066F00FAC3E9FFE8FEE89AF8E99BF95004EFF9BD
:10067F00EEF8B3EC33FCED33FDD5F0DFEDF9ECF82C
:10068F0022E889F08A20D2D4F8A9F07B0030F70B4A
:10069F007BFFF42401F8E9F43400F9E88520F0A495
:1006AF00ADF0F8E98520F0A4AFF0FEED2EF974005F
:1006BF003FFA7C04C3EA13FAE913F9E813F8DCF400
:1006CF008BF030F70AE8F42401F8E9F43400F9E884
:1006DF0089F0C2D4F8A9F0227882B6040302078603
:1006EF00C3E55C9419401EE52D54067018206D3635
:1006FF0078057994E7146007780A1460027812C3BA
:10070F00E53E98401F306D098564627569FF756A13
:10071F0001852224E4F542F543F544F545F546C23B
:10072F006D020786D26D7994E7147013E523F433C5
:10073F0033F913F8E9540104F9E854FE02077AE794
:10074F0014147014E523F4333333F913F8E9540315
:10075F0004F9E854FC020782E523F433333333F909
:10076F0013F8E954070404F9E854F8C39440F8E97E
:10077F009400F98842894322C3E53E13F9E53D13FE
:10078F00F8C3E54298F8E54399F9500CC3E8948013
:10079F00E994FF40160207BEC3E8947FE994005026
:1007AF00030207BE787F79000207BE788079FF8841
:1007BF0047894822E5472544F8E5483545F98548F6
:1007CF0020E4300701F43546FA30E709C3EA94F024
:1007DF0040150207FCC3EA940F50030207FC78FF91
:1007EF0079FF7A0F0207FC780079007AF0C3E524CD
:1007FF009561500AC374019524500B02081AE548FD
:10080F0020E70E02081AE54830E706884489458A32
:10081F00462278A4E6FAC3E54733F8E54833F912E0
:10082F000690E930E70BC3E89480E994FF40130189
:10083F0055C3E8947FE9940050020155787F790001
:10084F000155788079FFE820E715C3E52398F84034
:10085F0009C3E89401400302087C780102087CE890
:0F086F00F424012523F8400302087C78FF884910
:10087E002278A5E6FAA845A946120690E930E70CBB
:10088E00C3E89401E994FF40160208B1C3E894FF4F
:10089E00E9940050030208B178FF79000208B1789C
:1008AE000179FFE920E715C3E54998F84009C3E847
:1008BE00940140030208D878010208D8E8F4240114
:1008CE002549F840030208D878FF88242278FFC211
:1008DE006420693D206A12D264C3E53E940A400941
:1008EE00C3E52594405002C26479A1E76023E53E3A
:1008FE00601F74FF853EF0848538F0306A0375F012
:10090E0005A4F8C5F0600278FFC3E895645002A80C
:10091E0064886322C3E53D94C8E53E9400E56350C8
:10092E0003142133046002F563227883E6F5201266
:10093E000FCA75E8901205DE75E890E5E820ECFB2D
:10094E00A8BDA9BE121064756E00756F00C3740049
:10095E0013FD7400606613FC74002CFC74003DFDE6
:10096E00ECFAEDFBC3E89AE99B4014E56E2400F522
:10097E006EE56F3400F56FEA2CFAEB3DFB80E5AEC9
:10098E006EAF6FC3E56F13F9E56E13F8C3E913F994
:10099E00E813F87A03C3E913F9E813F8DAF7AA2093
:1009AE001A7009756E00756F000209CA1AEA60089E
:1009BE00EE28FEEF39FFDAF88E6E8F6F2275E89013
:1009CE00227883E6FFE5E820ECF7A8BDA9BE057006
:1009DE00C3E57094084052757000E9FA79A0E7609B
:1009EE0044EA7007E571601B020A05C3E895716061
:1009FE0010E5715006600C14020A110460F9020A27
:100A0E0011E571F571C39472401B7561C0C39404F6
:100A1E004013756180C39404400B756140C3940408
:100A2E00400375610075BB0922EFC39401601F740A
:100A3E0000601BC3E894FFE994035012C3E8956E5F
:100A4E00E9956F5009E561600C1561020A63E56175
:100A5E00F460020561A861C3E524985002A824C37E
:100A6E00E89562400AA862E562F4600385626188D7
:100A7E00258826E570B4070375BB1022743279A65B
:100A8E0087F0A4C5F0A2F733F8C3E895614002A839
:100A9E00618822882488258826886422753D007501
:100AAE003EF02275C820A8CCA9CD75C824C3E91381
:100ABE00F9E813F8AA39AB3A8839893AC3E89AF8B3
:100ACE00E99B547FF930670261B0306933AC3BADBE
:100ADE003C8A3B8B3CC3EB9D547FFBC3E99BF53FAC
:100AEE00A839A93AC3E89CF8E99D547FF9C3E53EBD
:100AFE0013FBE53D13FAE82AF53DE93BF53E615857
:100B0E00AA3DAB3EAC3DAD3E7E047F02C3EB9404EA
:100B1E0040021E1FC3EB940840021E1FC3ED13FDBF
:100B2E00EC13FCDEF7C3EA9CFAEB9DFBEF6009C306
:100B3E00E913F9E813F8DFF7EA28FAEB39FB8A3DF7
:100B4E008B3E50067BFF8B3D8B3EC3EB94025002D7
:100B5E00D2673069047F0361837892E6FFC3E5367E
:100B6E00948240110FC3E53694A040010FC3EF9459
:100B7E000640027F057E01E53EC4540FF9E53EC4F2
:100B8E0054F0F8E53DC4540F28F8C3E89EFAE994F2
:100B9E0000FB4009C3EA9402EB940050047A02E48D
:100BAE00FB22AA3DAB3EEBC4FEEAC4540F4EFCC37F
:100BBE00EA9CFAEB9400FBC3E813C313F8EA28FA95
:100BCE00EB3400FB8A3D8B3EC3EB94024002C267BE
:100BDE007801EBC4FE7B00EAC4540F4EFAC3EA98C8
:100BEE00FA4005C3940250027A027892E6FF223050
:100BFE00600261FD854F53855054D26043E68022DA
:100C0E00C3E49AF8E49BF9C3E833F8E933F93067A3
:100C1E0002819DE8FAE9FBD3E913FDE813FC884F46
:100C2E008950C3EF94036037EF20E00DE82CF8E90C
:100C3E003DF9ECFAEDFB020C5AE828F8E939F9C354
:100C4E00E82402F8E93400F97AFE7BFFC3EF94033F
:100C5E00400D8A518B52884B894C8C4D8D4E22887B
:0F0C6E005189528A4B8B4C8C4D8D4E306920C36F
:100C7D00E53394034019E53FA2E713F8E552F42458
:100C8D000138400B20E7087551FFF42401F552227D
:100C9D00E8FAD3E813FC884FC3EF9403601FEF20ED
:100CAD00E007E82CF8ECFA81BDE8282402F87AFE7A
:100CBD00C3EF940340078A51884B8C4D2288518A8B
:100CCD004B8C4D22E568C3335002646BF568306080
:100CDD000281DBD26043E680E52D54066029A83DF4
:100CED00A93EC3E913F9E813F8C3E833F8E933F97A
:100CFD0053E67F759100C3E498F594E499F59575E5
:100D0D009104D26043E68022D265754100752000C2
:100D1D00306B03752040020D34D26575410075208E
:100D2D0040306B03752000D2AF7801206722E52D8E
:100D3D0054066002C265C3E53E94054013780294E3
:100D4D000540087803940540027806306902780A58
:100D5D00206009E5416005D2AFD26C22D2AF000010
:100D6D00C2AF20672AE53EC3FB940F40027B0FEB19
:100D7D00240530730123306A02742820620123F99F
:100D8D003069027982E58D13E58B13C39940C10556
:100D9D0041E59BF45440B52002A1F530691408C318
:100DAD00E8940A4002A134C3E53394065002A134FD
:100DBD00A15D206502A134C26553E67F75910030B7
:100DCD0067107594007595FC759104D26043E680AB
:100DDD00A134AE3DAF3EC3EE33FEEF33FFC3E49E11
:100DED00F594E49FF595A1D5C3E53394025002A186
:100DFD0034306502A134D802C109A15DC26C22E56F
:100E0D002D54066008206A020533020E2A306C0D3F
:100E1D00206B0A2065071581158102170A2253E6FA
:100E2D007F759100855194855295759104854B532D
:100E3D00854C54D26043E680D2AF227800306405F1
:100E4D003065027801E53675F007A4F9E5F028F56F
:100E5D00F0E9A2F013A2F113A2F213F536C39478C0
:100E6D005003753678C3E53695374008D266C29380
:100E7D00C297C294306002C181854D53854E54D2C4
:100E8D006043E68022207D11C2AF754002C295D22B
:100E9D0092D2AF759F80021061C2AF754002C295AC
:100EAD00D296D2AF759F80021061307243207D20A3
:100EBD00C2AF7540039001A5757B20C297C29630D5
:100ECD006204D294C1D5D295D2AF759F89021061BB
:100EDD00C2AF7540039001A5757B20C293C29230BD
:100EED006204D294C1F5D295D2AF759F8102106183
:100EFD00207D17C2AF754003900180C2973062020A
:100F0D00D294D2AF759F89021061C2AF7540039024
:100F1D000180C293306202D294D2AF759F810210CC
:100F2D0061207D11C2AF754004C292D296D2AF75C9
:100F3D009F81021061C2AF754004C296D292D2AFAA
:100F4D00759F89021061307243207D20C2AF7540BC
:100F5D0005900194757B04C294C295306204D293BE
:100F6D00E171D292D2AF759F80021061C2AF754010
:100F7D00059001B6757B40C294C295306204D2973C
:100F8D00E191D296D2AF759F80021061207D17C27C
:100F9D00AF754005900176C294306202D293D2AF04
:100FAD00759F80021061C2AF75400590018AC29491
:100FBD003062EBD297D2AF759F80021061207D1108
:100FCD00C2AF754006C296D295D2AF759F890210F9
:100FDD0061C2AF754006C292D295D2AF759F8102A4
:100FED001061307242207D20C2AF7540019001B674
:100FFD00757B40C293C292306204D297010DD29696
:10100D00D2AF759F81021061C2AF754001900194FE
:10101D00757B04C297C296306204D293012DD29291
:10102D00D2AF759F890161207D16C2AF75400190C9
:10103D00018AC293306202D297D2AF759F8101614E
:10104D00C2AF754001900176C297306202D293D241
:10105D00AF759F89C26622900174757B00C293C2E1
:0E106D0097C294C292C296C295C26222788047
:10107B0076070876070876010876040876FF087667
:10108B00FF087609087602087601087601788C76D7
:10109B00010876000876B40876FF0876FF0876FF1D
:1010AB000876030876FF0876010876FF0876250890
:1010BB0076D00876780876C80876040876FF087626
:1010CB000108760008767A08760A08760108760118
:1010DB000876000876FF227887E6FFC272BF03020C
:1010EB00D2727888C27DE630E102D27DC27E7889E9
:1010FB00E630E102D27EC3EF94026008758E01D216
:10110B0073021114758E00C273227880E61490005E
:10111B00809378A4F67881E6149000809378A5F6F6
:10112B007886E61490008D9378A6F6789FE6F87093
:10113B000108C3E8941140027811E82828F56B25C3
:10114B006B256B28F56C256B2828F56D789CE6755F
:10115B0037FF75380CB402067537A075380AB4031F
:10116B000675378275380578A3E61490009A93F5C7
:10117B0066116422227896E6FA7897E6FB7888E681
:10118B00B40305C3EB940EFB307F047A007BFFC3E3
:10119B00EB9AFCC3948250027C827572000572EC50
:1011AB008572F0A4C3E5F0947D40F222D27F3180AA
:1011BB001205ED7A007B007C101205E3E55C2AFA40
:1011CB0074003BFBDCF37C04C3EB13FBEA13FADC8C
:1011DB00F7FEC27F318022E5EF20E6037520000584
:1011EB0020903FFFE520146006901FFF14600093D2
:1011FB0004600375EF1253D9BF7581C043FF801292
:10120B0005DE75EF0243B203E5B3240420E70DF5C9
:10121B0021E5E320E0068521B343E30111647580EA
:10122B00FF75A40075F1F075D4DF75900275A5FC00
:10123B0075F2FD75D50275A61075A0FF75F3F175E6
:10124B00E241E4F8F6D8FD75680111791217597867
:10125B00988673753001C2AF1205F7120607120597
:10126B00ED12060E1205ED1206151205ED12187F82
:10127B001205F71205F71205F2C2AF78FA79FA30B8
:10128B008507D9FBD8F7021C0011E23115317F31EC
:10129B008078988673116475B68075A900757A008D
:1012AB0075885075891275C82475910475D8407569
:1012BB00A82275B80275E690759B80759D0075D157
:1012CB000E75BC5875BB0975BA1175E8801205DE31
:1012DB00D2AF12093853DACF207E0343DA20307EA7
:1012EB000343DA1043DA01C2D8C2711205F7D26197
:1012FB007B037A0CE55B70077A0CDB03021284121A
:10130B0005ED207003021284C270E55CC3940240A9
:10131B00E1E52F541F855E5DF55EB55DD5DAD5C26F
:10132B006153DACF207E0343DA20307E0343DA1099
:10133B00C2D8C27178A2E67008D274E52F54E0F5DA
:10134B002FC2757529001205F2307409C3E5299473
:10135B000A4002D2751205E378023074027800C39A
:10136B00E55C9840F0C2AF1206071206071206079B
:10137B00D2AF1205F7754A001205E3788CE6C394D9
:10138B00015003021457E530C39401500302145764
:10139B00207435C3E55C94FF5003021457C2AF129F
:1013AB00061CD2AF1205F2C3E55C940150EFC2AF3D
:1013BB001206071205E8120607D2AF1205F2C3E5B3
:1013CB005C94FF40E90219047F05D27F318012053E
:1013DB00F2C2AFC27F3180AE5CC3E55C947FD2AF0B
:1013EB0040741205DEC2AF12061CD2AFDFDC31B780
:1013FB00C3EE94057897F61205F712179A12188711
:10140B007F0AD27F31801205F2C2AFC27F3180AE2C
:10141B005CC3E55C947FD2AF50E61205DEC2AF121F
:10142B0006071205E8120607D2AFDFD631B7EE2456
:10143B00057896F61205F712179A1218B61205F2DE
:10144B003180C3E55C94FF40F4021904C3E55C955D
:10145B004A4003855C4A1205F278017988E7B403A8
:0D146B00027805C3E55C9840026183C2AFC2
:1014780012061C12061C12061CD2AF1205F7753094
:1014880000E4F531F5320531E531F470390532788B
:101498009AE67819146012783214600D787D146019
:1014A8000878FA146003753200C3E53298401715BE
:1014B800327531B478998673C2AF12061CD2AF78F0
:1014C8009886731205F21205E8E52A700530740251
:1014D800418478012074027806C3E55C9840A7121D
:1014E80005F2E52A7003021284C2AF1164E4F52202
:1014F800F523F524F525F526F567D2AF7885E6C3FB
:1015080033F565E4F542F543F544F545F546F570E0
:10151800F52CF52DF53675700875BB101205DE1221
:1015280009CBE5E820ECFBA8BDA9BEE97001F88865
:10153800711209CF75700875BB107887E6FE7602C0
:1015480011E27887EEF6C2AF7561FF120A8A85222A
:1015580061852262852263D2AF75220175240175E7
:101568002501752601856069756A0175B69075A9AA
:1015780003757A017888E6B40307C27D307602D213
:101588007DD268D269753300120FCA120FEF120AA2
:10159800B1120AB1120AAA120AB1120C0E120AAA40
:1015A800120CD10215BAC2AF11E2D2AF7570007534
:1015B800BB09120D26120E2B120E0C1206E7120E84
:1015C80048120E92120AB1120BFD120C0E120CD117
:1015D800120D15120E2B120E0C306D0312078720F8
:1015E80067031208DB306703120922120E48120E35
:1015F800B7120AB1120BFD120C0E120CD1120D26E5
:10160800120E2B120E0C306D031207C3120E481265
:101618000F2E120AB1120BFD120C0E120CD1120D64
:1016280015120E2B120E0C306D03120821120E48E3
:10163800120F53120AB1120BFD120C0E120CD1121A
:101648000D26120E2B120E0C306D0312087F120E8F
:1016580048120FCA120AB1120BFD120C0E120CD14D
:101668001209CB120D15120E2B120E0C120E481267
:101678000FEF1209CF120AB1120BFD120C0E120C49
:10168800D130692F206B2C8564618564628560691F
:10169800756A0179187A0CC3E533994009C269D291
:1016A8006A8A340216BBC3E55C940140030215BA8A
:1016B800021712306A1B206B18E534147004C26AD2
:1016C800A1AEF534C3E55C940140030215BA0217D4
:1016D80012C3E55F94014009856462856069756A93
:1016E80001C3E55F78FA985021307404E52A601A3E
:1016F80078F0306B058564617820C3E53E98500228
:10170800A1BA0535E55C6002E115753500C2AF1177
:10171800647887E6FE760211E27887EEF6E4F52231
:10172800F523F524F525F526F565C26875B68075A7
:10173800A900757A00D2AF1205DE1164307406E58F
:101748002A70024184788DE6C39401400261608169
:1017580089901A0D78201217DCE520B4A50CA31285
:1017680017DCE520B45A0302177A117912179A0286
:101778001799901A0378807B0A1217DCA308DBF903
:10178800901A0F788C7B181217DCA308DBF9901AD3
:101798002722C2AF12181D1217F5901A00740E12E4
:1017A80017E1A374031217E1A374141217E1901A36
:1017B8000378807B0A1217E0A308DBF9901A0F78E8
:1017C8008C7B181217E0A308DBF912183112180CD9
:1017D800901A2722E493F622E6438F01538FFD7572
:1017E800EF0275B7A575B7F1F0538FFE22438F024C
:1017F800438F0175EF0275B7A575B7F1901A0DF013
:10180800538FFC22901A0D74A51217E1901A0E74CA
:101818005A1217E1227A3079D07820901A4012179C
:10182800DCE520F709A3DAF6227A3079D0901A405D
:10183800E71217E109A3DAF822AB74A875BB010215
:101848007980BB02027981BB03027982BB040279E9
:1018580094BB05027983BB06027986BB070279929D
:0F186800BB08027987BB0902799CBB0A02798809
:10187700BB0B027989E8F7227C051205F7DCFB220E
:10188700C2AF12060712060E12061512061C120523
:10189700E812060712060E12061512061C1205E8B4
:1018A70012060712060E12061512061CD2AF22C226
:1018B700AF12061C12061512060E1206071205E8CD
:1018C70012061C12061512060E1206071205E8125A
:1018D700061C12061512060E120607D2AF22AE74A8
:1018E700AF75C2AF1206071206071206071205E800
:1018F700DEF212061C1205E8DFF8D2AF22118711BB
:101907007F117F75740175750175760011E57C058A
:10191700AD5C1205F7C3ED955C70F5C3E55C94010A
:10192700400AC3E55C94FF40330219411141121785
:101937009A1187C2AF75EF12117FDCD40576C3E524
:10194700769403500280C5117F0575E574149000E5
:101957009F93F808C3E57598500280AD117F117FFA
:101967000574C3E574940C5002809B12107912170A
:081977009AC2AF75EF12117F57
:0319FD000211E2F2
:101A00000E031407070104FFFF09020101A55A0193
:101A100000B4FFFFFF03FF01FF25D078C804FF01DA
:081A200000FF0A010100FFFFB5
:101A40002358526F746F723430412320202020209D
:101A500023424C48454C492346333930232020202B
:101A60002020202020202020202020202020202076
:101C0000C2AFC2D353D9BF7581C043B20343FF8073
:101C1000752438752503B1C975EF0275E24043F1AB
:101C20002053A4DF75D400D2857DFA780379E67C51
:101C300010752200752300901DD67B0675249875BB
:101C400025013085028142208508D8FBD9F9DCF7CF
:101C500081B4308508D8FBD9F9DCF781B4B189E4C7
:101C600093A3C39A6004DDC381B4DBDBB17B600264
:101C7000812B7B08E493FAA3B15CDBF87A30B15C8A
:101C8000752200752300B17BEAFCEBFDC3ED94FEE9
:101C9000400EB17B8A278B28ED30E0048A828B834B
:101CA000B17B7AC270D8C3ED94FE601350CEBD00F4
:101CB00025EC60097520007521FF0200008100A855
:101CC00027A9280809D804D90281D3B17FEA89AAB3
:101CD000F281C50D81A0C3ED94035049EDA2E092BD
:101CE000007AC5C3E5829400E583941C50902000DF
:101CF00010438F02438F0175B7A575B7F1F030001F
:101D00001FA827A9280809438F01538FFDD804D99C
:101D100002A12089AAE275B7A575B7F1F0A3A10DBC
:101D2000538FFC817C7AC1BD030CE493A3FAB140CC
:101D3000DCF8B138817C817EAA22AB23B15CEBFA5E
:101D4000EA6222752608C3E52313F523E52213F57D
:101D50002250066323A0632201D526EAB1C9B1C986
:101D600075260AEAF4200102D285300102C285B14B
:101D7000C9C3134002C201D526EB22B17FEAFB2082
:101D80008502A17F308502A184752608AE24AF2587
:101D9000C3EF13FFEE13FEB1CDB1C9C3EA13308513
:101DA000024480FA30E703632201C3E52313F523DD
:101DB000E52213F52250066323A0632201D526D91C
:101DC000E52265236523F52222AE24AF250E0FDE22
:101DD000FEDFFCD20122424C48656C693437316326
:041DE000F390060175
:00000001FF
