:030000000219FDE5
:03000B000200A848
:03002B000201AE21
:03005B0002035449
:0300730002033A4B
:1000800002030406080C10182030406080040608A3
:100090000C10182030406080A0C000070F1F3F05E3
:1000A000050D050305030302C2AF306308C2638573
:1000B000798AD2AF32C0D0C0E0C0F075F02BE52510
:1000C000A485F07C75F02BE526A485F07D206229BF
:1000D000E57C6002E473E57CF4C3334009758A0073
:1000E000D263F57901E8F58A758B00758D00D262CF
:1000F000D0F0D0E0D0D0D2AF32C3E57D3340097527
:100100008A00D263F579210AF58AC262E57DF4603E
:100110003C306803207215758B00758D00D0F0D0CF
:10012000E0D0D0C293C297C294D2AF32C293C297EA
:10013000C294206E09740CD5E0FDE57B4290758B6E
:1001400000758D00D0F0D0E0D0D0D2AF32758A00EB
:10015000D263757900C28DD262213E01D630680526
:10016000206602D29301D6306805206602D294013F
:10017000D6306805206602D29701D6C29230680A4E
:10018000206607740CD5E0FDD29301D6C295306885
:100190000A206607740CD5E0FDD29401D6C29630D1
:1001A000680A206607740CD5E0FDD29701D6C2AF6D
:1001B000C2AD53E6EFC0D0C0E0D2D3D2AFE57A6093
:1001C00009E577600575770041E9757701C2CEE5ED
:1001D0002A6007207449152A411F7800790020748D
:1001E0002EE580307E01F430E50278FF53DACF202F
:1001F0007E0343DA20307E0343DA10C2D8C271E5B1
:1002000080307E01F430E50279FFC3E89970CB308D
:100210006103752A18207403752A18885CD270202F
:10022000740DE52B6004152B412F43DA01C2D82051
:100230007002418FA85C206102C270207431C3E853
:1002400094F0400374F0F8E8C4540F28F87984B7A8
:100250000302416FC313C3138721200802C3132075
:100260000A06C3C898F8416F28F8500374FFF8C312
:10027000E895655003E565F88822E52D5406600F82
:10028000E533C313C3132522F52250037522FF85DE
:100290002224A824C3E52495614002A8618825E5AD
:1002A00066700241D3C3E8AA669A5003E8FAE4F9FB
:1002B000EAC333FBE568F45B29400D2567F8E56781
:1002C00060021567400B41D30AC3E5679A500205E7
:1002D0006778FF8826C26EC3E52694F84002D26E86
:1002E000C3E52594404002D26420CF0AD0E0D0D0AC
:1002F00043E610D2AD32E57A6009E578600575789D
:10030000006130757801C2CF7801E52A600530744C
:1003100002152AC3E55C94014005755F00613075E4
:100320006000756900E55F2401F55F5003755FFFAC
:10033000D0E0D0D043E610D2AD32C2AFC0D053E649
:100340007FC260759100855394855495759104D052
:10035000D0D2AF32C2AF53E6EFC2ADC0D0C0E0C022
:10036000F0D2D3D2AFA8FBA9FCE57A6007C3E913AA
:10037000F9E813F8C2D830710261C653DACF207E93
:100380000343DA10307E0343DA20D271E580307EF9
:1003900001F420E502619D88278928A1ED53DACF79
:1003A000207E0343DA20307E0343DA10C2D8C271C4
:1003B000307402A1D97800E580307E01F430E50286
:1003C000A1D9885CA1C153DACF207E0343DA203063
:1003D0007E0343DA10C271206102819F53DACF207D
:1003E0007E0343DA10307E0343DA20C2D8D271880C
:1003F000578958C3E89555F8E99556F97B007E086A
:100400007A00C3E8948CE994005005755B008191F3
:10041000882178A2E6A8216055C3E894C8E9940031
:100420005008E4D2E4FB7A0A816CC3E89468E9944A
:10043000015008E4D2E3FB7A0F816CC3E894D0E961
:1004400094025008E4D2E2FB7A1E816CC3E894A0C7
:10045000E994055008E4D2E1FB7A3C816CC3E8944E
:1004600098E994085008E4D2E0FB7A787E00C3E86B
:0F0470009559FCE9955AFD30E70AECF42401FC9C
:10047F00EDF43400FD755B00C3EC9AED9E500375EF
:10048F005B018859895A8557558558567802A1C1FD
:10049F00C3E89527F8E99528F9307C02A1A5307BB0
:1004AF0002A1A5307A02A19E20750281C2E9FDE862
:1004BF00FC81E1E9C313F9E813F8307902A19EE951
:1004CF00C313F9E813F8307802A19EE9C313FDE8CE
:1004DF0013FC206126C3EC941CED9402400281F8BA
:1004EF00ED7018C3EC94C850120529C3E529940A7E
:1004FF005002A1D9755C00D270A1D9E5296002150F
:10050F00297888E6F97400207F087896B903027875
:10051F009EE624FAFEE43400FFC3EC9EFCED9FFD43
:10052F009208B90310A2085007207609D276A14489
:10053F00307602C276A2085016B9030DECF42401EE
:10054F00FCEDF43400FD02055E78007900A1A5B939
:10055F000315EC33FCED33FDC3EC940AFCED940072
:10056F00FD50047C007D00C3EC94FFED9400400629
:10057F0078FF7900A1A5EC8572F0A4C5F0A2F7333E
:10058F00F8790040030205C178FF79000205C1E93F
:10059F00C313F9E813F8307C0EE9600278FFC3E863
:1005AF001338F8E43400F9C3E894FFE994004002EB
:1005BF0078FF885CD270206102A1D9741FF4552F87
:1005CF004BF52FC274EB7002D274752A1830740376
:1005DF00752A0A306102A1ED20740353DAFE2074EC
:1005EF0003752B06D0F0D0E0D0D0D2AD43E6103259
:1005FF00790102061D790302061D790A02061D798B
:10060F001E02061D796402061D79C802061D7817A1
:10061F00E4D5E0FDD8FAD9F6227A147B78020644A5
:10062F007A107B8C0206447A0D7BB40206447A0B57
:10063F007BC80206447902B27DE4C295D5E0FDD2B3
:10064F0094D5E0FDC294D5E0FDD295D5E0FDD293CF
:10065F00E573D5E0FDC2937496D5E0FDD9D9EAF8DC
:10066F00D5E0FDD8FBDBCEC29522C37C007D0075A3
:10067F00F00005F0EA33FAEB33FB50F6EB13FBEA2D
:10068F0013FAC3E9FFE8FEE89AF8E99BF95004EF83
:10069F00F9EEF8B3EC33FCED33FDD5F0DFEDF9EC0B
:1006AF00F822E889F08A20D2D4F8A9F07B0030F73D
:1006BF000B7BFFF42401F8E9F43400F9E88520F00E
:1006CF00A4ADF0F8E98520F0A4AFF0FEED2EF9749B
:1006DF00003FFA7C04C3EA13FAE913F9E813F8DCD4
:1006EF00F48BF030F70AE8F42401F8E9F43400F958
:1006FF00E889F0C2D4F8A9F02222C3E53E13F9E548
:10070F003D13F8C3E54298F8E54399F9500CC3E857
:10071F009480E994FF4016020740C3E8947FE99460
:10072F00005003020740787F7900020740788079F4
:10073F00FF8847894822E5472544F8E5483545F9BC
:10074F00854820E4300701F43546FA30E709C3EA5B
:10075F0094F0401502077EC3EA940F500302077E00
:10076F0078FF79FF7A0F02077E780079007AF0C35D
:10077F00E5249561500AC374019524500B02079C20
:10078F00E54820E70E02079CE54830E706884489D4
:10079F00458A462278A4E6FAC3E54733F8E548339D
:1007AF00F9D1B1E930E70BC3E89480E994FF401326
:1007BF00E1D6C3E8947FE994005002E1D6787F79BF
:1007CF0000E1D6788079FFE820E715C3E52398F894
:1007DF004009C3E8940140030207FD78010207FDB9
:1007EF00E8F424012523F840030207FD78FF884928
:1007FF002278A5E6FAA845A9461206B1E930E70C1A
:10080F00C3E89401E994FF4016020832C3E894FF4D
:10081F00E99400500302083278FF79000208327819
:10082F000179FFE920E715C3E54998F84009C3E8C6
:10083F00940140030208597801020859E8F4240191
:10084F002549F8400302085978FF88242278FFC20F
:10085F006420693D206A12D264C3E53E940A4009C0
:0E086F00C3E52594405002C26479A1E76023DE
:10087D00E53E601F74FF853EF0848538F0306A03D5
:10088D0075F005A4F8C5F0600278FFC3E8956450D3
:10089D0002A864886322C3E53D94C8E53E9400E553
:1008AD006350031401B4046002F563220208BC22F4
:1008BD0075E890227883E6FFE5E820ECF7A8BDA95E
:1008CD00BE0570C3E57094084052757000E9FA7961
:1008DD00A0E76044EA7007E571601B0208F7C3E802
:1008ED0095716010E5715006600C140209030460E7
:1008FD00F9020903E571F571C39472401B7561C06E
:10090D00C394044013756180C39404400B7561401A
:10091D00C39404400375610075BB0922E561F46061
:10092D00020561E570B4070375BB1022743279A618
:10093D0087F0A4C5F0A2F733F8C3E895614002A88B
:10094D00618822882488258826886422753D007553
:10095D003EF02275C820A8CCA9CD75C824C3E913D3
:10096D00F9E813F8AA39AB3A8839893AC3E89AF805
:10097D00E99B547FF9306702415F306933AC3BAD81
:10098D003C8A3B8B3CC3EB9D547FFBC3E99BF53FFE
:10099D00A839A93AC3E89CF8E99D547FF9C3E53E0F
:1009AD0013FBE53D13FAE82AF53DE93BF53E41071A
:1009BD00AA3DAB3EAC3DAD3E7E047F02C3EB94043D
:1009CD0040021E1FC3EB940840021E1FC3ED13FD12
:1009DD00EC13FCDEF7C3EA9CFAEB9DFBEF6009C359
:1009ED00E913F9E813F8DFF7EA28FAEB39FB8A3D4A
:1009FD008B3E50067BFF8B3D8B3EC3EB940250022A
:100A0D00D2673069047F0341327892E6FFC3E53641
:100A1D00948240110FC3E53694A040010FC3EF94AB
:100A2D000640027F057E01E53EC4540FF9E53EC444
:100A3D0054F0F8E53DC4540F28F8C3E89EFAE99444
:100A4D0000FB4009C3EA9402EB940050047A02E4DF
:100A5D00FB22AA3DAB3EEBC4FEEAC4540F4EFCC3D1
:100A6D00EA9CFAEB9400FBC3E813C313F8EA28FAE7
:100A7D00EB3400FB8A3D8B3EC3EB94024002C26710
:100A8D007801EBC4FE7B00EAC4540F4EFAC3EA981A
:100A9D00FA4005C3940250027A027892E6FF2230A2
:100AAD00600241AC854F53855054D26043E680229D
:100ABD00C3E49AF8E49BF9C3E833F8E933F93067F6
:100ACD0002614CE8FAE9FBD3E913FDE813FC884F0A
:100ADD008950C3EF94036037EF20E00DE82CF8E95F
:100AED003DF9ECFAEDFB020B09E828F8E939F9C3F9
:100AFD00E82402F8E93400F97AFE7BFFC3EF940392
:100B0D00400D8A518B52884B894C8C4D8D4E2288CD
:100B1D005189528A4B8B4C8C4D8D4E306920C3E5DB
:100B2D003394034019E53FA2E713F8E552F424018D
:100B3D0038400B20E7087551FFF42401F55222E8E7
:100B4D00FAD3E813FC884FC3EF9403601FEF20E046
:100B5D0007E82CF8ECFA616CE8282402F87AFEC359
:100B6D00EF940340078A51884B8C4D2288518A4B54
:100B7D008C4D22E568C3335002646BF5683060021A
:100B8D00618AD26043E680E52D54066029A83DA90F
:100B9D003EC3E913F9E813F8C3E833F8E933F95321
:100BAD00E67F759100C3E498F594E499F5957591F8
:100BBD0004D26043E68022D2657541007520003075
:100BCD006B03752040020BE3D26575410075204023
:100BDD00306B03752000D2AF7801206722E52D54CC
:100BED00066002C265C3E53E940540137802940584
:100BFD0040087803940540027806306902780A208F
:100C0D006009E5416005D2AFD26C22D2AF0000C2BF
:100C1D00AF20672AE53EC3FB940F40027B0FEB2408
:100C2D000530730123306A02742820620123F930E4
:100C3D0069027982E58D13E58B13C39940C1054196
:100C4D00E59BF45440B5200281A430691408C3E833
:100C5D00940A400261E3C3E5339406500261E381D7
:0E0C6D000C20650261E3C26553E67F759100BD
:100C7B003067107594007595FC759104D26043E64E
:100C8B008061E3AE3DAF3EC3EE33FEEF33FFC3E413
:100C9B009EF594E49FF5958184C3E533940250024D
:100CAB0061E330650261E3D80281B8810CC26C222A
:100CBB00E52D54066008206A020533020CD9306C0E
:100CCB000D206B0A206507158115810215DD225356
:100CDB00E67F759100855194855295759104854BEE
:100CEB0053854C54D26043E680D2AF2278003064F7
:100CFB00053065027801E53675F007A4F9E5F028B3
:100D0B00F5F0E9A2F013A2F113A2F213F536C39496
:100D1B00785003753678C3E53695374008D266C2EE
:100D2B0093C297C294306002A130854D53854E54C7
:100D3B00D26043E68022207D11C2AF754002C2957E
:100D4B00D292D2AF759F80020F10C2AF754002C214
:100D5B0095D296D2AF759F80020F10307243207DD3
:100D6B0020C2AF75400390018C757B20C297C29651
:100D7B00306204D294A184D295D2AF759F89020FB1
:100D8B0010C2AF75400390018C757B20C293C29249
:100D9B00306204D294A1A4D295D2AF759F81020F79
:100DAB0010207D17C2AF754003900167C297306268
:100DBB0002D294D2AF759F89020F10C2AF75400358
:100DCB00900167C293306202D294D2AF759F8102B9
:100DDB000F10207D11C2AF754004C292D296D2AFD4
:100DEB00759F81020F10C2AF754004C296D292D28A
:100DFB00AF759F89020F10307243207D20C2AF75F3
:100E0B00400590017B757B04C294C295306204D27D
:100E1B0093C120D292D2AF759F80020F10C2AF75D3
:100E2B00400590019D757B40C294C295306204D2FF
:100E3B0097C140D296D2AF759F80020F10207D17BD
:100E4B00C2AF75400590015DC294306202D293D25D
:100E5B00AF759F80020F10C2AF754005900171C234
:100E6B00943062EBD297D2AF759F80020F10207D2A
:100E7B0011C2AF754006C296D295D2AF759F89024B
:100E8B000F10C2AF754006C292D295D2AF759F813B
:100E9B00020F10307242207D20C2AF7540019001CD
:100EAB009D757B40C293C292306204D297C1BCD273
:100EBB0096D2AF759F81020F10C2AF7540019001A2
:100ECB007B757B04C297C296306204D293C1DCD28D
:100EDB0092D2AF759F89E110207D16C2AF7540018C
:100EEB00900171C293306202D297D2AF759F81E1AC
:100EFB0010C2AF75400190015DC297306202D29370
:100F0B00D2AF759F89C2662290015B757B00C2933D
:100F1B00C297C294C292C296C295C2622278807660
:100F2B00FF0876FF0876FF0876FF0876030876043D
:100F3B00087609087603087601087601788C760125
:100F4B000876FF0876FF0876FF0876FF0876FF081D
:100F5B0076030876FF0876FF0876FF087625087675
:100F6B00D00876FA0876FA0876040876FF08760138
:100F7B0008760008767A0876FF087601087601086D
:100F8B007600087603227887E6FFC272BF0302D28F
:100F9B00727888E6C394036008C27DE630E102D222
:100FAB007DC27E7889E630E102D27EC3EF94026087
:100FBB0008758E01D273020FC9758E00C273227829
:100FCB0080E6149000809378A4F67881E614900064
:100FDB00809378A5F67886E61490008D9378A6F624
:100FEB00789CE67537FF75380CB402067537A0751B
:100FFB00380AB4030675378275380578A3E6149062
:10100B00009A93F566120F1322227896E6FA7897D8
:10101B00E6FB7888E6B40305C3EB940EFB307F0444
:10102B007A007BFFC3EB9AFCC3948250027C8275DF
:10103B0072000572EC8572F0A4C3E5F0947D40F26A
:10104B0022D27F111512060E7A007B007C1012063D
:10105B0004E55C2AFA74003BFBDCF37C04C3EB1362
:0E106B00FBEA13FADCF7FEC27F111522E5EF57
:1010790020E6037520000520903FFFE52014600657
:10108900901FFF1460009304600375EF1253D9BFDA
:101099007581C043FF801205FF75EF0243B203E576
:1010A900B3240420E70DF521E5E320E0068521B30B
:1010B90043E301120F137580FF75A40075F1F075F4
:1010C900D4DF75900275A5FC75F2FD75D50275A67C
:1010D9001075A0FF75F3F175E241E4F8F6D8FD75D6
:1010E9006801120F2812162878988673753001C284
:1010F900AF12061812062812060E12062F12060E35
:1011090012063612060E1217411206181206181286
:101119000613C2AF78FA79FA308507D9FBD8F702F6
:101129001C00120F91120FCA1114111578988673A9
:10113900120F1375B68075A900757A0075885075F8
:10114900891275C82475910475D84075A82275B897
:101159000275E690759B80759D0075D10E75BC581A
:1011690075BB0975BA1175E8801205FFD2AF12086F
:10117900B953DACF207E0343DA20307E0343DA10F5
:1011890043DA01C2D8C271120618D2617B037A0C04
:10119900E55B70077A0CDB0302111B12060E207047
:1011A9000302111BC270E55CC3940240E1E52F54B0
:1011B9001F855E5DF55EB55DD5DAD5C26153DACFBF
:1011C900207E0343DA20307E0343DA10C2D8C2718D
:1011D90078A2E67008D274E52F54E0F52FC2757530
:1011E9002900120613307409C3E529940A4002D272
:1011F9007512060478023074027800C3E55C9840E1
:10120900F0C2AF120628120628120628D2AF12061B
:1012190018754A007888E6B4030241F91206047881
:101229008CE6C3940150030212F9E530C3940150CE
:10123900030212F9207435C3E55C94FF50030212CE
:10124900F9C2AF12063DD2AF120613C3E55C940191
:1012590050EFC2AF120628120609120628D2AF12A1
:101269000613C3E55C94FF40E90217C67F05D27FE8
:101279001115120613C2AFC27F1115AE5CC3E55C2E
:10128900947FD2AF40741205FFC2AF12063DD2AFB0
:10129900DFDC114CC3EE94057897F6120618121686
:1012A9006A1217497F0AD27F1115120613C2AFC2FB
:1012B9007F1115AE5CC3E55C947FD2AF50E6120591
:1012C900FFC2AF120628120609120628D2AFDFD6CE
:1012D900114CEE24057896F612061812166A1217A2
:1012E900781206131115C3E55C94FF40F40217C682
:1012F900C3E55C954A4003855C4A12061378017977
:1013090088E7B403027805C3E55C984002411DC231
:10131900AF12063D12063D12063DD2AF12061875F0
:101329003000E4F531F5320531E531F47039053233
:10133900789AE67819146012783214600D787D1461
:10134900600878FA146003753200C3E532984017D3
:1013590015327531B478998673C2AF12063DD2AF92
:1013690078988673120613120609E52A70053074F7
:1013790002211B78012074027806C3E55C9840A716
:101389007888E6C394036003120613E52A70030202
:10139900111BC2AF120F13E4F522F523F524F5252D
:1013A900F526F567D2AF7885E6C333F565E4F542EE
:1013B900F543F544F545F546F570F52CF52DF5366B
:1013C90075700875BB101205FF1208BDE5E820EC21
:1013D900FBA8BDA9BEE97001F888711208C1757032
:1013E9000875BB107887E6FE7602120F917887EEB2
:1013F900F6C2AF7561FF12093985226185226285BE
:101409002263D2AF75220175240175250175260164
:10141900856069756A0175B69075A903757A017851
:1014290088E6B40307C27D307602D27DD268D269DC
:10143900753300120E79120E9E120960120960129C
:101449000959120960120ABD120959120B800214B6
:1014590067C2AF120F91D2AF75700075BB09120B3D
:0D146900D5120CDA120CBB120708120CF79A
:10147600120D41120960120AAC120ABD120B80123B
:101486000BC4120CDA120CBB306D0312070920676D
:101496000312085C3067031208A3120CF7120D66DC
:1014A600120960120AAC120ABD120B80120BD51279
:1014B6000CDA120CBB306D03120745120CF7120D35
:1014C600DD120960120AAC120ABD120B80120BC49F
:1014D600120CDA120CBB306D031207A3120CF712B2
:1014E6000E02120960120AAC120ABD120B80120B10
:1014F600D5120CDA120CBB306D03120800120CF771
:10150600120E79120960120AAC120ABD120B801271
:1015160008BD120BC4120CDA120CBB120CF7120E19
:101526009E1208C1120960120AAC120ABD120B8083
:10153600306932206B2F85646185646285606975C8
:101546006A0179187A0CC3E53399400CC269D26AEC
:101556008A347561FF02156BC3E55C940140030292
:1015660014670215E5306A1B206B18E53414700405
:10157600C26A815AF534C3E55C94014003021467DC
:101586000215E5C3E55F7882985054307404E52A65
:10159600604D7888E6B40317207D05207607A1B54F
:1015A600307602A1B5206B07D26B85646181D37852
:1015B600F0306B058564617820C3E53E9850028162
:1015C60067306B1BC26BC27D307602D27DD26A75E4
:1015D600341285646181670535E55C6002A1E875B2
:1015E6003500C2AF120F137887E6FE7602120F910E
:1015F6007887EEF6E4F522F523F524F525F526F5AC
:1016060065C26875B68075A900757A00D2AF1205F5
:10161600FF120F13307409C3E53594054002211BF0
:10162600612B901A0D78201216ACE520B45A0CA343
:101636001216ACE520B4A50302164A120F2812169C
:101646006A021669901A0378807B0A1216ACA30800
:10165600DBF9901A0F788C7B181216ACA308DBF90D
:10166600901A2722C2AF1216EB1216C5901A0074F2
:101676000E1216B1A374031216B1A374141216B186
:10168600901A0378807B0A1216B0A308DBF9901A29
:101696000F788C7B181216B0A308DBF91216FE120F
:1016A60016DC901A2722E493F622E6438F01538F25
:1016B600FD75EF0275B7A575B7F1F0538FFE22439E
:1016C6008F02438F0175EF0275B7A575B7F1901AB2
:1016D6000DF0538FFC22901A0D745AD1B1901A0E48
:1016E60074A5D1B1227A3079D07820901A40D1AC45
:1016F600E520F709A3DAF7227A3079D0901A40E785
:10170600D1B109A3DAF922AB74A875BB01027984B9
:10171600BB02027985BB03027986BB04027992BBC0
:1017260005027987BB060279A3BB0702799CBB0831
:10173600027988BB09027989E8F7227C0512061826
:10174600DCFB22C2AF12062812062F12063612063C
:101756003D12060912062812062F12063612063DFB
:1017660012060912062812062F12063612063DD256
:10177600AF22C2AF12063D12063612062F120628F7
:1017860012060912063D12063612062F12062812F6
:10179600060912063D12063612062F120628D2AF89
:1017A60022AE74AF75C2AF1206281206281206289A
:1017B600120609DEF212063D120609DFF8D2AF2242
:1017C600F149F141F141757401757501757600F1C4
:1017D600A77C05AD5C120618C3ED955C70F5C3E5F4
:1017E6005C9401400AC3E55C94FF4034021803F19F
:1017F6000DD16AF149C2AF75EF12121741DCD4055B
:1018060076C3E5769403500280C51217410575E547
:10181600741490009F93F808C3E57598500280AC45
:101826001217411217410574C3E574940A500280D9
:0F18360098120F2812166AC2AF75EF12121741DF
:0319FD000210775E
:101A00000E0314FFFFFFFF0304090301015AA501A0
:101A1000FFFFFFFFFF03FFFFFF25D0FAFA04FF01DE
:081A2000007AFF01010003FF41
:101A40002358526F746F723430412320202020209D
:101A500023424C48454C492346333930232020202B
:101A60002020202020202020202020202020202076
:101C0000C2AFC2D353D9BF7581C043B20343FF8073
:101C1000752438752503B1C975EF0275E24043F1AB
:101C20002053A4DF75D400D2857DFA780379E67C51
:101C300010752200752300901DD67B0675249875BB
:101C400025013085028142208508D8FBD9F9DCF7CF
:101C500081B4308508D8FBD9F9DCF781B4B189E4C7
:101C600093A3C39A6004DDC381B4DBDBB17B600264
:101C7000812B7B08E493FAA3B15CDBF87A30B15C8A
:101C8000752200752300B17BEAFCEBFDC3ED94FEE9
:101C9000400EB17B8A278B28ED30E0048A828B834B
:101CA000B17B7AC270D8C3ED94FE601350CEBD00F4
:101CB00025EC60097520007521FF0200008100A855
:101CC00027A9280809D804D90281D3B17FEA89AAB3
:101CD000F281C50D81A0C3ED94035049EDA2E092BD
:101CE000007AC5C3E5829400E583941C50902000DF
:101CF00010438F02438F0175B7A575B7F1F030001F
:101D00001FA827A9280809438F01538FFDD804D99C
:101D100002A12089AAE275B7A575B7F1F0A3A10DBC
:101D2000538FFC817C7AC1BD030CE493A3FAB140CC
:101D3000DCF8B138817C817EAA22AB23B15CEBFA5E
:101D4000EA6222752608C3E52313F523E52213F57D
:101D50002250066323A0632201D526EAB1C9B1C986
:101D600075260AEAF4200102D285300102C285B14B
:101D7000C9C3134002C201D526EB22B17FEAFB2082
:101D80008502A17F308502A184752608AE24AF2587
:101D9000C3EF13FFEE13FEB1CDB1C9C3EA13308513
:101DA000024480FA30E703632201C3E52313F523DD
:101DB000E52213F52250066323A0632201D526D91C
:101DC000E52265236523F52222AE24AF250E0FDE22
:101DD000FEDFFCD20122424C48656C693437316326
:041DE000F390060175
:00000001FF
