:030000000219FDE5
:03000B000200B53B
:03002B000201AD22
:03005B000203613C
:030073000203473E
:1000800002030406080C10182030406080040608A3
:100090000C10182030406080A0C000070F1F3F0DDB
:1000A0000D0403060D0503030202C0F075F02BA436
:1000B000E5F0D0F022C2AF306308C26385798AD2FE
:1000C000AF32C0D0C0E0E52511AAF57CE52611AA23
:1000D000F57D206227E57C6002E473E57CF4C333A0
:1000E0004009758A00D263F57901EDF58A758B00B8
:1000F000758D00D262D0E0D0D0D2AF32C3E57D336F
:100100004009758A00D263F579210DF58AC262E54E
:100110007DF46038306803207213758B00758D0094
:10012000D0E0D0D0C293C297C294D2AF32C293C2B1
:1001300097C294206E09740CD5E0FDE57B42907562
:100140008B00758D00D0E0D0D0D2AF32758A00D24E
:1001500063757900C28DD262213F01DB30680520D2
:100160006602D29301DB306805206602D29401DB7F
:10017000306805206602D29701DBC29230680A20FF
:100180006607740CD5E0FDD29301DBC29530680A96
:10019000206607740CD5E0FDD29401DBC29630686E
:1001A0000A206607740CD5E0FDD29701DBC2AFC20E
:1001B000AD53E6EFC0D0C0E0D2D3D2AFE57A60094C
:1001C000E57760057577004152757701C2CEE52A63
:1001D0006007207449152A411E7800790020742E8A
:1001E000E580307E01F430E50278FF53DACF207EDF
:1001F0000343DA20307E0343DA10C2D8C271E580AF
:10020000307E01F430E50279FFC3E89970CB3061AC
:1002100003752A40207403752A40885CD2702074CC
:100220000DE52B6004152B412E43DA01C2D8207056
:10023000024141A85C206102C270207402413F88E3
:10024000227882B60403852224C3E5259440400227
:10025000D26420CF0AD0E0D0D043E610D2AD32E550
:100260007A6009E5786005757800613D757801C2AE
:10027000CF7802E52A6005307402152AC3E55C9444
:10028000014005755F004199756000756900E55F83
:100290002401F55F5003755FFF7982B7020D306D61
:1002A0001DC3E52294324016854A227982B7030E97
:1002B000306D0BC3E52294324004798E8722C3E56A
:1002C00023952260084004152341CD0523D8CA0593
:1002D00069E56970021569D56A63756A017805C3B5
:1002E000E569956B4057C3E569956C5008780175D1
:1002F0006A03020301C3E569956D50057801756ACB
:1003000001C3E5629524401E7982B7040261322060
:100310006D14852462E569046003856B69756A0163
:1003200075233C02033DE5622850057562FF61328A
:10033000F562E5620470067560FF7569FFD0E0D074
:10034000D043E610D2AD32C2AFC0D053E67FC26018
:10035000759100855394855495759104D0D0D2AF92
:1003600032C2AF53E6EFC2ADC0D0C0E0C0F0D2D3CE
:10037000D2AFA8FBA9FCE57A6007C3E913F9E8133B
:10038000F8C2D830710261D353DACF207E0343DA4A
:1003900010307E0343DA20D271E580307E01F420F4
:1003A000E50261AA88278928A1B253DACF207E030B
:1003B00043DA20307E0343DA10C2D8C271307402AF
:1003C000A19E7800E580307E01F430E502A19E8890
:1003D0005CA18653DACF207E0343DA20307E0343CC
:1003E000DA10C27120610281AC53DACF207E034360
:1003F000DA10307E0343DA20C2D8D2718857895888
:10040000C3E89555F8E99556F97B007E087A00C354
:10041000E8948CE994005005755B00819E882178F2
:10042000A2E6A8216055C3E894C8E994005008E406
:10043000D2E4FB7A0A8179C3E89468E99401500810
:10044000E4D2E3FB7A0F8179C3E894D0E9940250B7
:1004500008E4D2E2FB7A1E8179C3E894A0E994050E
:100460005008E4D2E1FB7A3C8179C3E89498E9949E
:0F047000085008E4D2E0FB7A787E00C3E8955983
:10047F00FCE9955AFD30E70AECF42401FCEDF43465
:10048F0000FD755B00C3EC9AED9E5003755B018810
:10049F0059895A8557558558567802A186C3E895CC
:1004AF0027F8E99528F9307C02A16A307B02A16A0E
:1004BF00307A02A16320750281CFE9FDE8FC81EE5D
:1004CF00E9C313F9E813F8307902A163E9C313F90B
:1004DF00E813F8307802A163E9C313FDE813FC2099
:1004EF006126C3EC941CED94024002A105ED701837
:1004FF00C3EC94C850120529C3E529940A5002A1F0
:10050F009E755C00D270A19EE529600215297400CA
:10051F00207F037896E624FAFEE43400FFC3EC9EB6
:10052F00FCED9FFD500678007900A16AC3EC94FFA3
:10053F00ED9400400678FF7900A16AEC8572F0A473
:10054F00C5F0A2F733F87900400302058678FF79EA
:10055F0000020586E9C313F9E813F8307C0EE96051
:10056F000278FFC3E81338F8E43400F9C3E894FFC6
:10057F00E99400400278FF885CD270206102A19E4E
:10058F00741FF4552F4BF52FC274EB7002D2747594
:10059F002A40307403752A0A306102A1B220740315
:1005AF0053DAFE207403752B20D0F0D0E0D0D0D2D8
:1005BF00AD43E6103279010205E279030205E279D3
:1005CF000A0205E2791E0205E279640205E279C8A2
:1005DF000205E27817E4D5E0FDD8FAD9F6227A14AD
:1005EF007B780206097A107B8C0206097A0D7BB4A0
:1005FF000206097A0B7BC80206097902B27DE4C2B2
:10060F0095D5E0FDD294D5E0FDC294D5E0FDD2950D
:10061F00D5E0FDD293E573D5E0FDC2937496D5E096
:10062F00FDD9D9EAF8D5E0FDD8FBDBCEC29522C3C0
:10063F007C007D0075F00005F0EA33FAEB33FB50D8
:10064F00F6EB13FBEA13FAC3E9FFE8FEE89AF8E9C1
:10065F009BF95004EFF9EEF8B3EC33FCED33FDD515
:10066F00F0DFEDF9ECF822E889F08A20D2D4F8A96E
:10067F00F07B0030F70B7BFFF42401F8E9F4340032
:10068F00F9E88520F0A4ADF0F8E98520F0A4AFF0EB
:10069F00FEED2EF974003FFA7C04C3EA13FAE91356
:1006AF00F9E813F8DCF48BF030F70AE8F42401F8DA
:1006BF00E9F43400F9E889F0C2D4F8A9F02278827D
:1006CF00B6040302076CC3E55C9419401EE52D5474
:1006DF00067018206D3678057994E7146007780A4C
:1006EF001460027812C3E53E98401F306D0985648F
:1006FF00627569FF756A01852224E4F542F543F5B9
:10070F0044F545F546C26D02076CD26D7994E71436
:10071F007013E523F43333F913F8E9540104F9E8BE
:10072F0054FE020760E714147014E523F4333333D7
:10073F00F913F8E9540304F9E854FC020768E523B8
:10074F00F433333333F913F8E954070404F9E85455
:10075F00F8C39440F8E99400F98842894322C3E52D
:10076F003E13F9E53D13F8C3E54298F8E54399F9CF
:10077F00500CC3E89480E994FF40160207A4C3E825
:10078F00947FE9940050030207A4787F7900020751
:10079F00A4788079FF8847894822E5472544F8E502
:1007AF00483545F9854820E4300701F43546FA30DD
:1007BF00E709C3EA94F040150207E2C3EA940F5029
:1007CF00030207E278FF79FF7A0F0207E2780079D8
:1007DF00007AF0C3E5249561500AC3740195245043
:1007EF000B020800E54820E70E020800E54830E755
:1007FF0006884489458A462278A4E6FAC3E547333A
:10080F00F8E54833F9120676E930E70BC3E8948030
:10081F00E994FF4013013BC3E8947FE99400500231
:10082F00013B787F7900013B788079FFE820E7155D
:10083F00C3E52398F84009C3E89401400302086216
:10084F007801020862E8F424012523F84003020826
:10085F006278FF88492278A5E6FAA845A9461206CC
:0E086F0076E930E70CC3E89401E994FF4016E7
:10087D00020897C3E894FFE99400500302089778A3
:10088D00FF7900020897780179FFE920E715C3E5A4
:10089D004998F84009C3E8940140030208BE780165
:1008AD000208BEE8F424012549F840030208BE7889
:1008BD00FF88242278FFC26420693D206A12D26429
:1008CD00C3E53E940A4009C3E52594405002C26435
:1008DD0079A1E76023E53E601F74FF853EF08485B6
:1008ED0038F0306A0375F005A4F8C5F0600278FFA2
:1008FD00C3E895645002A864886322C3E53D94C89B
:10090D00E53E9400E5635003142119046002F5637C
:10091D00227883E6F520120FB075E8901205C475A4
:10092D00E890E5E820ECFBA8BDA9BE12104A756E53
:10093D0000756F00C3740013FD7400606613FC74C2
:10094D00002CFC74003DFDECFAEDFBC3E89AE99B2D
:10095D004014E56E2400F56EE56F3400F56FEA2C5A
:10096D00FAEB3DFB80E5AE6EAF6FC3E56F13F9E5B6
:10097D006E13F8C3E913F9E813F87A03C3E913F911
:10098D00E813F8DAF7AA201A7009756E00756F0072
:10099D000209B01AEA6008EE28FEEF39FFDAF88E88
:1009AD006E8F6F2275E890227883E6FFE5E820ECE4
:1009BD00F7A8BDA9BE0570C3E570940840527570C7
:1009CD0000E9FA79A0E76044EA7007E571601B025F
:1009DD0009EBC3E895716010E5715006600C1402C7
:1009ED0009F70460F90209F7E571F571C3947240D6
:1009FD001B7561C0C394044013756180C39404409A
:100A0D000B756140C39404400375610075BB0922E9
:100A1D00EFC39401601F7400601BC3E894FFE99459
:100A2D00035012C3E8956EE9956F5009E561600CAE
:100A3D001561020A49E561F460020561A861C3E52B
:100A4D0024985002A824C3E89562400AA862E56282
:100A5D00F4600385626188258826E570B407037507
:100A6D00BB1022743279A687F0A4C5F0A2F733F833
:100A7D00C3E895614002A8618822882488258826CC
:100A8D00886422753D00753EF02275C820A8CCA95A
:100A9D00CD75C824C3E913F9E813F8AA39AB3A8820
:100AAD0039893AC3E89AF8E99B547FF930670261B6
:100ABD0096306933AC3BAD3C8A3B8B3CC3EB9D54CC
:100ACD007FFBC3E99BF53FA839A93AC3E89CF8E938
:100ADD009D547FF9C3E53E13FBE53D13FAE82AF576
:100AED003DE93BF53E613EAA3DAB3EAC3DAD3E7EA4
:100AFD00047F02C3EB940440021E1FC3EB94084015
:100B0D00021E1FC3ED13FDEC13FCDEF7C3EA9CFAC6
:100B1D00EB9DFBEF6009C3E913F9E813F8DFF7EA82
:100B2D0028FAEB39FB8A3D8B3E50067BFF8B3D8BC4
:100B3D003EC3EB94025002D2673069047F036169B2
:100B4D007892E6FFC3E536948240110FC3E53694E3
:100B5D00A040010FC3EF940640027F057E01E53EE4
:100B6D00C4540FF9E53EC454F0F8E53DC4540F28C4
:100B7D00F8C3E89EFAE99400FB4009C3EA9402EB3E
:100B8D00940050047A02E4FB22AA3DAB3EEBC4FE76
:100B9D00EAC4540F4EFCC3EA9CFAEB9400FBC3E885
:100BAD0013C313F8EA28FAEB3400FB8A3D8B3EC3DE
:100BBD00EB94024002C2677801EBC4FE7B00EAC4ED
:100BCD00540F4EFAC3EA98FA4005C3940250027AC4
:100BDD00027892E6FF2230600261E3854F53855023
:100BED0054D26043E68022C3E49AF8E49BF9C3E84B
:100BFD0033F8E933F93067028183E8FAE9FBD3E989
:100C0D0013FDE813FC884F8950C3EF94036037EF51
:100C1D0020E00DE82CF8E93DF9ECFAEDFB020C4073
:100C2D00E828F8E939F9C3E82402F8E93400F97A3B
:100C3D00FE7BFFC3EF9403400D8A518B52884B8985
:100C4D004C8C4D8D4E22885189528A4B8B4C8C4D3C
:100C5D008D4E306920C3E53394034019E53FA2E77B
:0D0C6D0013F8E552F4240138400B20E7088D
:100C7A007551FFF42401F55222E8FAD3E813FC88EF
:100C8A004FC3EF9403601FEF20E007E82CF8ECFA5B
:100C9A0081A3E8282402F87AFEC3EF940340078A66
:100CAA0051884B8C4D2288518A4B8C4D22E568C362
:100CBA00335002646BF56830600281C1D26043E64A
:100CCA0080E52D54066029A83DA93EC3E913F9E839
:100CDA0013F8C3E833F8E933F953E67F759100C393
:100CEA00E498F594E499F595759104D26043E68009
:100CFA0022D265754100752000306B0375204002D1
:100D0A000D1AD265754100752040306B03752000BD
:100D1A00D2AF7801206722E52D54066002C265C36E
:100D2A00E53E94054013780294054008780394053B
:100D3A0040027806306902780A206009E5416005B8
:100D4A00D2AFD26C22D2AF0000C2AF20672AE53EF2
:100D5A00C3FB940F40027B0FEB2405307301233051
:100D6A006A02742820620123F93069027982E58DCA
:100D7A0013E58B13C39940C10541E59BF45440B573
:100D8A002002A1DB30691408C3E8940A4002A11AC0
:100D9A00C3E53394065002A11AA143206502A11AA1
:100DAA00C26553E67F75910030671075940075959A
:100DBA00FC759104D26043E680A11AAE3DAF3EC3F2
:100DCA00EE33FEEF33FFC3E49EF594E49FF595A15D
:100DDA00BBC3E53394025002A11A306502A11AD8A6
:100DEA0002A1EFA143C26C22E52D54066008206AD5
:100DFA00020533020E10306C0D206B0A20650715B0
:100E0A008115810216F02253E67F7591008551946F
:100E1A00855295759104854B53854C54D26043E6AF
:100E2A0080D2AF2278003064053065027801E53659
:100E3A0075F007A4F9E5F028F5F0E9A2F013A2F19C
:100E4A0013A2F213F536C394785003753678C3E5C6
:100E5A003695374008D266C293C297C29430600270
:100E6A00C167854D53854E54D26043E68022207D6A
:100E7A0011C2AF754002C295D292D2AF759F80025D
:100E8A001047C2AF754002C295D296D2AF759F8005
:100E9A00021047307243207D20C2AF754003900193
:100EAA008B757B20C297C296306204D294C1BBD2A2
:100EBA0095D2AF759F89021047C2AF754003900162
:100ECA008B757B20C293C292306204D294C1DBD26A
:100EDA0095D2AF759F81021047207D17C2AF75402A
:100EEA0003900166C297306202D294D2AF759F898D
:100EFA00021047C2AF754003900166C29330620286
:100F0A00D294D2AF759F81021047207D11C2AF756E
:100F1A004004C292D296D2AF759F81021047C2AFE7
:100F2A00754004C296D292D2AF759F89021047309B
:100F3A007243207D20C2AF75400590017A757B040B
:100F4A00C294C295306204D293E157D292D2AF755D
:100F5A009F80021047C2AF75400590019C757B4087
:100F6A00C294C295306204D297E177D296D2AF7515
:100F7A009F80021047207D17C2AF75400590015C23
:100F8A00C294306202D293D2AF759F80021047C2D8
:100F9A00AF754005900170C2943062EBD297D2AF20
:100FAA00759F80021047207D11C2AF754006C29618
:100FBA00D295D2AF759F89021047C2AF754006C25B
:100FCA0092D295D2AF759F81021047307242207D2E
:100FDA0020C2AF75400190019C757B40C293C292BA
:100FEA00306204D297E1F3D296D2AF759F81021094
:100FFA0047C2AF75400190017A757B04C297C296C9
:10100A00306204D2930113D292D2AF759F890147FD
:10101A00207D16C2AF754001900170C29330620202
:10102A00D297D2AF759F810147C2AF754001900137
:10103A005CC297306202D293D2AF759F89C2662290
:10104A0090015A757B00C293C297C294C292C2960B
:10105A00C295C26222788076070876070876010868
:0F106A0076040876FF0876FF08760908760208F4
:101079007601087601788C76010876000876B4083E
:1010890076FF0876FF0876FF0876030876FF08766C
:10109900010876FF0876250876D00876780876C89C
:1010A9000876040876FF08760108760008767A083B
:1010B900760A0876010876010876000876FF227814
:1010C90087E6FFC272BF0302D2727888C27DE6301A
:1010D900E102D27DC27E7889E630E102D27EC3EF99
:1010E90094026008758E01D2730210FA758E00C2DF
:1010F90073227880E6149000809378A4F67881E6CC
:10110900149000809378A5F67886E61490008D9364
:1011190078A6F6789FE6F8700108C3E894114002B2
:101129007811E82828F56B256B256B28F56C256B5C
:101139002828F56D789CE67537FF75380CB40206DA
:101149007537A075380AB40306753782753805787E
:10115900A3E61490009A93F566114A22227896E63E
:10116900FA7897E6FB7888E6B40305C3EB940EFB9F
:10117900307F047A007BFFC3EB9AFCC39482500250
:101189007C827572000572EC8572F0A4C3E5F09457
:101199007D40F222D27F31661205D37A007B007C32
:1011A900101205C9E55C2AFA74003BFBDCF37C04E8
:1011B900C3EB13FBEA13FADCF7FEC27F316622E5C3
:1011C900EF20E6037520000520903FFFE52014601D
:1011D90006901FFF1460009304600375EF1253D942
:1011E900BF7581C043FF801205C475EF0243B20386
:1011F900E5B3240420E70DF521E5E320E006852188
:10120900B343E301114A7580FF75A40075F1F075C8
:10121900D4DF75900275A5FC75F2FD75D50275A62A
:101229001075A0FF75F3F175E241E4F8F6D8FD7584
:101239006801115F12173F78988673753001C2AF44
:101249001205DD1205ED1205D31205F41205D312AC
:1012590005FB1205D31218641205DD1205DD12050E
:10126900D8C2AF78FA79FA308507D9FBD8F7021CCA
:101279000011C811FB3165316678988673114A757A
:10128900B68075A900757A0075885075891275C878
:101299002475910475D84075A82275B80275E69031
:1012A900759B80759D0075D10E75BC5875BB097508
:1012B900BA1175E8801205C4D2AF12091E53DACFEC
:1012C900207E0343DA20307E0343DA1043DA01C279
:1012D900D8C2711205DDD2617B037A0CE55B700718
:1012E9007A0CDB0302126A1205D320700302126A18
:1012F900C270E55CC3940240E1E52F541F855E5D31
:10130900F55EB55DD5DAD5C26153DACF207E0343E8
:10131900DA20307E0343DA10C2D8C27178A2E670AF
:1013290008D274E52F54E0F52FC27575290012050E
:10133900D8307409C3E529940A4002D2751205C947
:1013490078023074027800C3E55C9840F0C2AF12AD
:1013590005ED1205ED1205EDD2AF1205DD754A0056
:101369001205C9788CE6C39401500302143DE53097
:10137900C39401500302143D207435C3E55C94FF06
:10138900500302143DC2AF120602D2AF1205D8C3F0
:10139900E55C940150EFC2AF1205ED1205CE1205BE
:1013A900EDD2AF1205D8C3E55C94FF40E90218E914
:1013B9007F05D27F31661205D8C2AFC27F3166AED2
:1013C9005CC3E55C947FD2AF40741205C4C2AF120E
:1013D9000602D2AFDFDC319DC3EE94057897F61291
:1013E90005DD12178012186C7F0AD27F316612054B
:1013F900D8C2AFC27F3166AE5CC3E55C947FD2AF21
:1014090050E61205C4C2AF1205ED1205CE1205ED64
:10141900D2AFDFD6319DEE24057896F61205DD129E
:10142900178012189B1205D83166C3E55C94FF40FA
:10143900F40218E9C3E55C954A4003855C4A120544
:10144900D878017988E7B403027805C3E55C984048
:10145900026169C2AF120602120602120602D2AF77
:0F1469001205DD753000E4F531F5320531E5315E
:10147800F470390532789AE67819146012783214C3
:10148800600D787D14600878FA146003753200C323
:10149800E53298401715327531B478998673C2AF22
:1014A800120602D2AF789886731205D81205CEE5D7
:1014B8002A7005307402416A78012074027806C3E4
:1014C800E55C9840A71205D8E52A700302126AC2A3
:1014D800AF114AE4F522F523F524F525F526F5673D
:1014E800D2AF7885E6C333F565E4F542F543F544B4
:1014F800F545F546F570F52CF52DF536757008753A
:10150800BB101205C41209B1E5E820ECFBA8BDA97F
:10151800BEE97001F888711209B575700875BB10BD
:101528007887E6FE760211C87887EEF6C2AF756155
:10153800FF120A70852261852262852263D2AF7507
:101548002201752401752501752601856069756A72
:101558000175B69075A903757A017888E6B4030712
:10156800C27D307602D27DD268D269753300120FFF
:10157800B0120FD5120A97120A97120A90120A97F8
:10158800120BF4120A90120CB70215A0C2AF11C8C0
:10159800D2AF75700075BB09120D0C120E11120D29
:1015A800F21206CD120E2E120E78120A97120BE3C3
:1015B800120BF4120CB7120CFB120E11120DF230B2
:1015C8006D0312076D2067031208C1306703120903
:1015D80008120E2E120E9D120A97120BE3120BF42C
:1015E800120CB7120D0C120E11120DF2306D0312FF
:1015F80007A9120E2E120F14120A97120BE3120BE0
:10160800F4120CB7120CFB120E11120DF2306D030E
:10161800120807120E2E120F39120A97120BE31234
:101628000BF4120CB7120D0C120E11120DF2306DD4
:1016380003120865120E2E120FB0120A97120BE34E
:10164800120BF4120CB71209B1120CFB120E111284
:101658000DF2120E2E120FD51209B5120A97120B9F
:10166800E3120BF4120CB730692F206B2C856461E0
:10167800856462856069756A0179187A0CC3E533F7
:10168800994009C269D26A8A340216A1C3E55C94FA
:101698000140030215A00216F8306A1B206B18E5FA
:1016A80034147004C26AA194F534C3E55C94014013
:1016B800030215A00216F8C3E55F9401400985648A
:1016C80062856069756A01C3E55F78FA98502130D0
:1016D8007404E52A601A78F0306B05856461782017
:1016E800C3E53E985002A1A00535E55C6002C1FB48
:1016F800753500C2AF114A7887E6FE760211C878C0
:1017080087EEF6E4F522F523F524F525F526F565AB
:10171800C26875B68075A900757A00D2AF1205C483
:10172800114A307406E52A7002416A788DE6C3943E
:101738000140026146816F901A0D78201217C2E5A8
:1017480020B4A50CA31217C2E520B45A03021760EF
:10175800115F12178002177F901A0378807B0A1294
:1017680017C2A308DBF9901A0F788C7B181217C2DE
:10177800A308DBF9901A2722C2AF1218021217DB4E
:10178800901A00740E1217C7A374031217C7A37414
:10179800141217C7901A0378807B0A1217C6A30879
:1017A800DBF9901A0F788C7B181217C6A308DBF99F
:1017B8001218161217F2901A2722E493F622E6431B
:1017C8008F01538FFD75EF0275B7A575B7F1F0530B
:1017D8008FFE22438F02438F0175EF0275B7A575FF
:1017E800B7F1901A0DF0538FFC22901A0D74A5F1E1
:1017F800C7901A0E745A1217C7227A3079D07820F7
:10180800901A401217C2E520F709A3DAF6227A30B7
:1018180079D0901A40E71217C709A3DAF822AB74F7
:10182800A875BB01027980BB02027981BB030279EA
:1018380082BB04027994BB05027983BB06027986D0
:10184800BB07027992BB08027987BB0902799CBB66
:101858000A027988BB0B027989E8F7227C05120510
:0F186800DDDCFB22C2AF1205ED1205F41205FB09
:101877001206021205CE1205ED1205F41205FB122F
:1018870006021205CE1205ED1205F41205FB12062B
:1018970002D2AF22C2AF1206021205FB1205F412E2
:1018A70005ED1205CE1206021205FB1205F412050C
:1018B700ED1205CE1206021205FB1205F41205ED14
:1018C700D2AF22AE74AF75C2AF1205ED1205ED129D
:1018D70005ED1205CEDEF21206021205CEDFF8D2B2
:1018E700AF22116C116411647574017575017576F9
:1018F7000011CA7C05AD5C1205DDC3ED955C70F582
:10190700C3E55C9401400AC3E55C94FF40330219C8
:10191700261126121780116CC2AF75EF121164DC05
:10192700D40576C3E5769403500280C51164057526
:10193700E5741490009F93F808C3E57598500280EA
:10194700AD116411640574C3E574940C5002809B57
:0D19570012105F121780C2AF75EF121164FD
:0319FD000211C80C
:101A00000E031407070104FFFF09020101A55A0193
:101A100000B4FFFFFF03FF01FF25D078C804FF01DA
:081A200000FF0A010100FFFFB5
:101A40002358526F746F723430412320202020209D
:101A500023424C48454C492346333930232020202B
:101A60002020202020202020202020202020202076
:101C0000C2AFC2D353D9BF7581C043B20343FF8073
:101C1000752438752503B1C975EF0275E24043F1AB
:101C20002053A4DF75D400D2857DFA780379E67C51
:101C300010752200752300901DD67B0675249875BB
:101C400025013085028142208508D8FBD9F9DCF7CF
:101C500081B4308508D8FBD9F9DCF781B4B189E4C7
:101C600093A3C39A6004DDC381B4DBDBB17B600264
:101C7000812B7B08E493FAA3B15CDBF87A30B15C8A
:101C8000752200752300B17BEAFCEBFDC3ED94FEE9
:101C9000400EB17B8A278B28ED30E0048A828B834B
:101CA000B17B7AC270D8C3ED94FE601350CEBD00F4
:101CB00025EC60097520007521FF0200008100A855
:101CC00027A9280809D804D90281D3B17FEA89AAB3
:101CD000F281C50D81A0C3ED94035049EDA2E092BD
:101CE000007AC5C3E5829400E583941C50902000DF
:101CF00010438F02438F0175B7A575B7F1F030001F
:101D00001FA827A9280809438F01538FFDD804D99C
:101D100002A12089AAE275B7A575B7F1F0A3A10DBC
:101D2000538FFC817C7AC1BD030CE493A3FAB140CC
:101D3000DCF8B138817C817EAA22AB23B15CEBFA5E
:101D4000EA6222752608C3E52313F523E52213F57D
:101D50002250066323A0632201D526EAB1C9B1C986
:101D600075260AEAF4200102D285300102C285B14B
:101D7000C9C3134002C201D526EB22B17FEAFB2082
:101D80008502A17F308502A184752608AE24AF2587
:101D9000C3EF13FFEE13FEB1CDB1C9C3EA13308513
:101DA000024480FA30E703632201C3E52313F523DD
:101DB000E52213F52250066323A0632201D526D91C
:101DC000E52265236523F52222AE24AF250E0FDE22
:101DD000FEDFFCD20122424C48656C693437316326
:041DE000F390060175
:00000001FF
