:030000000219FDE5
:03000B000200CF21
:03002B000201C708
:03005B0002037627
:0300730002035C29
:1000800002030406080C10182030406080040608A3
:100090000C10182030406080A0C000070F1F3F0DDB
:1000A0000D04050D050305030302C0F0C394994038
:1000B0001375F08EA433C5F033C5F033C5F0332487
:1000C0001DD0F022249975F02BA4E5F0D0F022C2C7
:1000D000AF306308C26385798AD2AF32C0D0C0E046
:1000E000E52511AAF57CE52611AAF57D206227E514
:1000F0007C6002E473E57CF4C3334009758A00D266
:1001000063F5792107F58A758B00758D00D262D071
:10011000E0D0D0D2AF32C3E57D334009758A00D23A
:1001200063F5792127F58AC262E57DF4603830688D
:1001300003207213758B00758D00D0E0D0D0C29370
:10014000C297C294D2AF32C293C297C294206E09B2
:10015000740CD5E0FDE57B4290758B00758D00D069
:10016000E0D0D0D2AF32758A00D263757900C28DEB
:10017000D262215901F5306805206602D29301F55B
:10018000306805206602D29401F5306805206602C9
:10019000D29701F5C29230680A206607740CD5E048
:1001A000FDD29301F5C29530680A206607740CD51C
:1001B000E0FDD29401F5C29630680A206607740CFF
:1001C000D5E0FDD29701F5C2AFC2AD53E6EFC0D086
:1001D000C0E0D2D3D2AFE57A6009E57760057577E4
:1001E00000610B757701C2CEE52A600720744915BE
:1001F0002A41387800790020742EE580307E01F4A1
:1002000030E50278FF53DACF207E0343DA20307ED8
:100210000343DA10C2D8C271E580307E01F430E5C4
:100220000279FFC3E89970CB306103752A182074F6
:1002300003752A18885CD27020740DE52B600415B4
:100240002B414843DA01C2D820700241A4A85C20A7
:100250006102C2702074367982B70431C3E894F029
:10026000400374F0F8E8C4540F28F87984B7030207
:10027000418DC313C3138721200802C313200A062C
:10028000C3C898F8418D28F8500374FFF88822E518
:100290002D5406600FE533C313C3132522F52250F6
:1002A000037522FF7882B60459852224A824C3E569
:1002B0002495614002A861C3E895634002A8638861
:1002C00025E566700241F5C3E8AA669A5003E8FA8C
:1002D000E4F9EAC333FBE568F45B29400D2567F8D0
:1002E000E56760021567400B41F50AC3E5679A5060
:1002F00002056778FF8826C26EC3E52694F840029F
:10030000D26EC3E52594404002D26420CF0AD0E0EB
:10031000D0D043E610D2AD32E57A6009E5786005C9
:100320007578006152757801C2CF7801E52A6005C1
:10033000307402152AC3E55C94014005755F0061C5
:1003400052756000756900E55F2401F55F50037523
:100350005FFFD0E0D0D043E610D2AD32C2AFC0D004
:1003600053E67FC2607591008553948554957591CD
:1003700004D0D0D2AF32C2AF53E6EFC2ADC0D0C0CE
:10038000E0C0F0D2D3D2AFA8FBA9FCE57A6007C3E6
:10039000E913F9E813F8C2D830710261E853DACFF3
:1003A000207E0343DA10307E0343DA20D271E580E9
:1003B000307E01F420E50261BF88278928C10F53F0
:1003C000DACF207E0343DA20307E0343DA10C2D82E
:1003D000C271307402A1FB7800E580307E01F430F8
:1003E000E502A1FB885CA1E353DACF207E0343DA68
:1003F00020307E0343DA10C27120610281C153DADA
:10040000CF207E0343DA10307E0343DA20C2D8D2F5
:100410007188578958C3E89555F8E99556F97B00D6
:100420007E087A00C3E8948CE994005005755B005F
:1004300081B3882178A2E6A8216055C3E894C8E971
:1004400094005008E4D2E4FB7A0A818EC3E89468F1
:10045000E994015008E4D2E3FB7A0F818EC3E8945B
:10046000D0E994025008E4D2E2FB7A1E818EC3E800
:0F04700094A0E994055008E4D2E1FB7A3C818E18
:10047F00C3E89498E994085008E4D2E0FB7A787EB8
:10048F0000C3E89559FCE9955AFD30E70AECF424CE
:10049F0001FCEDF43400FD755B00C3EC9AED9E504A
:1004AF0003755B018859895A8557558558567802C7
:1004BF00A1E3C3E89527F8E99528F9307C02A1C795
:1004CF00307B02A1C7307A02A1C020750281E4E916
:1004DF00FDE8FCA103E9C313F9E813F8307902A191
:1004EF00C0E9C313F9E813F8307802A1C0E9C313C8
:1004FF00FDE813FC206126C3EC941CED940240022E
:10050F00A11AED7018C3EC94C850120529C3E52940
:10051F00940A5002A1FB755C00D270A1FBE5296023
:10052F000215297888E6F97400207F087896B903B8
:10053F0002789EE624FAFEE43400FFC3EC9EFCED45
:10054F009FFD9208B90310A2085007207609D276B2
:10055F00A166307602C276A2085016B9030DECF4EC
:10056F002401FCEDF43400FD02058078007900A130
:10057F00C7B90315EC33FCED33FDC3EC940AFCED66
:10058F009400FD50047C007D00C3EC94FFED9400BB
:10059F00400678FF7900A1C7EC8572F0A4C5F0A2E0
:1005AF00F733F8790040030205E378FF790002057D
:1005BF00E3E9C313F9E813F8307C0EE9600278FF22
:1005CF00C3E81338F8E43400F9C3E894FFE9940062
:1005DF00400278FF885CD270206102A1FB741FF487
:1005EF00552F4BF52FC274EB7002D274752A183049
:1005FF007403752A0A306102C10F20740353DAFEA7
:10060F00207403752B06D0F0D0E0D0D0D2AD43E6E6
:10061F001032790102063F790302063F790A02067A
:10062F003F791E02063F796402063F79C802063FF2
:10063F007817E4D5E0FDD8FAD9F6227A147B780240
:10064F0006667A107B8C0206667A0D7BB40206660C
:10065F007A0B7BC80206667902B27DE4C295D5E0BB
:10066F00FDD294D5E0FDC294D5E0FDD295D5E0FD45
:10067F00D293E573D5E0FDC2937496D5E0FDD9D939
:10068F00EAF8D5E0FDD8FBDBCEC29522C37C007D16
:10069F000075F00005F0EA33FAEB33FB50F6EB137D
:1006AF00FBEA13FAC3E9FFE8FEE89AF8E99BF95071
:1006BF0004EFF9EEF8B3EC33FCED33FDD5F0DFEDDD
:1006CF00F9ECF822E889F08A20D2D4F8A9F07B005F
:1006DF0030F70B7BFFF42401F8E9F43400F9E885D7
:1006EF0020F0A4ADF0F8E98520F0A4AFF0FEED2ED8
:1006FF00F974003FFA7C04C3EA13FAE913F9E8131B
:10070F00F8DCF48BF030F70AE8F42401F8E9F4345C
:10071F0000F9E889F0C2D4F8A9F0227882B6040370
:10072F00020785C3E55C9401400302074F8522242D
:10073F00E4F542F543F544F545F546C26D020785EC
:10074F007882E6FCD26DE522F523783879C7AA3D89
:10075F00AB3EC3EB13FBEA13FAEC146013C3EB13BA
:10076F00FBEA13FAEC14146007C3EB13FBEA13FA5A
:10077F00D19B8842894322C3E5429523F8E54394F0
:10078F0000F9500CC3E89480E994FF40160207B6B5
:10079F00C3E8947FE9940050030207B6787F79008D
:1007AF000207B6788079FF8847894822E5472544B4
:1007BF00F8E5483545F9854820E4300701F435461A
:1007CF00FA30E709C3EA94F040150207F4C3EA943C
:1007DF000F50030207F478FF79FF7A0F0207F478BE
:1007EF000079007AF0C3E5249561500AC37401952E
:1007FF0024500B020812E54820E70E020812E548C4
:10080F0030E706884489458A462278A4E6FAC3E58C
:10081F004733F8E54833F91206D3E930E70BC3E85D
:10082F009480E994FF4013014DC3E8947FE994004D
:10083F005002014D787F7900014D788079FFE820D3
:10084F00E715C3E52398F84009C3E8940140030274
:10085F0008747801020874E8F424012523F8400392
:0E086F0002087478FF88492278A5E6FAA845A9
:10087D00A9461206D3E930E70CC3E89401E994FFC9
:10088D0040160208A9C3E894FFE99400500302083A
:10089D00A978FF79000208A9780179FFE920E71509
:1008AD00C3E54998F84009C3E8940140030208D014
:1008BD0078010208D0E8F424012549F84003020824
:1008CD00D078FF88242278FFC26420693D206A1207
:1008DD00D264C3E53E940A4009C3E5259440500215
:1008ED00C26479A1E76023E53E601F74FF853EF089
:1008FD00848538F0306A0375F005A4F8C5F0600200
:10090D0078FFC3E895645002A864886322C3E53D6F
:10091D0094C8E53E9400E563500314212B04600256
:10092D00F563220209332275E890227883E6FFE50C
:10093D00E820ECF7A8BDA9BE0570C3E5709408408A
:10094D0052757000E9FA79A0E76044EA7007E57125
:10095D00601B02096EC3E895716010E57150066069
:10096D000C1402097A0460F902097AE571F571C374
:10097D009472401B7561C0C394044013756180C3AC
:10098D009404400B756140C3940440037561007578
:10099D00BB0922E5612410500274FFF5617982B71D
:1009AD00040221C7C3A861E524985002A824C3E816
:1009BD0095634002A86388258826E570B407037502
:1009CD00BB1022743279A687F0A4C5F0A2F733F8D4
:1009DD00C3E895614002A86188228824882588266D
:1009ED00886422753D00753EF02275C820A8CCA9FB
:1009FD00CD75C824C3E913F9E813F8AA39AB3A88C1
:100A0D0039893AC3E89AF8E99B547FF93067024176
:100A1D00F6306933AC3BAD3C8A3B8B3CC3EB9D540C
:100A2D007FFBC3E99BF53FA839A93AC3E89CF8E9D8
:100A3D009D547FF9C3E53E13FBE53D13FAE82AF516
:100A4D003DE93BF53E419EAA3DAB3EAC3DAD3E7E04
:100A5D00047F02C3EB940440021E1FC3EB940840B5
:100A6D00021E1FC3ED13FDEC13FCDEF7C3EA9CFA67
:100A7D00EB9DFBEF6009C3E913F9E813F8DFF7EA23
:100A8D0028FAEB39FB8A3D8B3E50067BFF8B3D8B65
:100A9D003EC3EB94025002D2673069047F0341C913
:100AAD007892E6FFC3E536948240110FC3E5369484
:100ABD00A040010FC3EF940640027F057E01E53E85
:100ACD00C4540FF9E53EC454F0F8E53DC4540F2865
:100ADD00F8C3E89EFAE99400FB4009C3EA9402EBDF
:100AED00940050047A02E4FB22AA3DAB3EEBC4FE17
:100AFD00EAC4540F4EFCC3EA9CFAEB9400FBC3E826
:100B0D0013C313F8EA28FAEB3400FB8A3D8B3EC37E
:100B1D00EB94024002C2677801EBC4FE7B00EAC48D
:100B2D00540F4EFAC3EA98FA4005C3940250027A64
:100B3D00027892E6FF223060026143854F53855063
:100B4D0054D26043E68022C3E49AF8E49BF9C3E8EB
:100B5D0033F8E933F930670261E3E8FAE9FBD3E9E9
:100B6D0013FDE813FC884F8950C3EF94036037EFF2
:100B7D0020E00DE82CF8E93DF9ECFAEDFB020BA0B5
:100B8D00E828F8E939F9C3E82402F8E93400F97ADC
:100B9D00FE7BFFC3EF9403400D8A518B52884B8926
:100BAD004C8C4D8D4E22885189528A4B8B4C8C4DDD
:100BBD008D4E306920C3E53394034019E53FA2E71C
:100BCD0013F8E552F4240138400B20E7087551FF66
:100BDD00F42401F55222E8FAD3E813FC884FC3EF51
:100BED009403601FEF20E007E82CF8ECFA8103E88E
:100BFD00282402F87AFEC3EF940340078A51884BEC
:100C0D008C4D2288518A4B8C4D22E568C33350029E
:100C1D00646BF5683060028121D26043E680E52D7A
:100C2D0054066029A83DA93EC3E913F9E813F8C39A
:100C3D00E833F8E933F953E67F759100C3E498F58D
:100C4D0094E499F595759104D26043E68022D265BE
:100C5D00754100752000306B03752040020C7AD26F
:0F0C6D0065754100752040306B03752000D2AFD4
:100C7C007801206722E52D54066002C265C3E53E6B
:100C8C0094054013780294054008780394054002BB
:100C9C007806306902780A206009E5416005D2AF18
:100CAC00D26C22D2AF0000C2AF20672AE53EC3FB54
:100CBC00940F40027B0FEB240530730123306A0242
:100CCC00742820620123F93069027982E58D13E5DD
:100CDC008B13C39940C10541E59BF45440B52002E8
:100CEC00A13B30691408C3E8940A4002817AC3E539
:100CFC003394065002817A81A3206502817AC26501
:100D0C0053E67F7591003067107594007595FC75EE
:100D1C009104D26043E680817AAE3DAF3EC3EE33A0
:100D2C00FEEF33FFC3E49EF594E49FF595A11BC33E
:100D3C00E53394025002817A306502817AD802A19F
:100D4C004F81A3C26C22E52D54066008206A02056F
:100D5C0033020D70306C0D206B0A20650715811560
:100D6C00810216672253E67F759100855194855256
:100D7C0095759104854B53854C54D26043E680D2D3
:100D8C00AF2278003064053065027801E53675F0E5
:100D9C0007A4F9E5F028F5F0E9A2F013A2F113A2EB
:100DAC00F213F536C394785003753678C3E536954F
:100DBC00374008D266C293C297C294306002A1C772
:100DCC00854D53854E54D26043E68022207D11C25E
:100DDC00AF754002C295D292D2AF759F80020FA719
:100DEC00C2AF754002C295D296D2AF759F80020FEA
:100DFC00A7307243207D20C2AF7540039001A575CA
:100E0C007B20C297C296306204D294C11BD295D279
:100E1C00AF759F89020FA7C2AF7540039001A575EE
:100E2C007B20C293C292306204D294C13BD295D241
:100E3C00AF759F81020FA7207D17C2AF754003903D
:100E4C000180C297306202D294D2AF759F89020F93
:100E5C00A7C2AF754003900180C293306202D29456
:100E6C00D2AF759F81020FA7207D11C2AF754004D0
:100E7C00C292D296D2AF759F81020FA7C2AF7540B6
:100E8C0004C296D292D2AF759F89020FA7307243DB
:100E9C00207D20C2AF754005900194757B04C294EF
:100EAC00C295306204D293C1B7D292D2AF759F80F3
:100EBC00020FA7C2AF7540059001B6757B40C29476
:100ECC00C295306204D297C1D7D296D2AF759F80AB
:100EDC00020FA7207D17C2AF754005900176C29412
:100EEC00306202D293D2AF759F80020FA7C2AF754A
:100EFC00400590018AC2943062EBD297D2AF759FB5
:100F0C0080020FA7207D11C2AF754006C296D29504
:100F1C00D2AF759F89020FA7C2AF754006C292D29D
:100F2C0095D2AF759F81020FA7307242207D20C2EF
:100F3C00AF7540019001B6757B40C293C29230628E
:100F4C0004D297E153D296D2AF759F81020FA7C2FC
:100F5C00AF754001900194757B04C297C2963062C4
:100F6C0004D293E173D292D2AF759F89E1A7207D11
:100F7C0016C2AF75400190018AC293306202D297BB
:100F8C00D2AF759F81E1A7C2AF754001900176C2C7
:100F9C0097306202D293D2AF759F89C266229001BC
:100FAC0074757B00C293C297C294C292C296C295CA
:100FBC00C26222788076090876090876040876FFE2
:100FCC000876030876FF087609087601087601088A
:100FDC007601788C76010876FF0876FF0876FF0894
:100FEC0076FF0876FF0876030876FF0876FF08760A
:100FFC00FF0876250876D0087628087650087604FF
:10100C000876FF08760208760008767A0876FF08DC
:10101C007601087601087600087603227887E6FFC9
:10102C00C272BF0302D2727888E6C394036008C20E
:10103C007DE630E102D27DC27E7889E630E102D2D3
:10104C007EC3EF94026008758E01D2730210607536
:10105C008E00C273227880E6149000809378A4F6F8
:0F106C007881E6149000809378A5F67886E614D4
:10107B0090008D9378A6F6789CE67537FF75380C43
:10108B00B402067537A075380AB403067537827536
:10109B00380578A3E61490009A93F566120FAA22EE
:1010AB00227896E6FA7897E6FB7888E6B40305C3D0
:1010BB00EB940EFB307F047A007BFFC3EB9AFCC3EF
:1010CB00948250027C827572000572EC8572F0A4DA
:1010DB00C3E5F0947D40F222D27F11AC1206307A38
:1010EB00007B007C10120626E55C2AFA74003BFBA1
:1010FB00DCF37C04C3EB13FBEA13FADCF7FEC27FD1
:10110B0011AC22E5EF20E6037520000520903FFF90
:10111B00E520146006901FFF1460009304600375B4
:10112B00EF1253D9BF7581C043FF8012062175EFB3
:10113B000243B203E5B3240420E70DF521E5E320D8
:10114B00E0068521B343E301120FAA7580FF75A456
:10115B000075F1F075D4DF75900275A5FC75F2FD85
:10116B0075D50275A61075A0FF75F3F175E241E414
:10117B00F8F6D8FD756801120FBF1216B178988674
:10118B0073753001C2AF12063A12064A12063012BC
:10119B000651120630120658120630C2AF78FA7991
:1011AB00FA308507D9FBD8F7021C00112811611101
:1011BB00AB11AC78988673120FAA75B68075A9001F
:1011CB00757A0075885075891275C82475910475E8
:1011DB00D84075A82275B80275E690759B80759DF1
:1011EB000075D10E75BC5875BB0975BA1175E880C1
:1011FB00120621D2AF12093053DACF207E0343DA25
:10120B0020307E0343DA1043DA01C2D8C2711206D2
:10121B003AD2617B037A0CE55B70077A0CDB030235
:10122B0011A61206302070030211A6C270E55CC332
:10123B00940240E1E52F541F855E5DF55EB55DD5EB
:10124B00DAD5C26153DACF207E0343DA20307E0336
:10125B0043DA10C2D8C27178A2E67008D274E52FB7
:10126B0054E0F52FC275752900120635307409C389
:10127B00E529940A4002D2751206267802307402D0
:10128B007800C3E55C9840F0C2AF12064A12064ADA
:10129B0012064AD2AF12063A754A007888E6B403B2
:1012AB00026182120626788CE6C394015003021366
:1012BB0082E530C394015003021382207435C3E5D9
:1012CB005C94FF5003021382C2AF12065FD2AF12BF
:1012DB000635C3E55C940150EFC2AF12064A120605
:1012EB002B12064AD2AF120635C3E55C94FF40E9D8
:1012FB000218597F02D27F11AC120635C2AFC27FE2
:10130B0011ACAE5CC3E55C947FD2AF407412062186
:10131B00C2AF12065FD2AFDFDC11E3C3EE940578E8
:10132B0097F612063A1216F31217DC7F0AD27F11C8
:10133B00AC120635C2AFC27F11ACAE5CC3E55C9498
:10134B007FD2AF50E6120621C2AF12064A12062B0D
:10135B0012064AD2AFDFD611E3EE24057896F612C9
:10136B00063A1216F312180B12063511ACC3E55CD4
:10137B0094FF40F4021859C3E55C954A4003855C21
:10138B004A12063578017988E7B403027805C3E57C
:10139B005C98400241A6C2AF12065F12065F1206AE
:1013AB005FD2AF12063A753000E4F531F5320531F4
:1013BB00E531F470390532789AE6781914601278B1
:1013CB003214600D787D14600878FA14600375325E
:1013DB0000C3E53298401715327531B4789986738E
:1013EB00C2AF12065FD2AF7898867312063512061B
:1013FB002BE52A700530740221A67801207402783F
:10140B0006C3E55C9840A77888E6C3940360031293
:10141B000635E52A70030211A6C2AF120FAAE4F536
:10142B0022F523F524F525F526F567D2AF7885E669
:10143B00C333F565E4F542F543F544F545F546F55B
:10144B0070F52CF52DF53675700875BB101206214D
:10145B00120934E5E820ECFBA8BDA9BEE97001F840
:0F146B00887112093875700875BB107887E6FE16
:10147A00760211287887EEF6C2AF7561FF1209D09D
:10148A00852261852262852263D2AF752201752485
:10149A0001752501752601856069756A0175B69021
:1014AA0075A903757A017888E6B40307C27D307698
:1014BA0002D27DD268D269753300120F10120F352D
:1014CA001209F71209F71209F01209F7120B54124E
:1014DA0009F0120C170214EEC2AF1128D2AF7570C0
:1014EA000075BB09120C6C120D71120D5212072AEB
:1014FA00120D8E120DD81209F7120B43120B541249
:10150A000C17120C5B120D71120D52306D0312077B
:10151A00862067031208D330670312091A120D8E48
:10152A00120DFD1209F7120B43120B54120C17126B
:10153A000C6C120D71120D52306D031207BB120D95
:10154A008E120E741209F7120B43120B54120C1757
:10155A00120C5B120D71120D52306D031208191222
:10156A000D8E120E991209F7120B43120B54120C1C
:10157A0017120C6C120D71120D52306D031208778E
:10158A00120D8E120F101209F7120B43120B54127E
:10159A000C17120934120C5B120D71120D52120D36
:1015AA008E120F351209381209F7120B43120B5417
:1015BA00120C17306935206B328564618564628547
:1015CA006069756A0179187A0CC3E53399400FC2CC
:1015DA0069D26A8A348564618564630215F5C3E554
:1015EA005C940140030214EE02166F306A1B206BF2
:1015FA0018E534147004C26A81E2F534C3E55C94D8
:10160A000140030214EE02166FC3E55F78FA9850A0
:10161A0054307404E52A604D7888E6B40317207DB7
:10162A0005207607C13F307602C13F206B07D26B97
:10163A00856461A15A78F0306B058564617820C3AE
:10164A00E53E98500281EE306B1BC26BC27D30764C
:10165A0002D27DD26A75341285646181EE0535E560
:10166A005C6002C172753500C2AF120FAA7887E6B4
:10167A00FE760211287887EEF6E4F522F523F524A2
:10168A00F525F526F565C26875B68075A900757ADF
:10169A0000D2AF120621120FAA307409C3E535949D
:1016AA0005400221A661B4901A0D7820121735E57B
:1016BA0020B4550CA3121735E520B4AA030216D399
:1016CA00120FBF1216F30216F2901A0378807B0AE1
:1016DA00121735A308DBF9901A0F788C7B181217AA
:1016EA0035A308DBF9901A2722C2AF121774121712
:1016FA004E901A00740E12173AA3740312173AA3E3
:10170A00741412173A901A0378807B0A121739A3B5
:10171A0008DBF9901A0F788C7B18121739A308DBAB
:10172A00F9121787121765901A2722E493F622E610
:10173A00438F01538FFD75EF0275B7A575B7F1F0A9
:10174A00538FFE22438F02438F0175EF0275B7A5AF
:10175A0075B7F1901A0DF0538FFC22901A0D74553B
:10176A00F13A901A0E74AAF13A227A3079D0782096
:10177A00901A40F135E520F709A3DAF7227A307991
:10178A00D0901A40E7F13A09A3DAF922AB74A875A6
:10179A00BB01027980BB02027981BB03027982BB59
:1017AA0004027984BB05027986BB06027992BB07DB
:1017BA00027987BB080279A3BB0902799CBB0A029A
:1017CA007988BB0B027989E8F7227C0512063ADC94
:1017DA00FB22C2AF12064A12065112065812065FBF
:1017EA0012062B12064A12065112065812065F12E8
:1017FA00062B12064A12065112065812065FD2AF7B
:10180A0022C2AF12065F12065812065112064A1277
:10181A00062B12065F12065812065112064A1206C3
:10182A002B12065F12065812065112064AD2AF222E
:10183A00AE74AF75C2AF12064A12064A12064A12AF
:10184A00062BDEF212065F12062BDFF8D2AF221247
:10185A0017DC1217D41217D47574017575017576D1
:0E186A0000113A7C05AD5C12063AC3ED955CA8
:1018780070F5C3E55C9401400AC3E55C94FF40370A
:1018880002189C1217961216F31217DCC2AF75EFE6
:10189800121217D4DCD10576C3E576940350028082
:1018A800C21217D40575E5741490009F93F808C305
:1018B800E57598500280A91217D41217D40574C37D
:1018C800E574940C50028095120FBF1216F3C2AF44
:0618D80075EF121217D497
:0319FD0002110EC6
:101A00000E0314090904FF03FF0901010155AA018E
:101A1000FFFFFFFFFF03FFFFFF25D0285004FF0259
:081A2000007AFF01010003FF41
:101A40002358526F746F723430412320202020209D
:101A500023424C48454C492346333930232020202B
:101A60002020202020202020202020202020202076
:101C0000C2AFC2D353D9BF7581C043B20343FF8073
:101C1000752438752503B1C975EF0275E24043F1AB
:101C20002053A4DF75D400D2857DFA780379E67C51
:101C300010752200752300901DD67B0675249875BB
:101C400025013085028142208508D8FBD9F9DCF7CF
:101C500081B4308508D8FBD9F9DCF781B4B189E4C7
:101C600093A3C39A6004DDC381B4DBDBB17B600264
:101C7000812B7B08E493FAA3B15CDBF87A30B15C8A
:101C8000752200752300B17BEAFCEBFDC3ED94FEE9
:101C9000400EB17B8A278B28ED30E0048A828B834B
:101CA000B17B7AC270D8C3ED94FE601350CEBD00F4
:101CB00025EC60097520007521FF0200008100A855
:101CC00027A9280809D804D90281D3B17FEA89AAB3
:101CD000F281C50D81A0C3ED94035049EDA2E092BD
:101CE000007AC5C3E5829400E583941C50902000DF
:101CF00010438F02438F0175B7A575B7F1F030001F
:101D00001FA827A9280809438F01538FFDD804D99C
:101D100002A12089AAE275B7A575B7F1F0A3A10DBC
:101D2000538FFC817C7AC1BD030CE493A3FAB140CC
:101D3000DCF8B138817C817EAA22AB23B15CEBFA5E
:101D4000EA6222752608C3E52313F523E52213F57D
:101D50002250066323A0632201D526EAB1C9B1C986
:101D600075260AEAF4200102D285300102C285B14B
:101D7000C9C3134002C201D526EB22B17FEAFB2082
:101D80008502A17F308502A184752608AE24AF2587
:101D9000C3EF13FFEE13FEB1CDB1C9C3EA13308513
:101DA000024480FA30E703632201C3E52313F523DD
:101DB000E52213F52250066323A0632201D526D91C
:101DC000E52265236523F52222AE24AF250E0FDE22
:101DD000FEDFFCD20122424C48656C693437316326
:041DE000F390060175
:00000001FF
