:030000000219FDE5
:03000B000200CD23
:03002B000201C50A
:03005B0002036B32
:0300730002035134
:1000800002030406080C10182030406080040608A3
:100090000C10182030406080A0C000070F1F3F05E3
:1000A000050D050305030302C0F0C39499401375C1
:1000B000F08EA433C5F033C5F033C5F033241DD022
:1000C000F022249975F02BA4E5F0D0F022C2AF30D5
:1000D0006308C26385798AD2AF32C0D0C0E0E5251B
:1000E00011A8F57CE52611A8F57D206227E57C6046
:1000F00002E473E57CF4C3334009758A00D263F5EA
:10010000792105F58A758B00758D00D262D0E0D01B
:10011000D0D2AF32C3E57D334009758A00D263F592
:10012000792125F58AC262E57DF4603830680320C4
:100130007213758B00758D00D0E0D0D0C293C2973A
:10014000C294D2AF32C293C297C294206E09740C8B
:10015000D5E0FDE57B4290758B00758D00D0E0D039
:10016000D0D2AF32758A00D263757900C28DD26267
:10017000215701F3306805206602D29301F33068FD
:1001800005206602D29401F3306805206602D297FA
:1001900001F3C29230680A206607740CD5E0FDD2E4
:1001A0009301F3C29530680A206607740CD5E0FD10
:1001B000D29401F3C29630680A206607740CD5E029
:1001C000FDD29701F3C2AFC2AD53E6EFC0D0C0E09D
:1001D000D2D3D2AFE57A6009E57760057577006123
:1001E00000757701C2CEE52A6007207449152A41BF
:1001F000367800790020742EE580307E01F430E5F9
:100200000278FF53DACF207E0343DA20307E0343A7
:10021000DA10C2D8C271E580307E01F430E502798F
:10022000FFC3E89970CB306103752A1820740375F9
:100230002A18885CD27020740DE52B6004152B41C0
:100240004643DA01C2D820700241A6A85C206102B0
:10025000C270207431C3E894F0400374F0F8E8C42D
:10026000540F28F87984B703024186C313C3138758
:1002700021200802C313200A06C3C898F841862823
:10028000F8500374FFF8C3E895655003E565F888F6
:1002900022E52D5406600FE533C313C3132522F561
:1002A0002250037522FF852224A824C3E5249561EA
:1002B0004002A8618825E566700241EAC3E8AA66A3
:1002C0009A5003E8FAE4F9EAC333FBE568F45B29E2
:1002D000400D2567F8E56760021567400B41EA0AA3
:1002E000C3E5679A5002056778FF8826C26EC3E5AA
:1002F0002694F84002D26EC3E52594404002D264B1
:1003000020CF0AD0E0D0D043E610D2AD32E57A60FB
:1003100009E57860057578006147757801C2CF7886
:1003200001E52A6005307402152AC3E55C9401409A
:1003300005755F006147756000756900E55F240120
:10034000F55F5003755FFFD0E0D0D043E610D2AD2B
:1003500032C2AFC0D053E67FC2607591008553941E
:10036000855495759104D0D0D2AF32C2AF53E6EF29
:10037000C2ADC0D0C0E0C0F0D2D3D2AFA8FBA9FCC0
:10038000E57A6007C3E913F9E813F8C2D8307102BF
:1003900061DD53DACF207E0343DA10307E0343DA87
:1003A00020D271E580307E01F420E50261B4882717
:1003B0008928C10453DACF207E0343DA20307E033C
:1003C00043DA10C2D8C271307402A1F07800E5801F
:1003D000307E01F430E502A1F0885CA1D853DACF79
:1003E000207E0343DA20307E0343DA10C27120619D
:1003F0000281B653DACF207E0343DA10307E034306
:10040000DA20C2D8D27188578958C3E89555F8E9DF
:100410009556F97B007E087A00C3E8948CE9940035
:100420005005755B0081A8882178A2E6A821605557
:10043000C3E894C8E994005008E4D2E4FB7A0A8146
:1004400083C3E89468E994015008E4D2E3FB7A0F8F
:100450008183C3E894D0E994025008E4D2E2FB7AA5
:100460001E8183C3E894A0E994055008E4D2E1FB1F
:0E0470007A3C8183C3E89498E994085008E42C
:10047E00D2E0FB7A787E00C3E89559FCE9955AFDE7
:10048E0030E70AECF42401FCEDF43400FD755B005A
:10049E00C3EC9AED9E5003755B018859895A8557B6
:1004AE00558558567802A1D8C3E89527F8E99528BE
:1004BE00F9307C02A1BC307B02A1BC307A02A1B51E
:1004CE0020750281D9E9FDE8FC81F8E9C313F9E84A
:1004DE0013F8307902A1B5E9C313F9E813F83078AF
:1004EE0002A1B5E9C313FDE813FC206126C3EC9409
:1004FE001CED94024002A10FED7018C3EC94C8508D
:10050E00120529C3E529940A5002A1F0755C00D2A8
:10051E0070A1F0E529600215297888E6F9740020AB
:10052E007F087896B90302789EE624FAFEE434003A
:10053E00FFC3EC9EFCED9FFD9208B90310A208507C
:10054E0007207609D276A15B307602C276A20850D9
:10055E0016B9030DECF42401FCEDF43400FD020594
:10056E007578007900A1BCB90315EC33FCED33FDB1
:10057E00C3EC940AFCED9400FD50047C007D00C396
:10058E00EC94FFED9400400678FF7900A1BCEC8559
:10059E0072F0A4C5F0A2F733F8790040030205D833
:1005AE0078FF79000205D8E9C313F9E813F8307C17
:1005BE000EE9600278FFC3E81338F8E43400F9C39B
:1005CE00E894FFE99400400278FF885CD2702061C5
:1005DE0002A1F0741FF4552F4BF52FC274EB70026D
:1005EE00D274752A18307403752A0A306102C10458
:1005FE0020740353DAFE207403752B06D0F0D0E07E
:10060E00D0D0D2AD43E6103279010206347903021E
:10061E000634790A020634791E020634796402061B
:10062E003479C80206347817E4D5E0FDD8FAD9F645
:10063E00227A147B7802065B7A107B8C02065B7A38
:10064E000D7BB402065B7A0B7BC802065B7902B2A5
:10065E007DE4C295D5E0FDD294D5E0FDC294D5E0FF
:10066E00FDD295D5E0FDD293E573D5E0FDC293742E
:10067E0096D5E0FDD9D9EAF8D5E0FDD8FBDBCEC2A0
:10068E009522C37C007D0075F00005F0EA33FAEB8D
:10069E0033FB50F6EB13FBEA13FAC3E9FFE8FEE86F
:1006AE009AF8E99BF95004EFF9EEF8B3EC33FCED50
:1006BE0033FDD5F0DFEDF9ECF822E889F08A20D28F
:1006CE00D4F8A9F07B0030F70B7BFFF42401F8E996
:1006DE00F43400F9E88520F0A4ADF0F8E98520F0B7
:1006EE00A4AFF0FEED2EF974003FFA7C04C3EA13BA
:1006FE00FAE913F9E813F8DCF48BF030F70AE8F4B2
:10070E002401F8E9F43400F9E889F0C2D4F8A9F02C
:10071E002222C3E53E13F9E53D13F8C3E54298F8EE
:10072E00E54399F9500CC3E89480E994FF40160212
:10073E000757C3E8947FE994005003020757787F68
:10074E007900020757788079FF8847894822E54764
:10075E002544F8E5483545F9854820E4300701F48D
:10076E003546FA30E709C3EA94F04015020795C3FF
:10077E00EA940F500302079578FF79FF7A0F02076C
:10078E0095780079007AF0C3E5249561500AC37418
:10079E00019524500B0207B3E54820E70E0207B37C
:1007AE00E54830E706884489458A462278A4E6FA69
:1007BE00C3E54733F8E54833F9D1C8E930E70BC351
:1007CE00E89480E994FF4013E1EDC3E8947FE99447
:1007DE00005002E1ED787F7900E1ED788079FFE855
:1007EE0020E715C3E52398F84009C3E894014003B8
:1007FE000208147801020814E8F424012523F840B5
:10080E000302081478FF88492278A5E6FAA845A9BC
:10081E00461206C8E930E70CC3E89401E994FF409C
:10082E0016020849C3E894FFE994005003020849F0
:10083E0078FF7900020849780179FFE920E715C3AE
:10084E00E54998F84009C3E894014003020870781E
:10085E0001020870E8F424012549F84003020870EB
:0F086E0078FF88242278FFC26420693D206A1237
:10087D00D264C3E53E940A4009C3E5259440500275
:10088D00C26479A1E76023E53E601F74FF853EF0E9
:10089D00848538F0306A0375F005A4F8C5F0600260
:1008AD0078FFC3E895645002A864886322C3E53DD0
:1008BD0094C8E53E9400E56350031401CB04600237
:1008CD00F563220208D32275E890227883E6FFE5CE
:1008DD00E820ECF7A8BDA9BE0570C3E570940840EB
:1008ED0052757000E9FA79A0E76044EA7007E57186
:1008FD00601B02090EC3E895716010E5715006602A
:10090D000C1402091A0460F902091AE571F571C394
:10091D009472401B7561C0C394044013756180C30C
:10092D009404400B756140C39404400375610075D8
:10093D00BB0922E561F460020561E570B40703753A
:10094D00BB1022743279A687F0A4C5F0A2F733F854
:10095D00C3E895614002A8618822882488258826ED
:10096D00886422753D00753EF02275C820A8CCA97B
:10097D00CD75C824C3E913F9E813F8AA39AB3A8841
:10098D0039893AC3E89AF8E99B547FF930670241F7
:10099D0076306933AC3BAD3C8A3B8B3CC3EB9D540D
:1009AD007FFBC3E99BF53FA839A93AC3E89CF8E959
:1009BD009D547FF9C3E53E13FBE53D13FAE82AF597
:1009CD003DE93BF53E411EAA3DAB3EAC3DAD3E7E05
:1009DD00047F02C3EB940440021E1FC3EB94084036
:1009ED00021E1FC3ED13FDEC13FCDEF7C3EA9CFAE8
:1009FD00EB9DFBEF6009C3E913F9E813F8DFF7EAA4
:100A0D0028FAEB39FB8A3D8B3E50067BFF8B3D8BE5
:100A1D003EC3EB94025002D2673069047F03414913
:100A2D007892E6FFC3E536948240110FC3E5369404
:100A3D00A040010FC3EF940640027F057E01E53E05
:100A4D00C4540FF9E53EC454F0F8E53DC4540F28E5
:100A5D00F8C3E89EFAE99400FB4009C3EA9402EB5F
:100A6D00940050047A02E4FB22AA3DAB3EEBC4FE97
:100A7D00EAC4540F4EFCC3EA9CFAEB9400FBC3E8A6
:100A8D0013C313F8EA28FAEB3400FB8A3D8B3EC3FF
:100A9D00EB94024002C2677801EBC4FE7B00EAC40E
:100AAD00540F4EFAC3EA98FA4005C3940250027AE5
:100ABD00027892E6FF2230600241C3854F53855084
:100ACD0054D26043E68022C3E49AF8E49BF9C3E86C
:100ADD0033F8E933F93067026163E8FAE9FBD3E9EA
:100AED0013FDE813FC884F8950C3EF94036037EF73
:100AFD0020E00DE82CF8E93DF9ECFAEDFB020B20B6
:100B0D00E828F8E939F9C3E82402F8E93400F97A5C
:100B1D00FE7BFFC3EF9403400D8A518B52884B89A6
:100B2D004C8C4D8D4E22885189528A4B8B4C8C4D5D
:100B3D008D4E306920C3E53394034019E53FA2E79C
:100B4D0013F8E552F4240138400B20E7087551FFE6
:100B5D00F42401F55222E8FAD3E813FC884FC3EFD1
:100B6D009403601FEF20E007E82CF8ECFA6183E8AE
:100B7D00282402F87AFEC3EF940340078A51884B6C
:100B8D008C4D2288518A4B8C4D22E568C33350021F
:100B9D00646BF56830600261A1D26043E680E52D9B
:100BAD0054066029A83DA93EC3E913F9E813F8C31B
:100BBD00E833F8E933F953E67F759100C3E498F50E
:100BCD0094E499F595759104D26043E68022D2653F
:100BDD00754100752000306B03752040020BFAD271
:100BED0065754100752040306B03752000D2AF78DC
:100BFD0001206722E52D54066002C265C3E53E94CF
:100C0D000540137802940540087803940540027856
:100C1D0006306902780A206009E5416005D2AFD23D
:100C2D006C22D2AF0000C2AF20672AE53EC3FB9411
:100C3D000F40027B0FEB240530730123306A0274E1
:100C4D002820620123F93069027982E58D13E58B45
:100C5D0013C39940C10541E59BF45440B520028171
:0E0C6D00BB30691408C3E8940A400261FAC360
:100C7B00E5339406500261FA812320650261FAC2C2
:100C8B006553E67F7591003067107594007595FC80
:100C9B00759104D26043E68061FAAE3DAF3EC3EE80
:100CAB0033FEEF33FFC3E49EF594E49FF595819BF0
:100CBB00C3E5339402500261FA30650261FAD8023F
:100CCB0081CF8123C26C22E52D54066008206A0275
:100CDB000533020CF0306C0D206B0A206507158173
:100CEB0015810215F42253E67F7591008551948589
:100CFB005295759104854B53854C54D26043E680D5
:100D0B00D2AF2278003064053065027801E5367584
:100D1B00F007A4F9E5F028F5F0E9A2F013A2F1131E
:100D2B00A2F213F536C394785003753678C3E536C3
:100D3B0095374008D266C293C297C294306002A125
:100D4B0047854D53854E54D26043E68022207D115A
:100D5B00C2AF754002C295D292D2AF759F80020F7F
:100D6B0027C2AF754002C295D296D2AF759F800253
:100D7B000F27307243207D20C2AF7540039001A333
:100D8B00757B20C297C296306204D294A19BD295F8
:100D9B00D2AF759F89020F27C2AF7540039001A395
:100DAB00757B20C293C292306204D294A1BBD295C0
:100DBB00D2AF759F81020F27207D17C2AF754003FD
:100DCB0090017EC297306202D294D2AF759F890296
:100DDB000F27C2AF75400390017EC293306202D2DF
:100DEB0094D2AF759F81020F27207D11C2AF754042
:100DFB0004C292D296D2AF759F81020F27C2AF75F4
:100E0B004004C296D292D2AF759F89020F273072DF
:100E1B0043207D20C2AF754005900192757B04C2C3
:100E2B0094C295306204D293C137D292D2AF759FE0
:100E3B0080020F27C2AF7540059001B4757B40C28D
:100E4B0094C295306204D297C157D296D2AF759F98
:100E5B0080020F27207D17C2AF754005900174C229
:100E6B0094306202D293D2AF759F80020F27C2AF2C
:100E7B00754005900188C2943062EBD297D2AF7562
:100E8B009F80020F27207D11C2AF754006C296D2FC
:100E9B0095D2AF759F89020F27C2AF754006C292DC
:100EAB00D295D2AF759F81020F27307242207D20E1
:100EBB00C2AF7540019001B4757B40C293C29230B2
:100ECB006204D297C1D3D296D2AF759F81020F27FE
:100EDB00C2AF754001900192757B04C297C29630E8
:100EEB006204D293C1F3D292D2AF759F89E12720CE
:100EFB007D16C2AF754001900188C293306202D259
:100F0B0097D2AF759F81E127C2AF754001900174F5
:100F1B00C297306202D293D2AF759F89C26622907C
:100F2B000172757B00C293C297C294C292C296C2E1
:100F3B0095C26222788076FF0876FF0876FF0876E6
:100F4B00FF0876030876040876090876030876010D
:100F5B00087601788C76010876FF0876FF0876FF15
:100F6B000876FF0876FF0876030876FF0876FF08F9
:100F7B0076FF0876250876D00876FA0876FA087692
:100F8B00040876FF08760108760008767A0876FF63
:100F9B00087601087601087600087603227887E642
:100FAB00FFC272BF0302D2727888E6C39403600853
:100FBB00C27DE630E102D27DC27E7889E630E10265
:100FCB00D27EC3EF94026008758E01D273020FE0DC
:100FDB00758E00C273227880E6149000809378A4FB
:100FEB00F67881E6149000809378A5F67886E6145F
:100FFB0090008D9378A6F6789CE67537FF75380CC4
:10100B00B402067537A075380AB4030675378275B6
:10101B00380578A3E61490009A93F566120F2A22EE
:10102B00227896E6FA7897E6FB7888E6B40305C350
:10103B00EB940EFB307F047A007BFFC3EB9AFCC36F
:10104B00948250027C827572000572EC8572F0A45A
:10105B00C3E5F0947D40F222D27F112C1206257A43
:0F106B00007B007C1012061BE55C2AFA74003B28
:10107A00FBDCF37C04C3EB13FBEA13FADCF7FEC2D6
:10108A007F112C22E5EF20E6037520000520903F12
:10109A00FFE520146006901FFF14600093046003AC
:1010AA0075EF1253D9BF7581C043FF8012061675BA
:1010BA00EF0243B203E5B3240420E70DF521E5E38B
:1010CA0020E0068521B343E301120F2A7580FF75DC
:1010DA00A40075F1F075D4DF75900275A5FC75F260
:1010EA00FD75D50275A61075A0FF75F3F175E2417D
:1010FA00E4F8F6D8FD756801120F3F12163F78988A
:10110A008673753001C2AF12062F12063F120625EA
:10111A0012064612062512064D12062512175812F5
:10112A00062F12062F12062AC2AF78FA79FA3085EC
:10113A0007D9FBD8F7021C00120FA8120FE1112BD6
:10114A00112C78988673120F2A75B68075A90075C6
:10115A007A0075885075891275C82475910475D8F6
:10116A004075A82275B80275E690759B80759D003A
:10117A0075D10E75BC5875BB0975BA1175E8801220
:10118A000616D2AF1208D053DACF207E0343DA20F4
:10119A00307E0343DA1043DA01C2D8C27112062F35
:1011AA00D2617B037A0CE55B70077A0CDB030211D0
:1011BA0032120625207003021132C270E55CC39414
:1011CA000240E1E52F541F855E5DF55EB55DD5DA17
:1011DA00D5C26153DACF207E0343DA20307E03433F
:1011EA00DA10C2D8C27178A2E67008D274E52F5418
:1011FA00E0F52FC27575290012062A307409C3E575
:10120A0029940A4002D27512061B780230740278B9
:10121A0000C3E55C9840F0C2AF12063F12063F12C7
:10122A00063FD2AF12062F754A007888E6B4030249
:10123A00611012061B788CE6C39401500302131046
:10124A00E530C394015003021310207435C3E55CE2
:10125A0094FF5003021310C2AF120654D2AF120603
:10126A002AC3E55C940150EFC2AF12063F12062072
:10127A0012063FD2AF12062AC3E55C94FF40E90288
:10128A0017DD7F05D27F112C12062AC2AFC27F1149
:10129A002CAE5CC3E55C947FD2AF4074120616C2D2
:1012AA00AF120654D2AFDFDC1163C3EE9405789710
:1012BA00F612062F1216811217607F0AD27F112C9E
:1012CA0012062AC2AFC27F112CAE5CC3E55C947FC2
:1012DA00D2AF50E6120616C2AF12063F120620120D
:1012EA00063FD2AFDFD61163EE24057896F61206D2
:1012FA002F12168112178F12062A112CC3E55C943D
:10130A00FF40F40217DDC3E55C954A4003855C4A59
:10131A0012062A78017988E7B403027805C3E55CE6
:10132A009840024134C2AF120654120654120654AF
:10133A00D2AF12062F753000E4F531F5320531E5EA
:10134A0031F470390532789AE678191460127832D5
:10135A0014600D787D14600878FA14600375320001
:10136A00C3E53298401715327531B478998673C23D
:10137A00AF120654D2AF7898867312062A12062044
:10138A00E52A700530740221327801207402780649
:10139A00C3E55C9840A77888E6C394036003120605
:1013AA002AE52A7003021132C2AF120F2AE4F5228B
:1013BA00F523F524F525F526F567D2AF7885E6C33A
:1013CA0033F565E4F542F543F544F545F546F57020
:1013DA00F52CF52DF53675700875BB101206161228
:1013EA0008D4E5E820ECFBA8BDA9BEE97001F8889D
:1013FA00711208D875700875BB107887E6FE7602F8
:10140A00120FA87887EEF6C2AF7561FF12095085F0
:10141A002261852262852263D2AF75220175240179
:10142A00752501752601856069756A0175B690751D
:10143A00A903757A017888E6B40307C27D3076027B
:10144A00D27DD268D269753300120E90120EB5128F
:10145A000977120977120970120977120AD4120948
:0E146A0070120B9702147EC2AF120FA8D2AF01
:1014780075700075BB09120BEC120CF1120CD2122C
:10148800071F120D0E120D58120977120AC3120AFD
:10149800D4120B97120BDB120CF1120CD2306D0325
:1014A8001207202067031208733067031208BA1264
:1014B8000D0E120D7D120977120AC3120AD4120BEF
:1014C80097120BEC120CF1120CD2306D0312075C60
:1014D800120D0E120DF4120977120AC3120AD41251
:1014E8000B97120BDB120CF1120CD2306D031207A2
:1014F800BA120D0E120E19120977120AC3120AD463
:10150800120B97120BEC120CF1120CD2306D031265
:101518000817120D0E120E90120977120AC3120A3A
:10152800D4120B971208D4120BDB120CF1120CD246
:10153800120D0E120EB51208D8120977120AC3122C
:101548000AD4120B97306932206B2F856461856449
:1015580062856069756A0179187A0CC3E533994028
:101568000CC269D26A8A347561FF021582C3E55CD0
:101578009401400302147E0215FC306A1B206B188C
:10158800E534147004C26A8171F534C3E55C9401D2
:10159800400302147E0215FCC3E55F78829850541C
:1015A800307404E52A604D7888E6B40317207D0579
:1015B800207607A1CC307602A1CC206B07D26B85B0
:1015C800646181EA78F0306B058564617820C3E551
:1015D8003E985002817E306B1BC26BC27D30760212
:1015E800D27DD26A753412856461817E0535E55CE9
:1015F8006002A1FF753500C2AF120F2A7887E6FE98
:101608007602120FA87887EEF6E4F522F523F52482
:10161800F525F526F565C26875B68075A900757A51
:1016280000D2AF120616120F2A307409C3E535949A
:1016380005400221326142901A0D78201216C3E546
:1016480020B45A0CA31216C3E520B4A503021661F0
:10165800120F3F121681021680901A0378807B0AB7
:101668001216C3A308DBF9901A0F788C7B18121690
:10167800C3A308DBF9901A2722C2AF121702121669
:10168800DC901A00740E1216C8A374031216C8A3AD
:1016980074141216C8901A0378807B0A1216C7A30E
:1016A80008DBF9901A0F788C7B181216C7A308DB91
:1016B800F91217151216F3901A2722E493F622E668
:1016C800438F01538FFD75EF0275B7A575B7F1F01C
:1016D800538FFE22438F02438F0175EF0275B7A522
:1016E80075B7F1901A0DF0538FFC22901A0D745AA9
:1016F800D1C8901A0E74A5D1C8227A3079D0782032
:10170800901A40D1C3E520F709A3DAF7227A307995
:10171800D0901A40E7D1C809A3DAF922AB74A875AA
:10172800BB01027984BB02027985BB03027986BBBF
:1017380004027992BB05027987BB060279A3BB072D
:1017480002799CBB08027988BB09027989E8F722EB
:101758007C0512062FDCFB22C2AF12063F1206469A
:1017680012064D12065412062012063F12064612A1
:10177800064D12065412062012063F12064612069D
:101788004D120654D2AF22C2AF12065412064D12A1
:10179800064612063F12062012065412064D12067D
:1017A8004612063F12062012065412064D1206462D
:1017B80012063FD2AF22AE74AF75C2AF12063F1207
:1017C800063F12063F120620DEF2120654120620C9
:1017D800DFF8D2AF22F160F158F1587574017575D0
:1017E80001757600F1BE7C05AD5C12062FC3ED9540
:1017F8005C70F5C3E55C9401400AC3E55C94FF4066
:101808003702181D121724121681121760C2AF75FD
:10181800EF12121758DCD10576C3E576940350020F
:1018280080C21217580575E5741490009F93F80844
:10183800C3E57598500280A91217581217580574F5
:10184800C3E574940A50028095120F3F121681C2A4
:07185800AF75EF12121758E3
:0319FD0002108E47
:101A00000E0314FFFFFFFF0304090301015AA501A0
:101A1000FFFFFFFFFF03FFFFFF25D0FAFA04FF01DE
:081A2000007AFF01010003FF41
:101A40002358526F746F723430412320202020209D
:101A500023424C48454C492346333930232020202B
:101A60002020202020202020202020202020202076
:101C0000C2AFC2D353D9BF7581C043B20343FF8073
:101C1000752438752503B1C975EF0275E24043F1AB
:101C20002053A4DF75D400D2857DFA780379E67C51
:101C300010752200752300901DD67B0675249875BB
:101C400025013085028142208508D8FBD9F9DCF7CF
:101C500081B4308508D8FBD9F9DCF781B4B189E4C7
:101C600093A3C39A6004DDC381B4DBDBB17B600264
:101C7000812B7B08E493FAA3B15CDBF87A30B15C8A
:101C8000752200752300B17BEAFCEBFDC3ED94FEE9
:101C9000400EB17B8A278B28ED30E0048A828B834B
:101CA000B17B7AC270D8C3ED94FE601350CEBD00F4
:101CB00025EC60097520007521FF0200008100A855
:101CC00027A9280809D804D90281D3B17FEA89AAB3
:101CD000F281C50D81A0C3ED94035049EDA2E092BD
:101CE000007AC5C3E5829400E583941C50902000DF
:101CF00010438F02438F0175B7A575B7F1F030001F
:101D00001FA827A9280809438F01538FFDD804D99C
:101D100002A12089AAE275B7A575B7F1F0A3A10DBC
:101D2000538FFC817C7AC1BD030CE493A3FAB140CC
:101D3000DCF8B138817C817EAA22AB23B15CEBFA5E
:101D4000EA6222752608C3E52313F523E52213F57D
:101D50002250066323A0632201D526EAB1C9B1C986
:101D600075260AEAF4200102D285300102C285B14B
:101D7000C9C3134002C201D526EB22B17FEAFB2082
:101D80008502A17F308502A184752608AE24AF2587
:101D9000C3EF13FFEE13FEB1CDB1C9C3EA13308513
:101DA000024480FA30E703632201C3E52313F523DD
:101DB000E52213F52250066323A0632201D526D91C
:101DC000E52265236523F52222AE24AF250E0FDE22
:101DD000FEDFFCD20122424C48656C693437316326
:041DE000F390060175
:00000001FF
