:030000000219FDE5
:03000B000200B53B
:03002B000201AD22
:03005B0002035C41
:0300730002034243
:1000800002030406080C10182030406080040608A3
:100090000C10182030406080A0C000070F1F3F0DDB
:1000A0000D04050D050305030302C0F075F02BA434
:1000B000E5F0D0F022C2AF306308C26385798AD2FE
:1000C000AF32C0D0C0E0E52511AAF57CE52611AA23
:1000D000F57D206227E57C6002E473E57CF4C333A0
:1000E0004009758A00D263F57901EDF58A758B00B8
:1000F000758D00D262D0E0D0D0D2AF32C3E57D336F
:100100004009758A00D263F579210DF58AC262E54E
:100110007DF46038306803207213758B00758D0094
:10012000D0E0D0D0C293C297C294D2AF32C293C2B1
:1001300097C294206E09740CD5E0FDE57B42907562
:100140008B00758D00D0E0D0D0D2AF32758A00D24E
:1001500063757900C28DD262213F01DB30680520D2
:100160006602D29301DB306805206602D29401DB7F
:10017000306805206602D29701DBC29230680A20FF
:100180006607740CD5E0FDD29301DBC29530680A96
:10019000206607740CD5E0FDD29401DBC29630686E
:1001A0000A206607740CD5E0FDD29701DBC2AFC20E
:1001B000AD53E6EFC0D0C0E0D2D3D2AFE57A60094C
:1001C000E577600575770041F1757701C2CEE52AC4
:1001D0006007207449152A411E7800790020742E8A
:1001E000E580307E01F430E50278FF53DACF207EDF
:1001F0000343DA20307E0343DA10C2D8C271E580AF
:10020000307E01F430E50279FFC3E89970CB3061AC
:1002100003752A18207403752A18885CD27020741C
:100220000DE52B6004152B412E43DA01C2D8207056
:1002300002418AA85C206102C2702074367982B7BC
:100240000431C3E894F0400374F0F8E8C4540F2874
:10025000F87984B703024173C313C31387212008BD
:1002600002C313200A06C3C898F8417328F8500344
:1002700074FFF88822E52D5406600FE533C313C3DD
:10028000132522F52250037522FF7882B604598582
:100290002224A824C3E52495614002A861C3E895FF
:1002A000634002A8638825E566700241DBC3E8AAC3
:1002B000669A5003E8FAE4F9EAC333FBE568F45BB5
:1002C00029400D2567F8E56760021567400B41DBA3
:1002D0000AC3E5679A5002056778FF8826C26EC395
:1002E000E52694F84002D26EC3E52594404002D240
:1002F0006420CF0AD0E0D0D043E610D2AD32E57A08
:100300006009E57860057578006138757801C2CFBD
:100310007801E52A6005307402152AC3E55C940172
:100320004005755F006138756000756900E55F2400
:1003300001F55F5003755FFFD0E0D0D043E610D2E7
:10034000AD32C2AFC0D053E67FC260759100855315
:1003500094855495759104D0D0D2AF32C2AF53E694
:10036000EFC2ADC0D0C0E0C0F0D2D3D2AFA8FBA9DD
:10037000FCE57A6007C3E913F9E813F8C2D83071D5
:100380000261CE53DACF207E0343DA10307E03437E
:10039000DA20D271E580307E01F420E50261A58883
:1003A000278928A1F553DACF207E0343DA20307E57
:1003B0000343DA10C2D8C271307402A1E17800E5BB
:1003C00080307E01F430E502A1E1885CA1C953DAF6
:1003D000CF207E0343DA20307E0343DA10C271203F
:1003E000610281A753DACF207E0343DA10307E0307
:1003F00043DA20C2D8D27188578958C3E89555F896
:10040000E99556F97B007E087A00C3E8948CE9945C
:10041000005005755B008199882178A2E6A82160CB
:1004200055C3E894C8E994005008E4D2E4FB7A0A82
:100430008174C3E89468E994015008E4D2E3FB7A3C
:100440000F8174C3E894D0E994025008E4D2E2FB2F
:100450007A1E8174C3E894A0E994055008E4D2E1BF
:10046000FB7A3C8174C3E89498E994085008E4D27C
:0F047000E0FB7A787E00C3E89559FCE9955AFDC8
:10047F0030E70AECF42401FCEDF43400FD755B0069
:10048F00C3EC9AED9E5003755B018859895A8557C5
:10049F00558558567802A1C9C3E89527F8E99528DC
:1004AF00F9307C02A1AD307B02A1AD307A02A1A65A
:1004BF0020750281CAE9FDE8FC81E9E9C313F9E877
:1004CF0013F8307902A1A6E9C313F9E813F83078CD
:1004DF0002A1A6E9C313FDE813FC206126C3EC9427
:1004EF001CED94024002A100ED7018C3EC94C850AB
:1004FF00120529C3E529940A5002A1E1755C00D2C7
:10050F0070A1E1E529600215297888E6F9740020C9
:10051F007F087896B90302789EE624FAFEE4340049
:10052F00FFC3EC9EFCED9FFD9208B90310A208508B
:10053F0007207609D276A14C307602C276A20850F7
:10054F0016B9030DECF42401FCEDF43400FD0205A3
:10055F006678007900A1ADB90315EC33FCED33FDDE
:10056F00C3EC940AFCED9400FD50047C007D00C3A5
:10057F00EC94FFED9400400678FF7900A1ADEC8577
:10058F0072F0A4C5F0A2F733F8790040030205C951
:10059F0078FF79000205C9E9C313F9E813F8307C35
:1005AF000EE9600278FFC3E81338F8E43400F9C3AA
:1005BF00E894FFE99400400278FF885CD2702061D4
:1005CF0002A1E1741FF4552F4BF52FC274EB70028B
:1005DF00D274752A18307403752A0A306102A1F596
:1005EF0020740353DAFE207403752B06D0F0D0E08D
:1005FF00D0D0D2AD43E6103279010206257903023D
:10060F000625790A020625791E0206257964020657
:10061F002579C80206257817E4D5E0FDD8FAD9F672
:10062F00227A147B7802064C7A107B8C02064C7A65
:10063F000D7BB402064C7A0B7BC802064C7902B2D2
:10064F007DE4C295D5E0FDD294D5E0FDC294D5E00E
:10065F00FDD295D5E0FDD293E573D5E0FDC293743D
:10066F0096D5E0FDD9D9EAF8D5E0FDD8FBDBCEC2AF
:10067F009522C37C007D0075F00005F0EA33FAEB9C
:10068F0033FB50F6EB13FBEA13FAC3E9FFE8FEE87E
:10069F009AF8E99BF95004EFF9EEF8B3EC33FCED5F
:1006AF0033FDD5F0DFEDF9ECF822E889F08A20D29E
:1006BF00D4F8A9F07B0030F70B7BFFF42401F8E9A5
:1006CF00F43400F9E88520F0A4ADF0F8E98520F0C6
:1006DF00A4AFF0FEED2EF974003FFA7C04C3EA13C9
:1006EF00FAE913F9E813F8DCF48BF030F70AE8F4C1
:1006FF002401F8E9F43400F9E889F0C2D4F8A9F03C
:10070F00227882B6040302076BC3E55C94014003B1
:10071F00020735852224E4F542F543F544F545F506
:10072F0046C26D02076B7882E6FCD26DE522F52397
:10073F00783879C7AA3DAB3EC3EB13FBEA13FAEC4B
:10074F00146013C3EB13FBEA13FAEC14146007C322
:10075F00EB13FBEA13FAD1818842894322C3E542A6
:10076F009523F8E5439400F9500CC3E89480E9947D
:10077F00FF401602079CC3E8947FE99400500302E0
:10078F00079C787F790002079C788079FF884789DA
:10079F004822E5472544F8E5483545F9854820E4E2
:1007AF00300701F43546FA30E709C3EA94F04015F3
:1007BF000207DAC3EA940F50030207DA78FF79FFD2
:1007CF007A0F0207DA780079007AF0C3E524956191
:1007DF00500AC374019524500B0207F8E54820E72F
:1007EF000E0207F8E54830E706884489458A462215
:1007FF0078A4E6FAC3E54733F8E54833F91206B9AA
:10080F00E930E70BC3E89480E994FF40130133C349
:10081F00E8947FE9940050020133787F7900013327
:10082F00788079FFE820E715C3E52398F84009C3DE
:10083F00E89401400302085A780102085AE8F424A8
:10084F00012523F8400302085A78FF88492278A52A
:10085F00E6FAA845A9461206B9E930E70CC3E894B1
:0E086F0001E994FF401602088FC3E894FFE9E8
:10087D009400500302088F78FF790002088F7801E9
:10088D0079FFE920E715C3E54998F84009C3E894D5
:10089D000140030208B678010208B6E8F4240125E8
:1008AD0049F840030208B678FF88242278FFC26415
:1008BD0020693D206A12D264C3E53E940A4009C303
:1008CD00E52594405002C26479A1E76023E53E60BE
:1008DD001F74FF853EF0848538F0306A0375F0058E
:1008ED00A4F8C5F0600278FFC3E895645002A864CF
:1008FD00886322C3E53D94C8E53E9400E56350034B
:10090D00142111046002F563220209192275E89081
:10091D00227883E6FFE5E820ECF7A8BDA9BE0570B7
:10092D00C3E57094084052757000E9FA79A0E7604C
:10093D0044EA7007E571601B020954C3E8957160C4
:10094D0010E5715006600C140209600460F902098B
:10095D0060E571F571C39472401B7561C0C3940459
:10096D004013756180C39404400B756140C39404BA
:10097D00400375610075BB0922E5612410500274B6
:10098D00FFF5617982B7040221ADC3A861E5249812
:10099D005002A824C3E895634002A86388258826E1
:1009AD00E570B4070375BB1022743279A687F0A4E5
:1009BD00C5F0A2F733F8C3E895614002A86188221B
:1009CD00882488258826886422753D00753EF0228E
:1009DD0075C820A8CCA9CD75C824C3E913F9E813AF
:1009ED00F8AA39AB3A8839893AC3E89AF8E99B54A1
:1009FD007FF930670241DC306933AC3BAD3C8A3B5B
:100A0D008B3CC3EB9D547FFBC3E99BF53FA839A9F4
:100A1D003AC3E89CF8E99D547FF9C3E53E13FBE525
:100A2D003D13FAE82AF53DE93BF53E4184AA3DAB7D
:100A3D003EAC3DAD3E7E047F02C3EB940440021EEE
:100A4D001FC3EB940840021E1FC3ED13FDEC13FCF6
:100A5D00DEF7C3EA9CFAEB9DFBEF6009C3E913F9DE
:100A6D00E813F8DFF7EA28FAEB39FB8A3D8B3E50A5
:100A7D00067BFF8B3D8B3EC3EB94025002D2673059
:100A8D0069047F0341AF7892E6FFC3E53694824057
:100A9D00110FC3E53694A040010FC3EF9406400239
:100AAD007F057E01E53EC4540FF9E53EC454F0F8D0
:100ABD00E53DC4540F28F8C3E89EFAE99400FB40C5
:100ACD0009C3EA9402EB940050047A02E4FB22AAD3
:100ADD003DAB3EEBC4FEEAC4540F4EFCC3EA9CFA98
:100AED00EB9400FBC3E813C313F8EA28FAEB3400C8
:100AFD00FB8A3D8B3EC3EB94024002C2677801EB4B
:100B0D00C4FE7B00EAC4540F4EFAC3EA98FA4005BE
:100B1D00C3940250027A027892E6FF22306002619D
:100B2D0029854F53855054D26043E68022C3E49A01
:100B3D00F8E49BF9C3E833F8E933F930670261C98A
:100B4D00E8FAE9FBD3E913FDE813FC884F8950C39C
:100B5D00EF94036037EF20E00DE82CF8E93DF9EC58
:100B6D00FAEDFB020B86E828F8E939F9C3E824020F
:100B7D00F8E93400F97AFE7BFFC3EF9403400D8A48
:100B8D00518B52884B894C8C4D8D4E2288518952F8
:100B9D008A4B8B4C8C4D8D4E306920C3E5339403BD
:100BAD004019E53FA2E713F8E552F4240138400B54
:100BBD0020E7087551FFF42401F55222E8FAD3E835
:100BCD0013FC884FC3EF9403601FEF20E007E82C60
:100BDD00F8ECFA61E9E8282402F87AFEC3EF9403F1
:100BED0040078A51884B8C4D2288518A4B8C4D225F
:100BFD00E568C3335002646BF5683060028107D23B
:100C0D006043E680E52D54066029A83DA93EC3E961
:100C1D0013F9E813F8C3E833F8E933F953E67F75B0
:100C2D009100C3E498F594E499F595759104D2601B
:100C3D0043E68022D265754100752000306B037547
:100C4D002040020C60D265754100752040306B0369
:100C5D00752000D2AF7801206722E52D5406600281
:0F0C6D00C265C3E53E9405401378029405400824
:100C7C007803940540027806306902780A206009EE
:100C8C00E5416005D2AFD26C22D2AF0000C2AF20DA
:100C9C00672AE53EC3FB940F40027B0FEB24053023
:100CAC00730123306A02742820620123F93069022F
:100CBC007982E58D13E58B13C39940C10541E59B02
:100CCC00F45440B52002A12130691408C3E8940AF9
:100CDC0040028160C3E53394065002816081892013
:100CEC0065028160C26553E67F75910030671075AF
:100CFC0094007595FC759104D26043E6808160AEDA
:100D0C003DAF3EC3EE33FEEF33FFC3E49EF594E4F8
:100D1C009FF595A101C3E5339402500281603065C3
:100D2C00028160D802A1358189C26C22E52D54065E
:100D3C006008206A020533020D56306C0D206B0AD8
:100D4C002065071581158102164D2253E67F75919A
:100D5C0000855194855295759104854B53854C545F
:100D6C00D26043E680D2AF22780030640530650251
:100D7C007801E53675F007A4F9E5F028F5F0E9A25D
:100D8C00F013A2F113A2F213F536C3947850037545
:100D9C003678C3E53695374008D266C293C297C2FF
:100DAC0094306002A1AD854D53854E54D26043E61C
:100DBC008022207D11C2AF754002C295D292D2AF73
:100DCC00759F80020F8DC2AF754002C295D296D22C
:100DDC00AF759F80020F8D307243207D20C2AF759E
:100DEC00400390018B757B20C297C296306204D26F
:100DFC0094C101D295D2AF759F89020F8DC2AF7588
:100E0C00400390018B757B20C293C292306204D256
:100E1C0094C121D295D2AF759F81020F8D207D1781
:100E2C00C2AF754003900166C297306202D294D271
:100E3C00AF759F89020F8DC2AF754003900166C2DA
:100E4C0093306202D294D2AF759F81020F8D207DB8
:100E5C0011C2AF754004C292D296D2AF759F810277
:100E6C000F8DC2AF754004C296D292D2AF759F89D6
:100E7C00020F8D307243207D20C2AF75400590016A
:100E8C007A757B04C294C295306204D293C19DD210
:100E9C0092D2AF759F80020F8DC2AF754005900145
:100EAC009C757B40C294C295306204D297C1BDD26E
:100EBC0096D2AF759F80020F8D207D17C2AF754003
:100ECC000590015CC294306202D293D2AF759F80C0
:100EDC00020F8DC2AF754005900170C2943062EB69
:100EEC00D297D2AF759F80020F8D207D11C2AF7546
:100EFC004006C296D295D2AF759F89020F8DC2AFB4
:100F0C00754006C292D295D2AF759F81020F8D307B
:100F1C007242207D20C2AF75400190019C757B40D0
:100F2C00C293C292306204D297E139D296D2AF7595
:100F3C009F81020F8DC2AF75400190017A757B04C1
:100F4C00C297C296306204D293E159D292D2AF7555
:100F5C009F89E18D207D16C2AF754001900170C252
:100F6C0093306202D297D2AF759F81E18DC2AF757B
:100F7C00400190015CC297306202D293D2AF759F50
:100F8C0089C2662290015A757B00C293C297C294A3
:100F9C00C292C296C295C2622278807609087609FE
:100FAC000876040876FF0876030876FF08760908A9
:100FBC007601087601087601788C76010876FF08B0
:100FCC0076FF0876FF0876FF0876FF08760308762A
:100FDC00FF0876FF0876FF0876250876D008762875
:100FEC000876500876040876FF0876020876000822
:100FFC00767A0876FF08760108760108760008767E
:10100C0003227887E6FFC272BF0302D2727888E6A9
:10101C00C394036008C27DE630E102D27DC27E78C3
:10102C0089E630E102D27EC3EF94026008758E012E
:10103C00D273021046758E00C273227880E614902B
:10104C0000809378A4F67881E6149000809378A5BC
:10105C00F67886E61490008D9378A6F6789CE67563
:0E106C0037FF75380CB402067537A075380AC8
:10107A00B4030675378275380578A3E61490009A8A
:10108A0093F566120F9022227896E6FA7897E6FB95
:10109A007888E6B40305C3EB940EFB307F047A002C
:1010AA007BFFC3EB9AFCC3948250027C8275720068
:1010BA000572EC8572F0A4C3E5F0947D40F222D269
:1010CA007F11921206167A007B007C1012060CE53C
:1010DA005C2AFA74003BFBDCF37C04C3EB13FBEAE7
:1010EA0013FADCF7FEC27F119222E5EF20E60375C0
:1010FA0020000520903FFFE520146006901FFF1492
:10110A0060009304600375EF1253D9BF7581C04321
:10111A00FF8012060775EF0243B203E5B3240420E9
:10112A00E70DF521E5E320E0068521B343E301124B
:10113A000F907580FF75A40075F1F075D4DF759076
:10114A000275A5FC75F2FD75D50275A61075A0FF8E
:10115A0075F3F175E241E4F8F6D8FD756801120FEE
:10116A00A512169778988673753001C2AF120620B9
:10117A0012063012061612063712061612063E120A
:10118A000616C2AF78FA79FA308507D9FBD8F70282
:10119A001C00110E11471191119278988673120F43
:1011AA009075B68075A900757A0075885075891290
:1011BA0075C82475910475D84075A82275B802754A
:1011CA00E690759B80759D0075D10E75BC5875BBF0
:1011DA000975BA1175E880120607D2AF12091653BB
:1011EA00DACF207E0343DA20307E0343DA1043DA73
:1011FA0001C2D8C271120620D2617B037A0CE55B68
:10120A0070077A0CDB0302118C1206162070030297
:10121A00118CC270E55CC3940240E1E52F541F852E
:10122A005E5DF55EB55DD5DAD5C26153DACF207E53
:10123A000343DA20307E0343DA10C2D8C27178A29F
:10124A00E67008D274E52F54E0F52FC275752900AF
:10125A0012061B307409C3E529940A4002D275129A
:10126A00060C78023074027800C3E55C9840F0C23C
:10127A00AF120630120630120630D2AF12062075AF
:10128A004A007888E6B40302616812060C788CE694
:10129A00C394015003021368E530C394015003025A
:1012AA001368207435C3E55C94FF5003021368C2C7
:1012BA00AF120645D2AF12061BC3E55C940150EF8C
:1012CA00C2AF120630120611120630D2AF12061B36
:1012DA00C3E55C94FF40E902183F7F02D27F119276
:1012EA0012061BC2AFC27F1192AE5CC3E55C947F4B
:1012FA00D2AF4074120607C2AF120645D2AFDFDC86
:10130A0011C9C3EE94057897F61206201216D9125F
:10131A0017C27F0AD27F119212061BC2AFC27F1177
:10132A0092AE5CC3E55C947FD2AF50E6120607C268
:10133A00AF120630120611120630D2AFDFD611C92B
:10134A00EE24057896F61206201216D91217F11213
:10135A00061B1192C3E55C94FF40F402183FC3E5F3
:10136A005C954A4003855C4A12061B78017988E736
:10137A00B403027805C3E55C984002418CC2AF12FF
:10138A000645120645120645D2AF120620753000F0
:10139A00E4F531F5320531E531F470390532789AE0
:1013AA00E67819146012783214600D787D1460089A
:1013BA0078FA146003753200C3E532984017153283
:1013CA007531B478998673C2AF120645D2AF789850
:1013DA00867312061B120611E52A70053074022163
:1013EA008C78012074027806C3E55C9840A7788857
:1013FA00E6C39403600312061BE52A700302118CEC
:10140A00C2AF120F90E4F522F523F524F525F5264F
:10141A00F567D2AF7885E6C333F565E4F542F5435F
:10142A00F544F545F546F570F52CF52DF53675704C
:10143A000875BB1012060712091AE5E820ECFBA88A
:10144A00BDA9BEE97001F8887112091E7570087588
:10145A00BB107887E6FE7602110E7887EEF6C2AFE9
:0F146A007561FF1209B6852261852262852263B2
:10147900D2AF752201752401752501752601856094
:1014890069756A0175B69075A903757A017888E658
:10149900B40307C27D307602D27DD268D269753332
:1014A90000120EF6120F1B1209DD1209DD1209D600
:1014B9001209DD120B3A1209D6120BFD0214D4C21D
:1014C900AF110ED2AF75700075BB09120C52120D17
:1014D90057120D38120710120D74120DBE1209DDC4
:1014E900120B29120B3A120BFD120C41120D571255
:1014F9000D38306D0312076C2067031208B9306785
:1015090003120900120D74120DE31209DD120B29E1
:10151900120B3A120BFD120C52120D57120D3830E4
:101529006D031207A1120D74120E5A1209DD120B66
:1015390029120B3A120BFD120C41120D57120D38DC
:10154900306D031207FF120D74120E7F1209DD129E
:101559000B29120B3A120BFD120C52120D57120DD8
:1015690038306D0312085D120D74120EF61209DD82
:10157900120B29120B3A120BFD12091A120C411205
:101589000D57120D38120D74120F1B12091E120974
:10159900DD120B29120B3A120BFD306935206B3223
:1015A900856461856462856069756A0179187A0C58
:1015B900C3E53399400FC269D26A8A34856461856B
:1015C90064630215DBC3E55C940140030214D40291
:1015D9001655306A1B206B18E534147004C26A81F1
:1015E900C8F534C3E55C940140030214D4021655CE
:1015F900C3E55F78FA985054307404E52A604D7851
:1016090088E6B40317207D05207607C125307602C8
:10161900C125206B07D26B856461A14078F0306BDE
:10162900058564617820C3E53E98500281D4306B0A
:101639001BC26BC27D307602D27DD26A75341285A7
:10164900646181D40535E55C6002C158753500C215
:10165900AF120F907887E6FE7602110E7887EEF6C4
:10166900E4F522F523F524F525F526F565C2687517
:10167900B68075A900757A00D2AF120607120F90CD
:10168900307409C3E53594054002218C619A901A9A
:101699000D782012171BE520B4550CA312171BE572
:1016A90020B4AA030216B9120FA51216D90216D828
:1016B900901A0378807B0A12171BA308DBF9901A8A
:1016C9000F788C7B1812171BA308DBF9901A2722B5
:1016D900C2AF12175A121734901A00740E1217203B
:1016E900A37403121720A37414121720901A0378F5
:1016F900807B0A12171FA308DBF9901A0F788C7BDD
:101709001812171FA308DBF912176D12174B901A3D
:101719002722E493F622E6438F01538FFD75EF02EA
:1017290075B7A575B7F1F0538FFE22438F02438F2A
:101739000175EF0275B7A575B7F1901A0DF0538FC2
:10174900FC22901A0D7455F120901A0E74AAF120FA
:10175900227A3079D07820901A40F11BE520F709D8
:10176900A3DAF7227A3079D0901A40E7F12009A359
:10177900DAF922AB74A875BB01027980BB02027940
:1017890081BB03027982BB04027984BB0502798695
:10179900BB06027992BB07027987BB080279A3BB12
:1017A9000902799CBB0A027988BB0B027989E8F79F
:1017B900227C05120620DCFB22C2AF12063012067B
:1017C9003712063E12064512061112063012063766
:1017D90012063E120645120611120630120637127B
:1017E900063E120645D2AF22C2AF12064512063E88
:1017F90012063712063012061112064512063E125B
:10180900063712063012061112064512063E120656
:1018190037120630D2AF22AE74AF75C2AF1206309E
:10182900120630120630120611DEF21206451206B1
:1018390011DFF8D2AF221217C21217BA1217BA75EE
:10184900740175750175760011207C05AD5C120671
:1018590020C3ED955C70F5C3E55C9401400AC3E5CE
:0E1869005C94FF403702188212177C1216D9C9
:101877001217C2C2AF75EF121217BADCD10576C3C1
:10188700E5769403500280C21217BA0575E5741401
:1018970090009F93F808C3E57598500280A9121726
:1018A700BA1217BA0574C3E574940C5002809512E6
:0D18B7000FA51216D9C2AF75EF121217BAA5
:0319FD000210F4E1
:101A00000E0314090904FF03FF0901010155AA018E
:101A1000FFFFFFFFFF03FFFFFF25D0285004FF0259
:081A2000007AFF01010003FF41
:101A40002358526F746F723430412320202020209D
:101A500023424C48454C492346333930232020202B
:101A60002020202020202020202020202020202076
:101C0000C2AFC2D353D9BF7581C043B20343FF8073
:101C1000752438752503B1C975EF0275E24043F1AB
:101C20002053A4DF75D400D2857DFA780379E67C51
:101C300010752200752300901DD67B0675249875BB
:101C400025013085028142208508D8FBD9F9DCF7CF
:101C500081B4308508D8FBD9F9DCF781B4B189E4C7
:101C600093A3C39A6004DDC381B4DBDBB17B600264
:101C7000812B7B08E493FAA3B15CDBF87A30B15C8A
:101C8000752200752300B17BEAFCEBFDC3ED94FEE9
:101C9000400EB17B8A278B28ED30E0048A828B834B
:101CA000B17B7AC270D8C3ED94FE601350CEBD00F4
:101CB00025EC60097520007521FF0200008100A855
:101CC00027A9280809D804D90281D3B17FEA89AAB3
:101CD000F281C50D81A0C3ED94035049EDA2E092BD
:101CE000007AC5C3E5829400E583941C50902000DF
:101CF00010438F02438F0175B7A575B7F1F030001F
:101D00001FA827A9280809438F01538FFDD804D99C
:101D100002A12089AAE275B7A575B7F1F0A3A10DBC
:101D2000538FFC817C7AC1BD030CE493A3FAB140CC
:101D3000DCF8B138817C817EAA22AB23B15CEBFA5E
:101D4000EA6222752608C3E52313F523E52213F57D
:101D50002250066323A0632201D526EAB1C9B1C986
:101D600075260AEAF4200102D285300102C285B14B
:101D7000C9C3134002C201D526EB22B17FEAFB2082
:101D80008502A17F308502A184752608AE24AF2587
:101D9000C3EF13FFEE13FEB1CDB1C9C3EA13308513
:101DA000024480FA30E703632201C3E52313F523DD
:101DB000E52213F52250066323A0632201D526D91C
:101DC000E52265236523F52222AE24AF250E0FDE22
:101DD000FEDFFCD20122424C48656C693437316326
:041DE000F390060175
:00000001FF
